{
	"contracts/Third_Homework.sol": {
		"Third_Homework": {
			"abi": [
				{
					"inputs": [
						{
							"internalType": "string",
							"name": "_title",
							"type": "string"
						},
						{
							"internalType": "string",
							"name": "_description",
							"type": "string"
						},
						{
							"internalType": "uint256",
							"name": "_approve",
							"type": "uint256"
						},
						{
							"internalType": "uint256",
							"name": "_reject",
							"type": "uint256"
						},
						{
							"internalType": "uint256",
							"name": "_pass",
							"type": "uint256"
						},
						{
							"internalType": "uint256",
							"name": "_total_vote_to_end",
							"type": "uint256"
						}
					],
					"name": "create",
					"outputs": [],
					"stateMutability": "nonpayable",
					"type": "function"
				}
			],
			"devdoc": {
				"kind": "dev",
				"methods": {},
				"version": 1
			},
			"evm": {
				"assembly": "    /* \"contracts/Third_Homework.sol\":65:1096  contract Third_Homework {... */\n  mstore(0x40, 0x80)\n  callvalue\n  dup1\n  iszero\n  tag_1\n  jumpi\n  0x00\n  dup1\n  revert\ntag_1:\n  pop\n  dataSize(sub_0)\n  dup1\n  dataOffset(sub_0)\n  0x00\n  codecopy\n  0x00\n  return\nstop\n\nsub_0: assembly {\n        /* \"contracts/Third_Homework.sol\":65:1096  contract Third_Homework {... */\n      mstore(0x40, 0x80)\n      callvalue\n      dup1\n      iszero\n      tag_1\n      jumpi\n      0x00\n      dup1\n      revert\n    tag_1:\n      pop\n      jumpi(tag_2, lt(calldatasize, 0x04))\n      shr(0xe0, calldataload(0x00))\n      dup1\n      0x9478f9e7\n      eq\n      tag_3\n      jumpi\n    tag_2:\n      0x00\n      dup1\n      revert\n        /* \"contracts/Third_Homework.sol\":766:1093  function create(string memory _title, ... */\n    tag_3:\n      tag_4\n      0x04\n      dup1\n      calldatasize\n      sub\n      dup2\n      add\n      swap1\n      tag_5\n      swap2\n      swap1\n      tag_6\n      jump\t// in\n    tag_5:\n      tag_7\n      jump\t// in\n    tag_4:\n      stop\n    tag_7:\n        /* \"contracts/Third_Homework.sol\":965:966  1 */\n      0x01\n        /* \"contracts/Third_Homework.sol\":954:961  counter */\n      0x00\n      dup1\n        /* \"contracts/Third_Homework.sol\":954:966  counter += 1 */\n      dup3\n      dup3\n      sload\n      tag_9\n      swap2\n      swap1\n      tag_10\n      jump\t// in\n    tag_9:\n      swap3\n      pop\n      pop\n      dup2\n      swap1\n      sstore\n      pop\n        /* \"contracts/Third_Homework.sol\":1004:1086  Proposal(_title,_description,_approve,_reject,_pass,_total_vote_to_end,false,true) */\n      mload(0x40)\n      dup1\n      0x0100\n      add\n      0x40\n      mstore\n      dup1\n        /* \"contracts/Third_Homework.sol\":1013:1019  _title */\n      dup9\n        /* \"contracts/Third_Homework.sol\":1004:1086  Proposal(_title,_description,_approve,_reject,_pass,_total_vote_to_end,false,true) */\n      dup2\n      mstore\n      0x20\n      add\n        /* \"contracts/Third_Homework.sol\":1020:1032  _description */\n      dup8\n      dup8\n        /* \"contracts/Third_Homework.sol\":1004:1086  Proposal(_title,_description,_approve,_reject,_pass,_total_vote_to_end,false,true) */\n      dup1\n      dup1\n      0x1f\n      add\n      0x20\n      dup1\n      swap2\n      div\n      mul\n      0x20\n      add\n      mload(0x40)\n      swap1\n      dup2\n      add\n      0x40\n      mstore\n      dup1\n      swap4\n      swap3\n      swap2\n      swap1\n      dup2\n      dup2\n      mstore\n      0x20\n      add\n      dup4\n      dup4\n      dup1\n      dup3\n      dup5\n      calldatacopy\n      0x00\n      dup2\n      dup5\n      add\n      mstore\n      not(0x1f)\n      0x1f\n      dup3\n      add\n      and\n      swap1\n      pop\n      dup1\n      dup4\n      add\n      swap3\n      pop\n      pop\n      pop\n      pop\n      pop\n      pop\n      pop\n      dup2\n      mstore\n      0x20\n      add\n        /* \"contracts/Third_Homework.sol\":1033:1041  _approve */\n      dup6\n        /* \"contracts/Third_Homework.sol\":1004:1086  Proposal(_title,_description,_approve,_reject,_pass,_total_vote_to_end,false,true) */\n      dup2\n      mstore\n      0x20\n      add\n        /* \"contracts/Third_Homework.sol\":1042:1049  _reject */\n      dup5\n        /* \"contracts/Third_Homework.sol\":1004:1086  Proposal(_title,_description,_approve,_reject,_pass,_total_vote_to_end,false,true) */\n      dup2\n      mstore\n      0x20\n      add\n        /* \"contracts/Third_Homework.sol\":1050:1055  _pass */\n      dup4\n        /* \"contracts/Third_Homework.sol\":1004:1086  Proposal(_title,_description,_approve,_reject,_pass,_total_vote_to_end,false,true) */\n      dup2\n      mstore\n      0x20\n      add\n        /* \"contracts/Third_Homework.sol\":1056:1074  _total_vote_to_end */\n      dup3\n        /* \"contracts/Third_Homework.sol\":1004:1086  Proposal(_title,_description,_approve,_reject,_pass,_total_vote_to_end,false,true) */\n      dup2\n      mstore\n      0x20\n      add\n        /* \"contracts/Third_Homework.sol\":1075:1080  false */\n      0x00\n        /* \"contracts/Third_Homework.sol\":1004:1086  Proposal(_title,_description,_approve,_reject,_pass,_total_vote_to_end,false,true) */\n      iszero\n      iszero\n      dup2\n      mstore\n      0x20\n      add\n        /* \"contracts/Third_Homework.sol\":1081:1085  true */\n      0x01\n        /* \"contracts/Third_Homework.sol\":1004:1086  Proposal(_title,_description,_approve,_reject,_pass,_total_vote_to_end,false,true) */\n      iszero\n      iszero\n      dup2\n      mstore\n      pop\n        /* \"contracts/Third_Homework.sol\":976:992  proposal_history */\n      0x01\n        /* \"contracts/Third_Homework.sol\":976:1001  proposal_history[counter] */\n      0x00\n        /* \"contracts/Third_Homework.sol\":993:1000  counter */\n      dup1\n      sload\n        /* \"contracts/Third_Homework.sol\":976:1001  proposal_history[counter] */\n      dup2\n      mstore\n      0x20\n      add\n      swap1\n      dup2\n      mstore\n      0x20\n      add\n      0x00\n      keccak256\n        /* \"contracts/Third_Homework.sol\":976:1086  proposal_history[counter] = Proposal(_title,_description,_approve,_reject,_pass,_total_vote_to_end,false,true) */\n      0x00\n      dup3\n      add\n      mload\n      dup2\n      0x00\n      add\n      swap1\n      dup2\n      tag_11\n      swap2\n      swap1\n      tag_12\n      jump\t// in\n    tag_11:\n      pop\n      0x20\n      dup3\n      add\n      mload\n      dup2\n      0x01\n      add\n      swap1\n      dup2\n      tag_13\n      swap2\n      swap1\n      tag_12\n      jump\t// in\n    tag_13:\n      pop\n      0x40\n      dup3\n      add\n      mload\n      dup2\n      0x02\n      add\n      sstore\n      0x60\n      dup3\n      add\n      mload\n      dup2\n      0x03\n      add\n      sstore\n      0x80\n      dup3\n      add\n      mload\n      dup2\n      0x04\n      add\n      sstore\n      0xa0\n      dup3\n      add\n      mload\n      dup2\n      0x05\n      add\n      sstore\n      0xc0\n      dup3\n      add\n      mload\n      dup2\n      0x06\n      add\n      exp(0x0100, 0x00)\n      dup2\n      sload\n      dup2\n      0xff\n      mul\n      not\n      and\n      swap1\n      dup4\n      iszero\n      iszero\n      mul\n      or\n      swap1\n      sstore\n      pop\n      0xe0\n      dup3\n      add\n      mload\n      dup2\n      0x06\n      add\n      exp(0x0100, 0x01)\n      dup2\n      sload\n      dup2\n      0xff\n      mul\n      not\n      and\n      swap1\n      dup4\n      iszero\n      iszero\n      mul\n      or\n      swap1\n      sstore\n      pop\n      swap1\n      pop\n      pop\n        /* \"contracts/Third_Homework.sol\":766:1093  function create(string memory _title, ... */\n      pop\n      pop\n      pop\n      pop\n      pop\n      pop\n      pop\n      jump\t// out\n        /* \"#utility.yul\":7:82   */\n    tag_14:\n        /* \"#utility.yul\":40:46   */\n      0x00\n        /* \"#utility.yul\":73:75   */\n      0x40\n        /* \"#utility.yul\":67:76   */\n      mload\n        /* \"#utility.yul\":57:76   */\n      swap1\n      pop\n        /* \"#utility.yul\":7:82   */\n      swap1\n      jump\t// out\n        /* \"#utility.yul\":88:205   */\n    tag_15:\n        /* \"#utility.yul\":197:198   */\n      0x00\n        /* \"#utility.yul\":194:195   */\n      dup1\n        /* \"#utility.yul\":187:199   */\n      revert\n        /* \"#utility.yul\":211:328   */\n    tag_16:\n        /* \"#utility.yul\":320:321   */\n      0x00\n        /* \"#utility.yul\":317:318   */\n      dup1\n        /* \"#utility.yul\":310:322   */\n      revert\n        /* \"#utility.yul\":334:451   */\n    tag_17:\n        /* \"#utility.yul\":443:444   */\n      0x00\n        /* \"#utility.yul\":440:441   */\n      dup1\n        /* \"#utility.yul\":433:445   */\n      revert\n        /* \"#utility.yul\":457:574   */\n    tag_18:\n        /* \"#utility.yul\":566:567   */\n      0x00\n        /* \"#utility.yul\":563:564   */\n      dup1\n        /* \"#utility.yul\":556:568   */\n      revert\n        /* \"#utility.yul\":580:682   */\n    tag_19:\n        /* \"#utility.yul\":621:627   */\n      0x00\n        /* \"#utility.yul\":672:674   */\n      0x1f\n        /* \"#utility.yul\":668:675   */\n      not\n        /* \"#utility.yul\":663:665   */\n      0x1f\n        /* \"#utility.yul\":656:661   */\n      dup4\n        /* \"#utility.yul\":652:666   */\n      add\n        /* \"#utility.yul\":648:676   */\n      and\n        /* \"#utility.yul\":638:676   */\n      swap1\n      pop\n        /* \"#utility.yul\":580:682   */\n      swap2\n      swap1\n      pop\n      jump\t// out\n        /* \"#utility.yul\":688:868   */\n    tag_20:\n        /* \"#utility.yul\":736:813   */\n      0x4e487b7100000000000000000000000000000000000000000000000000000000\n        /* \"#utility.yul\":733:734   */\n      0x00\n        /* \"#utility.yul\":726:814   */\n      mstore\n        /* \"#utility.yul\":833:837   */\n      0x41\n        /* \"#utility.yul\":830:831   */\n      0x04\n        /* \"#utility.yul\":823:838   */\n      mstore\n        /* \"#utility.yul\":857:861   */\n      0x24\n        /* \"#utility.yul\":854:855   */\n      0x00\n        /* \"#utility.yul\":847:862   */\n      revert\n        /* \"#utility.yul\":874:1155   */\n    tag_21:\n        /* \"#utility.yul\":957:984   */\n      tag_61\n        /* \"#utility.yul\":979:983   */\n      dup3\n        /* \"#utility.yul\":957:984   */\n      tag_19\n      jump\t// in\n    tag_61:\n        /* \"#utility.yul\":949:955   */\n      dup2\n        /* \"#utility.yul\":945:985   */\n      add\n        /* \"#utility.yul\":1087:1093   */\n      dup2\n        /* \"#utility.yul\":1075:1085   */\n      dup2\n        /* \"#utility.yul\":1072:1094   */\n      lt\n        /* \"#utility.yul\":1051:1069   */\n      0xffffffffffffffff\n        /* \"#utility.yul\":1039:1049   */\n      dup3\n        /* \"#utility.yul\":1036:1070   */\n      gt\n        /* \"#utility.yul\":1033:1095   */\n      or\n        /* \"#utility.yul\":1030:1118   */\n      iszero\n      tag_62\n      jumpi\n        /* \"#utility.yul\":1098:1116   */\n      tag_63\n      tag_20\n      jump\t// in\n    tag_63:\n        /* \"#utility.yul\":1030:1118   */\n    tag_62:\n        /* \"#utility.yul\":1138:1148   */\n      dup1\n        /* \"#utility.yul\":1134:1136   */\n      0x40\n        /* \"#utility.yul\":1127:1149   */\n      mstore\n        /* \"#utility.yul\":917:1155   */\n      pop\n        /* \"#utility.yul\":874:1155   */\n      pop\n      pop\n      jump\t// out\n        /* \"#utility.yul\":1161:1290   */\n    tag_22:\n        /* \"#utility.yul\":1195:1201   */\n      0x00\n        /* \"#utility.yul\":1222:1242   */\n      tag_65\n      tag_14\n      jump\t// in\n    tag_65:\n        /* \"#utility.yul\":1212:1242   */\n      swap1\n      pop\n        /* \"#utility.yul\":1251:1284   */\n      tag_66\n        /* \"#utility.yul\":1279:1283   */\n      dup3\n        /* \"#utility.yul\":1271:1277   */\n      dup3\n        /* \"#utility.yul\":1251:1284   */\n      tag_21\n      jump\t// in\n    tag_66:\n        /* \"#utility.yul\":1161:1290   */\n      swap2\n      swap1\n      pop\n      jump\t// out\n        /* \"#utility.yul\":1296:1604   */\n    tag_23:\n        /* \"#utility.yul\":1358:1362   */\n      0x00\n        /* \"#utility.yul\":1448:1466   */\n      0xffffffffffffffff\n        /* \"#utility.yul\":1440:1446   */\n      dup3\n        /* \"#utility.yul\":1437:1467   */\n      gt\n        /* \"#utility.yul\":1434:1490   */\n      iszero\n      tag_68\n      jumpi\n        /* \"#utility.yul\":1470:1488   */\n      tag_69\n      tag_20\n      jump\t// in\n    tag_69:\n        /* \"#utility.yul\":1434:1490   */\n    tag_68:\n        /* \"#utility.yul\":1508:1537   */\n      tag_70\n        /* \"#utility.yul\":1530:1536   */\n      dup3\n        /* \"#utility.yul\":1508:1537   */\n      tag_19\n      jump\t// in\n    tag_70:\n        /* \"#utility.yul\":1500:1537   */\n      swap1\n      pop\n        /* \"#utility.yul\":1592:1596   */\n      0x20\n        /* \"#utility.yul\":1586:1590   */\n      dup2\n        /* \"#utility.yul\":1582:1597   */\n      add\n        /* \"#utility.yul\":1574:1597   */\n      swap1\n      pop\n        /* \"#utility.yul\":1296:1604   */\n      swap2\n      swap1\n      pop\n      jump\t// out\n        /* \"#utility.yul\":1610:1756   */\n    tag_24:\n        /* \"#utility.yul\":1707:1713   */\n      dup3\n        /* \"#utility.yul\":1702:1705   */\n      dup2\n        /* \"#utility.yul\":1697:1700   */\n      dup4\n        /* \"#utility.yul\":1684:1714   */\n      calldatacopy\n        /* \"#utility.yul\":1748:1749   */\n      0x00\n        /* \"#utility.yul\":1739:1745   */\n      dup4\n        /* \"#utility.yul\":1734:1737   */\n      dup4\n        /* \"#utility.yul\":1730:1746   */\n      add\n        /* \"#utility.yul\":1723:1750   */\n      mstore\n        /* \"#utility.yul\":1610:1756   */\n      pop\n      pop\n      pop\n      jump\t// out\n        /* \"#utility.yul\":1762:2187   */\n    tag_25:\n        /* \"#utility.yul\":1840:1845   */\n      0x00\n        /* \"#utility.yul\":1865:1931   */\n      tag_73\n        /* \"#utility.yul\":1881:1930   */\n      tag_74\n        /* \"#utility.yul\":1923:1929   */\n      dup5\n        /* \"#utility.yul\":1881:1930   */\n      tag_23\n      jump\t// in\n    tag_74:\n        /* \"#utility.yul\":1865:1931   */\n      tag_22\n      jump\t// in\n    tag_73:\n        /* \"#utility.yul\":1856:1931   */\n      swap1\n      pop\n        /* \"#utility.yul\":1954:1960   */\n      dup3\n        /* \"#utility.yul\":1947:1952   */\n      dup2\n        /* \"#utility.yul\":1940:1961   */\n      mstore\n        /* \"#utility.yul\":1992:1996   */\n      0x20\n        /* \"#utility.yul\":1985:1990   */\n      dup2\n        /* \"#utility.yul\":1981:1997   */\n      add\n        /* \"#utility.yul\":2030:2033   */\n      dup5\n        /* \"#utility.yul\":2021:2027   */\n      dup5\n        /* \"#utility.yul\":2016:2019   */\n      dup5\n        /* \"#utility.yul\":2012:2028   */\n      add\n        /* \"#utility.yul\":2009:2034   */\n      gt\n        /* \"#utility.yul\":2006:2118   */\n      iszero\n      tag_75\n      jumpi\n        /* \"#utility.yul\":2037:2116   */\n      tag_76\n      tag_18\n      jump\t// in\n    tag_76:\n        /* \"#utility.yul\":2006:2118   */\n    tag_75:\n        /* \"#utility.yul\":2127:2181   */\n      tag_77\n        /* \"#utility.yul\":2174:2180   */\n      dup5\n        /* \"#utility.yul\":2169:2172   */\n      dup3\n        /* \"#utility.yul\":2164:2167   */\n      dup6\n        /* \"#utility.yul\":2127:2181   */\n      tag_24\n      jump\t// in\n    tag_77:\n        /* \"#utility.yul\":1846:2187   */\n      pop\n        /* \"#utility.yul\":1762:2187   */\n      swap4\n      swap3\n      pop\n      pop\n      pop\n      jump\t// out\n        /* \"#utility.yul\":2207:2547   */\n    tag_26:\n        /* \"#utility.yul\":2263:2268   */\n      0x00\n        /* \"#utility.yul\":2312:2315   */\n      dup3\n        /* \"#utility.yul\":2305:2309   */\n      0x1f\n        /* \"#utility.yul\":2297:2303   */\n      dup4\n        /* \"#utility.yul\":2293:2310   */\n      add\n        /* \"#utility.yul\":2289:2316   */\n      slt\n        /* \"#utility.yul\":2279:2401   */\n      tag_79\n      jumpi\n        /* \"#utility.yul\":2320:2399   */\n      tag_80\n      tag_17\n      jump\t// in\n    tag_80:\n        /* \"#utility.yul\":2279:2401   */\n    tag_79:\n        /* \"#utility.yul\":2437:2443   */\n      dup2\n        /* \"#utility.yul\":2424:2444   */\n      calldataload\n        /* \"#utility.yul\":2462:2541   */\n      tag_81\n        /* \"#utility.yul\":2537:2540   */\n      dup5\n        /* \"#utility.yul\":2529:2535   */\n      dup3\n        /* \"#utility.yul\":2522:2526   */\n      0x20\n        /* \"#utility.yul\":2514:2520   */\n      dup7\n        /* \"#utility.yul\":2510:2527   */\n      add\n        /* \"#utility.yul\":2462:2541   */\n      tag_25\n      jump\t// in\n    tag_81:\n        /* \"#utility.yul\":2453:2541   */\n      swap2\n      pop\n        /* \"#utility.yul\":2269:2547   */\n      pop\n        /* \"#utility.yul\":2207:2547   */\n      swap3\n      swap2\n      pop\n      pop\n      jump\t// out\n        /* \"#utility.yul\":2553:2670   */\n    tag_27:\n        /* \"#utility.yul\":2662:2663   */\n      0x00\n        /* \"#utility.yul\":2659:2660   */\n      dup1\n        /* \"#utility.yul\":2652:2664   */\n      revert\n        /* \"#utility.yul\":2676:2793   */\n    tag_28:\n        /* \"#utility.yul\":2785:2786   */\n      0x00\n        /* \"#utility.yul\":2782:2783   */\n      dup1\n        /* \"#utility.yul\":2775:2787   */\n      revert\n        /* \"#utility.yul\":2813:3366   */\n    tag_29:\n        /* \"#utility.yul\":2871:2879   */\n      0x00\n        /* \"#utility.yul\":2881:2887   */\n      dup1\n        /* \"#utility.yul\":2931:2934   */\n      dup4\n        /* \"#utility.yul\":2924:2928   */\n      0x1f\n        /* \"#utility.yul\":2916:2922   */\n      dup5\n        /* \"#utility.yul\":2912:2929   */\n      add\n        /* \"#utility.yul\":2908:2935   */\n      slt\n        /* \"#utility.yul\":2898:3020   */\n      tag_85\n      jumpi\n        /* \"#utility.yul\":2939:3018   */\n      tag_86\n      tag_17\n      jump\t// in\n    tag_86:\n        /* \"#utility.yul\":2898:3020   */\n    tag_85:\n        /* \"#utility.yul\":3052:3058   */\n      dup3\n        /* \"#utility.yul\":3039:3059   */\n      calldataload\n        /* \"#utility.yul\":3029:3059   */\n      swap1\n      pop\n        /* \"#utility.yul\":3082:3100   */\n      0xffffffffffffffff\n        /* \"#utility.yul\":3074:3080   */\n      dup2\n        /* \"#utility.yul\":3071:3101   */\n      gt\n        /* \"#utility.yul\":3068:3185   */\n      iszero\n      tag_87\n      jumpi\n        /* \"#utility.yul\":3104:3183   */\n      tag_88\n      tag_27\n      jump\t// in\n    tag_88:\n        /* \"#utility.yul\":3068:3185   */\n    tag_87:\n        /* \"#utility.yul\":3218:3222   */\n      0x20\n        /* \"#utility.yul\":3210:3216   */\n      dup4\n        /* \"#utility.yul\":3206:3223   */\n      add\n        /* \"#utility.yul\":3194:3223   */\n      swap2\n      pop\n        /* \"#utility.yul\":3272:3275   */\n      dup4\n        /* \"#utility.yul\":3264:3268   */\n      0x01\n        /* \"#utility.yul\":3256:3262   */\n      dup3\n        /* \"#utility.yul\":3252:3269   */\n      mul\n        /* \"#utility.yul\":3242:3250   */\n      dup4\n        /* \"#utility.yul\":3238:3270   */\n      add\n        /* \"#utility.yul\":3235:3276   */\n      gt\n        /* \"#utility.yul\":3232:3360   */\n      iszero\n      tag_89\n      jumpi\n        /* \"#utility.yul\":3279:3358   */\n      tag_90\n      tag_28\n      jump\t// in\n    tag_90:\n        /* \"#utility.yul\":3232:3360   */\n    tag_89:\n        /* \"#utility.yul\":2813:3366   */\n      swap3\n      pop\n      swap3\n      swap1\n      pop\n      jump\t// out\n        /* \"#utility.yul\":3372:3449   */\n    tag_30:\n        /* \"#utility.yul\":3409:3416   */\n      0x00\n        /* \"#utility.yul\":3438:3443   */\n      dup2\n        /* \"#utility.yul\":3427:3443   */\n      swap1\n      pop\n        /* \"#utility.yul\":3372:3449   */\n      swap2\n      swap1\n      pop\n      jump\t// out\n        /* \"#utility.yul\":3455:3577   */\n    tag_31:\n        /* \"#utility.yul\":3528:3552   */\n      tag_93\n        /* \"#utility.yul\":3546:3551   */\n      dup2\n        /* \"#utility.yul\":3528:3552   */\n      tag_30\n      jump\t// in\n    tag_93:\n        /* \"#utility.yul\":3521:3526   */\n      dup2\n        /* \"#utility.yul\":3518:3553   */\n      eq\n        /* \"#utility.yul\":3508:3571   */\n      tag_94\n      jumpi\n        /* \"#utility.yul\":3567:3568   */\n      0x00\n        /* \"#utility.yul\":3564:3565   */\n      dup1\n        /* \"#utility.yul\":3557:3569   */\n      revert\n        /* \"#utility.yul\":3508:3571   */\n    tag_94:\n        /* \"#utility.yul\":3455:3577   */\n      pop\n      jump\t// out\n        /* \"#utility.yul\":3583:3722   */\n    tag_32:\n        /* \"#utility.yul\":3629:3634   */\n      0x00\n        /* \"#utility.yul\":3667:3673   */\n      dup2\n        /* \"#utility.yul\":3654:3674   */\n      calldataload\n        /* \"#utility.yul\":3645:3674   */\n      swap1\n      pop\n        /* \"#utility.yul\":3683:3716   */\n      tag_96\n        /* \"#utility.yul\":3710:3715   */\n      dup2\n        /* \"#utility.yul\":3683:3716   */\n      tag_31\n      jump\t// in\n    tag_96:\n        /* \"#utility.yul\":3583:3722   */\n      swap3\n      swap2\n      pop\n      pop\n      jump\t// out\n        /* \"#utility.yul\":3728:5165   */\n    tag_6:\n        /* \"#utility.yul\":3854:3860   */\n      0x00\n        /* \"#utility.yul\":3862:3868   */\n      dup1\n        /* \"#utility.yul\":3870:3876   */\n      0x00\n        /* \"#utility.yul\":3878:3884   */\n      dup1\n        /* \"#utility.yul\":3886:3892   */\n      0x00\n        /* \"#utility.yul\":3894:3900   */\n      dup1\n        /* \"#utility.yul\":3902:3908   */\n      0x00\n        /* \"#utility.yul\":3951:3954   */\n      0xc0\n        /* \"#utility.yul\":3939:3948   */\n      dup9\n        /* \"#utility.yul\":3930:3937   */\n      dup11\n        /* \"#utility.yul\":3926:3949   */\n      sub\n        /* \"#utility.yul\":3922:3955   */\n      slt\n        /* \"#utility.yul\":3919:4039   */\n      iszero\n      tag_98\n      jumpi\n        /* \"#utility.yul\":3958:4037   */\n      tag_99\n      tag_15\n      jump\t// in\n    tag_99:\n        /* \"#utility.yul\":3919:4039   */\n    tag_98:\n        /* \"#utility.yul\":4106:4107   */\n      0x00\n        /* \"#utility.yul\":4095:4104   */\n      dup9\n        /* \"#utility.yul\":4091:4108   */\n      add\n        /* \"#utility.yul\":4078:4109   */\n      calldataload\n        /* \"#utility.yul\":4136:4154   */\n      0xffffffffffffffff\n        /* \"#utility.yul\":4128:4134   */\n      dup2\n        /* \"#utility.yul\":4125:4155   */\n      gt\n        /* \"#utility.yul\":4122:4239   */\n      iszero\n      tag_100\n      jumpi\n        /* \"#utility.yul\":4158:4237   */\n      tag_101\n      tag_16\n      jump\t// in\n    tag_101:\n        /* \"#utility.yul\":4122:4239   */\n    tag_100:\n        /* \"#utility.yul\":4263:4326   */\n      tag_102\n        /* \"#utility.yul\":4318:4325   */\n      dup11\n        /* \"#utility.yul\":4309:4315   */\n      dup3\n        /* \"#utility.yul\":4298:4307   */\n      dup12\n        /* \"#utility.yul\":4294:4316   */\n      add\n        /* \"#utility.yul\":4263:4326   */\n      tag_26\n      jump\t// in\n    tag_102:\n        /* \"#utility.yul\":4253:4326   */\n      swap8\n      pop\n        /* \"#utility.yul\":4049:4336   */\n      pop\n        /* \"#utility.yul\":4403:4405   */\n      0x20\n        /* \"#utility.yul\":4392:4401   */\n      dup9\n        /* \"#utility.yul\":4388:4406   */\n      add\n        /* \"#utility.yul\":4375:4407   */\n      calldataload\n        /* \"#utility.yul\":4434:4452   */\n      0xffffffffffffffff\n        /* \"#utility.yul\":4426:4432   */\n      dup2\n        /* \"#utility.yul\":4423:4453   */\n      gt\n        /* \"#utility.yul\":4420:4537   */\n      iszero\n      tag_103\n      jumpi\n        /* \"#utility.yul\":4456:4535   */\n      tag_104\n      tag_16\n      jump\t// in\n    tag_104:\n        /* \"#utility.yul\":4420:4537   */\n    tag_103:\n        /* \"#utility.yul\":4569:4634   */\n      tag_105\n        /* \"#utility.yul\":4626:4633   */\n      dup11\n        /* \"#utility.yul\":4617:4623   */\n      dup3\n        /* \"#utility.yul\":4606:4615   */\n      dup12\n        /* \"#utility.yul\":4602:4624   */\n      add\n        /* \"#utility.yul\":4569:4634   */\n      tag_29\n      jump\t// in\n    tag_105:\n        /* \"#utility.yul\":4551:4634   */\n      swap7\n      pop\n      swap7\n      pop\n        /* \"#utility.yul\":4346:4644   */\n      pop\n        /* \"#utility.yul\":4683:4685   */\n      0x40\n        /* \"#utility.yul\":4709:4762   */\n      tag_106\n        /* \"#utility.yul\":4754:4761   */\n      dup11\n        /* \"#utility.yul\":4745:4751   */\n      dup3\n        /* \"#utility.yul\":4734:4743   */\n      dup12\n        /* \"#utility.yul\":4730:4752   */\n      add\n        /* \"#utility.yul\":4709:4762   */\n      tag_32\n      jump\t// in\n    tag_106:\n        /* \"#utility.yul\":4699:4762   */\n      swap5\n      pop\n        /* \"#utility.yul\":4654:4772   */\n      pop\n        /* \"#utility.yul\":4811:4813   */\n      0x60\n        /* \"#utility.yul\":4837:4890   */\n      tag_107\n        /* \"#utility.yul\":4882:4889   */\n      dup11\n        /* \"#utility.yul\":4873:4879   */\n      dup3\n        /* \"#utility.yul\":4862:4871   */\n      dup12\n        /* \"#utility.yul\":4858:4880   */\n      add\n        /* \"#utility.yul\":4837:4890   */\n      tag_32\n      jump\t// in\n    tag_107:\n        /* \"#utility.yul\":4827:4890   */\n      swap4\n      pop\n        /* \"#utility.yul\":4782:4900   */\n      pop\n        /* \"#utility.yul\":4939:4942   */\n      0x80\n        /* \"#utility.yul\":4966:5019   */\n      tag_108\n        /* \"#utility.yul\":5011:5018   */\n      dup11\n        /* \"#utility.yul\":5002:5008   */\n      dup3\n        /* \"#utility.yul\":4991:5000   */\n      dup12\n        /* \"#utility.yul\":4987:5009   */\n      add\n        /* \"#utility.yul\":4966:5019   */\n      tag_32\n      jump\t// in\n    tag_108:\n        /* \"#utility.yul\":4956:5019   */\n      swap3\n      pop\n        /* \"#utility.yul\":4910:5029   */\n      pop\n        /* \"#utility.yul\":5068:5071   */\n      0xa0\n        /* \"#utility.yul\":5095:5148   */\n      tag_109\n        /* \"#utility.yul\":5140:5147   */\n      dup11\n        /* \"#utility.yul\":5131:5137   */\n      dup3\n        /* \"#utility.yul\":5120:5129   */\n      dup12\n        /* \"#utility.yul\":5116:5138   */\n      add\n        /* \"#utility.yul\":5095:5148   */\n      tag_32\n      jump\t// in\n    tag_109:\n        /* \"#utility.yul\":5085:5148   */\n      swap2\n      pop\n        /* \"#utility.yul\":5039:5158   */\n      pop\n        /* \"#utility.yul\":3728:5165   */\n      swap3\n      swap6\n      swap9\n      swap2\n      swap5\n      swap8\n      pop\n      swap3\n      swap6\n      pop\n      jump\t// out\n        /* \"#utility.yul\":5171:5351   */\n    tag_33:\n        /* \"#utility.yul\":5219:5296   */\n      0x4e487b7100000000000000000000000000000000000000000000000000000000\n        /* \"#utility.yul\":5216:5217   */\n      0x00\n        /* \"#utility.yul\":5209:5297   */\n      mstore\n        /* \"#utility.yul\":5316:5320   */\n      0x11\n        /* \"#utility.yul\":5313:5314   */\n      0x04\n        /* \"#utility.yul\":5306:5321   */\n      mstore\n        /* \"#utility.yul\":5340:5344   */\n      0x24\n        /* \"#utility.yul\":5337:5338   */\n      0x00\n        /* \"#utility.yul\":5330:5345   */\n      revert\n        /* \"#utility.yul\":5357:5548   */\n    tag_10:\n        /* \"#utility.yul\":5397:5400   */\n      0x00\n        /* \"#utility.yul\":5416:5436   */\n      tag_112\n        /* \"#utility.yul\":5434:5435   */\n      dup3\n        /* \"#utility.yul\":5416:5436   */\n      tag_30\n      jump\t// in\n    tag_112:\n        /* \"#utility.yul\":5411:5436   */\n      swap2\n      pop\n        /* \"#utility.yul\":5450:5470   */\n      tag_113\n        /* \"#utility.yul\":5468:5469   */\n      dup4\n        /* \"#utility.yul\":5450:5470   */\n      tag_30\n      jump\t// in\n    tag_113:\n        /* \"#utility.yul\":5445:5470   */\n      swap3\n      pop\n        /* \"#utility.yul\":5493:5494   */\n      dup3\n        /* \"#utility.yul\":5490:5491   */\n      dup3\n        /* \"#utility.yul\":5486:5495   */\n      add\n        /* \"#utility.yul\":5479:5495   */\n      swap1\n      pop\n        /* \"#utility.yul\":5514:5517   */\n      dup1\n        /* \"#utility.yul\":5511:5512   */\n      dup3\n        /* \"#utility.yul\":5508:5518   */\n      gt\n        /* \"#utility.yul\":5505:5541   */\n      iszero\n      tag_114\n      jumpi\n        /* \"#utility.yul\":5521:5539   */\n      tag_115\n      tag_33\n      jump\t// in\n    tag_115:\n        /* \"#utility.yul\":5505:5541   */\n    tag_114:\n        /* \"#utility.yul\":5357:5548   */\n      swap3\n      swap2\n      pop\n      pop\n      jump\t// out\n        /* \"#utility.yul\":5554:5653   */\n    tag_34:\n        /* \"#utility.yul\":5606:5612   */\n      0x00\n        /* \"#utility.yul\":5640:5645   */\n      dup2\n        /* \"#utility.yul\":5634:5646   */\n      mload\n        /* \"#utility.yul\":5624:5646   */\n      swap1\n      pop\n        /* \"#utility.yul\":5554:5653   */\n      swap2\n      swap1\n      pop\n      jump\t// out\n        /* \"#utility.yul\":5659:5839   */\n    tag_35:\n        /* \"#utility.yul\":5707:5784   */\n      0x4e487b7100000000000000000000000000000000000000000000000000000000\n        /* \"#utility.yul\":5704:5705   */\n      0x00\n        /* \"#utility.yul\":5697:5785   */\n      mstore\n        /* \"#utility.yul\":5804:5808   */\n      0x22\n        /* \"#utility.yul\":5801:5802   */\n      0x04\n        /* \"#utility.yul\":5794:5809   */\n      mstore\n        /* \"#utility.yul\":5828:5832   */\n      0x24\n        /* \"#utility.yul\":5825:5826   */\n      0x00\n        /* \"#utility.yul\":5818:5833   */\n      revert\n        /* \"#utility.yul\":5845:6165   */\n    tag_36:\n        /* \"#utility.yul\":5889:5895   */\n      0x00\n        /* \"#utility.yul\":5926:5927   */\n      0x02\n        /* \"#utility.yul\":5920:5924   */\n      dup3\n        /* \"#utility.yul\":5916:5928   */\n      div\n        /* \"#utility.yul\":5906:5928   */\n      swap1\n      pop\n        /* \"#utility.yul\":5973:5974   */\n      0x01\n        /* \"#utility.yul\":5967:5971   */\n      dup3\n        /* \"#utility.yul\":5963:5975   */\n      and\n        /* \"#utility.yul\":5994:6012   */\n      dup1\n        /* \"#utility.yul\":5984:6065   */\n      tag_119\n      jumpi\n        /* \"#utility.yul\":6050:6054   */\n      0x7f\n        /* \"#utility.yul\":6042:6048   */\n      dup3\n        /* \"#utility.yul\":6038:6055   */\n      and\n        /* \"#utility.yul\":6028:6055   */\n      swap2\n      pop\n        /* \"#utility.yul\":5984:6065   */\n    tag_119:\n        /* \"#utility.yul\":6112:6114   */\n      0x20\n        /* \"#utility.yul\":6104:6110   */\n      dup3\n        /* \"#utility.yul\":6101:6115   */\n      lt\n        /* \"#utility.yul\":6081:6099   */\n      dup2\n        /* \"#utility.yul\":6078:6116   */\n      sub\n        /* \"#utility.yul\":6075:6159   */\n      tag_120\n      jumpi\n        /* \"#utility.yul\":6131:6149   */\n      tag_121\n      tag_35\n      jump\t// in\n    tag_121:\n        /* \"#utility.yul\":6075:6159   */\n    tag_120:\n        /* \"#utility.yul\":5896:6165   */\n      pop\n        /* \"#utility.yul\":5845:6165   */\n      swap2\n      swap1\n      pop\n      jump\t// out\n        /* \"#utility.yul\":6171:6312   */\n    tag_37:\n        /* \"#utility.yul\":6220:6224   */\n      0x00\n        /* \"#utility.yul\":6243:6246   */\n      dup2\n        /* \"#utility.yul\":6235:6246   */\n      swap1\n      pop\n        /* \"#utility.yul\":6266:6269   */\n      dup2\n        /* \"#utility.yul\":6263:6264   */\n      0x00\n        /* \"#utility.yul\":6256:6270   */\n      mstore\n        /* \"#utility.yul\":6300:6304   */\n      0x20\n        /* \"#utility.yul\":6297:6298   */\n      0x00\n        /* \"#utility.yul\":6287:6305   */\n      keccak256\n        /* \"#utility.yul\":6279:6305   */\n      swap1\n      pop\n        /* \"#utility.yul\":6171:6312   */\n      swap2\n      swap1\n      pop\n      jump\t// out\n        /* \"#utility.yul\":6318:6411   */\n    tag_38:\n        /* \"#utility.yul\":6355:6361   */\n      0x00\n        /* \"#utility.yul\":6402:6404   */\n      0x20\n        /* \"#utility.yul\":6397:6399   */\n      0x1f\n        /* \"#utility.yul\":6390:6395   */\n      dup4\n        /* \"#utility.yul\":6386:6400   */\n      add\n        /* \"#utility.yul\":6382:6405   */\n      div\n        /* \"#utility.yul\":6372:6405   */\n      swap1\n      pop\n        /* \"#utility.yul\":6318:6411   */\n      swap2\n      swap1\n      pop\n      jump\t// out\n        /* \"#utility.yul\":6417:6524   */\n    tag_39:\n        /* \"#utility.yul\":6461:6469   */\n      0x00\n        /* \"#utility.yul\":6511:6516   */\n      dup3\n        /* \"#utility.yul\":6505:6509   */\n      dup3\n        /* \"#utility.yul\":6501:6517   */\n      shl\n        /* \"#utility.yul\":6480:6517   */\n      swap1\n      pop\n        /* \"#utility.yul\":6417:6524   */\n      swap3\n      swap2\n      pop\n      pop\n      jump\t// out\n        /* \"#utility.yul\":6530:6923   */\n    tag_40:\n        /* \"#utility.yul\":6599:6605   */\n      0x00\n        /* \"#utility.yul\":6649:6650   */\n      0x08\n        /* \"#utility.yul\":6637:6647   */\n      dup4\n        /* \"#utility.yul\":6633:6651   */\n      mul\n        /* \"#utility.yul\":6672:6769   */\n      tag_126\n        /* \"#utility.yul\":6702:6768   */\n      0xffffffffffffffffffffffffffffffffffffffffffffffffffffffffffffffff\n        /* \"#utility.yul\":6691:6700   */\n      dup3\n        /* \"#utility.yul\":6672:6769   */\n      tag_39\n      jump\t// in\n    tag_126:\n        /* \"#utility.yul\":6790:6829   */\n      tag_127\n        /* \"#utility.yul\":6820:6828   */\n      dup7\n        /* \"#utility.yul\":6809:6818   */\n      dup4\n        /* \"#utility.yul\":6790:6829   */\n      tag_39\n      jump\t// in\n    tag_127:\n        /* \"#utility.yul\":6778:6829   */\n      swap6\n      pop\n        /* \"#utility.yul\":6862:6866   */\n      dup1\n        /* \"#utility.yul\":6858:6867   */\n      not\n        /* \"#utility.yul\":6851:6856   */\n      dup5\n        /* \"#utility.yul\":6847:6868   */\n      and\n        /* \"#utility.yul\":6838:6868   */\n      swap4\n      pop\n        /* \"#utility.yul\":6911:6915   */\n      dup1\n        /* \"#utility.yul\":6901:6909   */\n      dup7\n        /* \"#utility.yul\":6897:6916   */\n      and\n        /* \"#utility.yul\":6890:6895   */\n      dup5\n        /* \"#utility.yul\":6887:6917   */\n      or\n        /* \"#utility.yul\":6877:6917   */\n      swap3\n      pop\n        /* \"#utility.yul\":6606:6923   */\n      pop\n      pop\n        /* \"#utility.yul\":6530:6923   */\n      swap4\n      swap3\n      pop\n      pop\n      pop\n      jump\t// out\n        /* \"#utility.yul\":6929:6989   */\n    tag_41:\n        /* \"#utility.yul\":6957:6960   */\n      0x00\n        /* \"#utility.yul\":6978:6983   */\n      dup2\n        /* \"#utility.yul\":6971:6983   */\n      swap1\n      pop\n        /* \"#utility.yul\":6929:6989   */\n      swap2\n      swap1\n      pop\n      jump\t// out\n        /* \"#utility.yul\":6995:7137   */\n    tag_42:\n        /* \"#utility.yul\":7045:7054   */\n      0x00\n        /* \"#utility.yul\":7078:7131   */\n      tag_130\n        /* \"#utility.yul\":7096:7130   */\n      tag_131\n        /* \"#utility.yul\":7105:7129   */\n      tag_132\n        /* \"#utility.yul\":7123:7128   */\n      dup5\n        /* \"#utility.yul\":7105:7129   */\n      tag_30\n      jump\t// in\n    tag_132:\n        /* \"#utility.yul\":7096:7130   */\n      tag_41\n      jump\t// in\n    tag_131:\n        /* \"#utility.yul\":7078:7131   */\n      tag_30\n      jump\t// in\n    tag_130:\n        /* \"#utility.yul\":7065:7131   */\n      swap1\n      pop\n        /* \"#utility.yul\":6995:7137   */\n      swap2\n      swap1\n      pop\n      jump\t// out\n        /* \"#utility.yul\":7143:7218   */\n    tag_43:\n        /* \"#utility.yul\":7186:7189   */\n      0x00\n        /* \"#utility.yul\":7207:7212   */\n      dup2\n        /* \"#utility.yul\":7200:7212   */\n      swap1\n      pop\n        /* \"#utility.yul\":7143:7218   */\n      swap2\n      swap1\n      pop\n      jump\t// out\n        /* \"#utility.yul\":7224:7493   */\n    tag_44:\n        /* \"#utility.yul\":7334:7373   */\n      tag_135\n        /* \"#utility.yul\":7365:7372   */\n      dup4\n        /* \"#utility.yul\":7334:7373   */\n      tag_42\n      jump\t// in\n    tag_135:\n        /* \"#utility.yul\":7395:7486   */\n      tag_136\n        /* \"#utility.yul\":7444:7485   */\n      tag_137\n        /* \"#utility.yul\":7468:7484   */\n      dup3\n        /* \"#utility.yul\":7444:7485   */\n      tag_43\n      jump\t// in\n    tag_137:\n        /* \"#utility.yul\":7436:7442   */\n      dup5\n        /* \"#utility.yul\":7429:7433   */\n      dup5\n        /* \"#utility.yul\":7423:7434   */\n      sload\n        /* \"#utility.yul\":7395:7486   */\n      tag_40\n      jump\t// in\n    tag_136:\n        /* \"#utility.yul\":7389:7393   */\n      dup3\n        /* \"#utility.yul\":7382:7487   */\n      sstore\n        /* \"#utility.yul\":7300:7493   */\n      pop\n        /* \"#utility.yul\":7224:7493   */\n      pop\n      pop\n      pop\n      jump\t// out\n        /* \"#utility.yul\":7499:7572   */\n    tag_45:\n        /* \"#utility.yul\":7544:7547   */\n      0x00\n        /* \"#utility.yul\":7499:7572   */\n      swap1\n      jump\t// out\n        /* \"#utility.yul\":7578:7767   */\n    tag_46:\n        /* \"#utility.yul\":7655:7687   */\n      tag_140\n      tag_45\n      jump\t// in\n    tag_140:\n        /* \"#utility.yul\":7696:7761   */\n      tag_141\n        /* \"#utility.yul\":7754:7760   */\n      dup2\n        /* \"#utility.yul\":7746:7752   */\n      dup5\n        /* \"#utility.yul\":7740:7744   */\n      dup5\n        /* \"#utility.yul\":7696:7761   */\n      tag_44\n      jump\t// in\n    tag_141:\n        /* \"#utility.yul\":7631:7767   */\n      pop\n        /* \"#utility.yul\":7578:7767   */\n      pop\n      pop\n      jump\t// out\n        /* \"#utility.yul\":7773:7959   */\n    tag_47:\n        /* \"#utility.yul\":7833:7953   */\n    tag_143:\n        /* \"#utility.yul\":7850:7853   */\n      dup2\n        /* \"#utility.yul\":7843:7848   */\n      dup2\n        /* \"#utility.yul\":7840:7854   */\n      lt\n        /* \"#utility.yul\":7833:7953   */\n      iszero\n      tag_145\n      jumpi\n        /* \"#utility.yul\":7904:7943   */\n      tag_146\n        /* \"#utility.yul\":7941:7942   */\n      0x00\n        /* \"#utility.yul\":7934:7939   */\n      dup3\n        /* \"#utility.yul\":7904:7943   */\n      tag_46\n      jump\t// in\n    tag_146:\n        /* \"#utility.yul\":7877:7878   */\n      0x01\n        /* \"#utility.yul\":7870:7875   */\n      dup2\n        /* \"#utility.yul\":7866:7879   */\n      add\n        /* \"#utility.yul\":7857:7879   */\n      swap1\n      pop\n        /* \"#utility.yul\":7833:7953   */\n      jump(tag_143)\n    tag_145:\n        /* \"#utility.yul\":7773:7959   */\n      pop\n      pop\n      jump\t// out\n        /* \"#utility.yul\":7965:8508   */\n    tag_48:\n        /* \"#utility.yul\":8066:8068   */\n      0x1f\n        /* \"#utility.yul\":8061:8064   */\n      dup3\n        /* \"#utility.yul\":8058:8069   */\n      gt\n        /* \"#utility.yul\":8055:8501   */\n      iszero\n      tag_148\n      jumpi\n        /* \"#utility.yul\":8100:8138   */\n      tag_149\n        /* \"#utility.yul\":8132:8137   */\n      dup2\n        /* \"#utility.yul\":8100:8138   */\n      tag_37\n      jump\t// in\n    tag_149:\n        /* \"#utility.yul\":8184:8213   */\n      tag_150\n        /* \"#utility.yul\":8202:8212   */\n      dup5\n        /* \"#utility.yul\":8184:8213   */\n      tag_38\n      jump\t// in\n    tag_150:\n        /* \"#utility.yul\":8174:8182   */\n      dup2\n        /* \"#utility.yul\":8170:8214   */\n      add\n        /* \"#utility.yul\":8367:8369   */\n      0x20\n        /* \"#utility.yul\":8355:8365   */\n      dup6\n        /* \"#utility.yul\":8352:8370   */\n      lt\n        /* \"#utility.yul\":8349:8398   */\n      iszero\n      tag_151\n      jumpi\n        /* \"#utility.yul\":8388:8396   */\n      dup2\n        /* \"#utility.yul\":8373:8396   */\n      swap1\n      pop\n        /* \"#utility.yul\":8349:8398   */\n    tag_151:\n        /* \"#utility.yul\":8411:8491   */\n      tag_152\n        /* \"#utility.yul\":8467:8489   */\n      tag_153\n        /* \"#utility.yul\":8485:8488   */\n      dup6\n        /* \"#utility.yul\":8467:8489   */\n      tag_38\n      jump\t// in\n    tag_153:\n        /* \"#utility.yul\":8457:8465   */\n      dup4\n        /* \"#utility.yul\":8453:8490   */\n      add\n        /* \"#utility.yul\":8440:8451   */\n      dup3\n        /* \"#utility.yul\":8411:8491   */\n      tag_47\n      jump\t// in\n    tag_152:\n        /* \"#utility.yul\":8070:8501   */\n      pop\n      pop\n        /* \"#utility.yul\":8055:8501   */\n    tag_148:\n        /* \"#utility.yul\":7965:8508   */\n      pop\n      pop\n      pop\n      jump\t// out\n        /* \"#utility.yul\":8514:8631   */\n    tag_49:\n        /* \"#utility.yul\":8568:8576   */\n      0x00\n        /* \"#utility.yul\":8618:8623   */\n      dup3\n        /* \"#utility.yul\":8612:8616   */\n      dup3\n        /* \"#utility.yul\":8608:8624   */\n      shr\n        /* \"#utility.yul\":8587:8624   */\n      swap1\n      pop\n        /* \"#utility.yul\":8514:8631   */\n      swap3\n      swap2\n      pop\n      pop\n      jump\t// out\n        /* \"#utility.yul\":8637:8806   */\n    tag_50:\n        /* \"#utility.yul\":8681:8687   */\n      0x00\n        /* \"#utility.yul\":8714:8765   */\n      tag_156\n        /* \"#utility.yul\":8762:8763   */\n      0x00\n        /* \"#utility.yul\":8758:8764   */\n      not\n        /* \"#utility.yul\":8750:8755   */\n      dup5\n        /* \"#utility.yul\":8747:8748   */\n      0x08\n        /* \"#utility.yul\":8743:8756   */\n      mul\n        /* \"#utility.yul\":8714:8765   */\n      tag_49\n      jump\t// in\n    tag_156:\n        /* \"#utility.yul\":8710:8766   */\n      not\n        /* \"#utility.yul\":8795:8799   */\n      dup1\n        /* \"#utility.yul\":8789:8793   */\n      dup4\n        /* \"#utility.yul\":8785:8800   */\n      and\n        /* \"#utility.yul\":8775:8800   */\n      swap2\n      pop\n        /* \"#utility.yul\":8688:8806   */\n      pop\n        /* \"#utility.yul\":8637:8806   */\n      swap3\n      swap2\n      pop\n      pop\n      jump\t// out\n        /* \"#utility.yul\":8811:9106   */\n    tag_51:\n        /* \"#utility.yul\":8887:8891   */\n      0x00\n        /* \"#utility.yul\":9033:9062   */\n      tag_158\n        /* \"#utility.yul\":9058:9061   */\n      dup4\n        /* \"#utility.yul\":9052:9056   */\n      dup4\n        /* \"#utility.yul\":9033:9062   */\n      tag_50\n      jump\t// in\n    tag_158:\n        /* \"#utility.yul\":9025:9062   */\n      swap2\n      pop\n        /* \"#utility.yul\":9095:9098   */\n      dup3\n        /* \"#utility.yul\":9092:9093   */\n      0x02\n        /* \"#utility.yul\":9088:9099   */\n      mul\n        /* \"#utility.yul\":9082:9086   */\n      dup3\n        /* \"#utility.yul\":9079:9100   */\n      or\n        /* \"#utility.yul\":9071:9100   */\n      swap1\n      pop\n        /* \"#utility.yul\":8811:9106   */\n      swap3\n      swap2\n      pop\n      pop\n      jump\t// out\n        /* \"#utility.yul\":9111:10506   */\n    tag_12:\n        /* \"#utility.yul\":9228:9265   */\n      tag_160\n        /* \"#utility.yul\":9261:9264   */\n      dup3\n        /* \"#utility.yul\":9228:9265   */\n      tag_34\n      jump\t// in\n    tag_160:\n        /* \"#utility.yul\":9330:9348   */\n      0xffffffffffffffff\n        /* \"#utility.yul\":9322:9328   */\n      dup2\n        /* \"#utility.yul\":9319:9349   */\n      gt\n        /* \"#utility.yul\":9316:9372   */\n      iszero\n      tag_161\n      jumpi\n        /* \"#utility.yul\":9352:9370   */\n      tag_162\n      tag_20\n      jump\t// in\n    tag_162:\n        /* \"#utility.yul\":9316:9372   */\n    tag_161:\n        /* \"#utility.yul\":9396:9434   */\n      tag_163\n        /* \"#utility.yul\":9428:9432   */\n      dup3\n        /* \"#utility.yul\":9422:9433   */\n      sload\n        /* \"#utility.yul\":9396:9434   */\n      tag_36\n      jump\t// in\n    tag_163:\n        /* \"#utility.yul\":9481:9548   */\n      tag_164\n        /* \"#utility.yul\":9541:9547   */\n      dup3\n        /* \"#utility.yul\":9533:9539   */\n      dup3\n        /* \"#utility.yul\":9527:9531   */\n      dup6\n        /* \"#utility.yul\":9481:9548   */\n      tag_48\n      jump\t// in\n    tag_164:\n        /* \"#utility.yul\":9575:9576   */\n      0x00\n        /* \"#utility.yul\":9599:9603   */\n      0x20\n        /* \"#utility.yul\":9586:9603   */\n      swap1\n      pop\n        /* \"#utility.yul\":9631:9633   */\n      0x1f\n        /* \"#utility.yul\":9623:9629   */\n      dup4\n        /* \"#utility.yul\":9620:9634   */\n      gt\n        /* \"#utility.yul\":9648:9649   */\n      0x01\n        /* \"#utility.yul\":9643:10261   */\n      dup2\n      eq\n      tag_166\n      jumpi\n        /* \"#utility.yul\":10305:10306   */\n      0x00\n        /* \"#utility.yul\":10322:10328   */\n      dup5\n        /* \"#utility.yul\":10319:10396   */\n      iszero\n      tag_167\n      jumpi\n        /* \"#utility.yul\":10371:10380   */\n      dup3\n        /* \"#utility.yul\":10366:10369   */\n      dup8\n        /* \"#utility.yul\":10362:10381   */\n      add\n        /* \"#utility.yul\":10356:10382   */\n      mload\n        /* \"#utility.yul\":10347:10382   */\n      swap1\n      pop\n        /* \"#utility.yul\":10319:10396   */\n    tag_167:\n        /* \"#utility.yul\":10422:10489   */\n      tag_168\n        /* \"#utility.yul\":10482:10488   */\n      dup6\n        /* \"#utility.yul\":10475:10480   */\n      dup3\n        /* \"#utility.yul\":10422:10489   */\n      tag_51\n      jump\t// in\n    tag_168:\n        /* \"#utility.yul\":10416:10420   */\n      dup7\n        /* \"#utility.yul\":10409:10490   */\n      sstore\n        /* \"#utility.yul\":10278:10500   */\n      pop\n        /* \"#utility.yul\":9613:10500   */\n      jump(tag_165)\n        /* \"#utility.yul\":9643:10261   */\n    tag_166:\n        /* \"#utility.yul\":9695:9699   */\n      0x1f\n        /* \"#utility.yul\":9691:9700   */\n      not\n        /* \"#utility.yul\":9683:9689   */\n      dup5\n        /* \"#utility.yul\":9679:9701   */\n      and\n        /* \"#utility.yul\":9729:9766   */\n      tag_169\n        /* \"#utility.yul\":9761:9765   */\n      dup7\n        /* \"#utility.yul\":9729:9766   */\n      tag_37\n      jump\t// in\n    tag_169:\n        /* \"#utility.yul\":9788:9789   */\n      0x00\n        /* \"#utility.yul\":9802:10010   */\n    tag_170:\n        /* \"#utility.yul\":9816:9823   */\n      dup3\n        /* \"#utility.yul\":9813:9814   */\n      dup2\n        /* \"#utility.yul\":9810:9824   */\n      lt\n        /* \"#utility.yul\":9802:10010   */\n      iszero\n      tag_172\n      jumpi\n        /* \"#utility.yul\":9895:9904   */\n      dup5\n        /* \"#utility.yul\":9890:9893   */\n      dup10\n        /* \"#utility.yul\":9886:9905   */\n      add\n        /* \"#utility.yul\":9880:9906   */\n      mload\n        /* \"#utility.yul\":9872:9878   */\n      dup3\n        /* \"#utility.yul\":9865:9907   */\n      sstore\n        /* \"#utility.yul\":9946:9947   */\n      0x01\n        /* \"#utility.yul\":9938:9944   */\n      dup3\n        /* \"#utility.yul\":9934:9948   */\n      add\n        /* \"#utility.yul\":9924:9948   */\n      swap2\n      pop\n        /* \"#utility.yul\":9993:9995   */\n      0x20\n        /* \"#utility.yul\":9982:9991   */\n      dup6\n        /* \"#utility.yul\":9978:9996   */\n      add\n        /* \"#utility.yul\":9965:9996   */\n      swap5\n      pop\n        /* \"#utility.yul\":9839:9843   */\n      0x20\n        /* \"#utility.yul\":9836:9837   */\n      dup2\n        /* \"#utility.yul\":9832:9844   */\n      add\n        /* \"#utility.yul\":9827:9844   */\n      swap1\n      pop\n        /* \"#utility.yul\":9802:10010   */\n      jump(tag_170)\n    tag_172:\n        /* \"#utility.yul\":10038:10044   */\n      dup7\n        /* \"#utility.yul\":10029:10036   */\n      dup4\n        /* \"#utility.yul\":10026:10045   */\n      lt\n        /* \"#utility.yul\":10023:10202   */\n      iszero\n      tag_173\n      jumpi\n        /* \"#utility.yul\":10096:10105   */\n      dup5\n        /* \"#utility.yul\":10091:10094   */\n      dup10\n        /* \"#utility.yul\":10087:10106   */\n      add\n        /* \"#utility.yul\":10081:10107   */\n      mload\n        /* \"#utility.yul\":10139:10187   */\n      tag_174\n        /* \"#utility.yul\":10181:10185   */\n      0x1f\n        /* \"#utility.yul\":10173:10179   */\n      dup10\n        /* \"#utility.yul\":10169:10186   */\n      and\n        /* \"#utility.yul\":10158:10167   */\n      dup3\n        /* \"#utility.yul\":10139:10187   */\n      tag_50\n      jump\t// in\n    tag_174:\n        /* \"#utility.yul\":10131:10137   */\n      dup4\n        /* \"#utility.yul\":10124:10188   */\n      sstore\n        /* \"#utility.yul\":10046:10202   */\n      pop\n        /* \"#utility.yul\":10023:10202   */\n    tag_173:\n        /* \"#utility.yul\":10248:10249   */\n      0x01\n        /* \"#utility.yul\":10244:10245   */\n      0x02\n        /* \"#utility.yul\":10236:10242   */\n      dup9\n        /* \"#utility.yul\":10232:10246   */\n      mul\n        /* \"#utility.yul\":10228:10250   */\n      add\n        /* \"#utility.yul\":10222:10226   */\n      dup9\n        /* \"#utility.yul\":10215:10251   */\n      sstore\n        /* \"#utility.yul\":9650:10261   */\n      pop\n      pop\n      pop\n        /* \"#utility.yul\":9613:10500   */\n    tag_165:\n      pop\n        /* \"#utility.yul\":9203:10506   */\n      pop\n      pop\n      pop\n        /* \"#utility.yul\":9111:10506   */\n      pop\n      pop\n      jump\t// out\n\n    auxdata: 0xa26469706673582212209d327058d7697ce1fbf98e66408b758652d95c589ac46af41faeba163b86cc1a64736f6c63430008160033\n}\n",
				"bytecode": {
					"linkReferences": {},
					"object": "608060405234801561000f575f80fd5b5061079e8061001d5f395ff3fe608060405234801561000f575f80fd5b5060043610610029575f3560e01c80639478f9e71461002d575b5f80fd5b6100476004803603810190610042919061036f565b610049565b005b60015f8082825461005a9190610462565b9250508190555060405180610100016040528088815260200187878080601f0160208091040260200160405190810160405280939291908181526020018383808284375f81840152601f19601f8201169050808301925050505050505081526020018581526020018481526020018381526020018281526020015f151581526020016001151581525060015f805481526020019081526020015f205f820151815f0190816101089190610699565b50602082015181600101908161011e9190610699565b5060408201518160020155606082015181600301556080820151816004015560a0820151816005015560c0820151816006015f6101000a81548160ff02191690831515021790555060e08201518160060160016101000a81548160ff02191690831515021790555090505050505050505050565b5f604051905090565b5f80fd5b5f80fd5b5f80fd5b5f80fd5b5f601f19601f8301169050919050565b7f4e487b71000000000000000000000000000000000000000000000000000000005f52604160045260245ffd5b6101f1826101ab565b810181811067ffffffffffffffff821117156102105761020f6101bb565b5b80604052505050565b5f610222610192565b905061022e82826101e8565b919050565b5f67ffffffffffffffff82111561024d5761024c6101bb565b5b610256826101ab565b9050602081019050919050565b828183375f83830152505050565b5f61028361027e84610233565b610219565b90508281526020810184848401111561029f5761029e6101a7565b5b6102aa848285610263565b509392505050565b5f82601f8301126102c6576102c56101a3565b5b81356102d6848260208601610271565b91505092915050565b5f80fd5b5f80fd5b5f8083601f8401126102fc576102fb6101a3565b5b8235905067ffffffffffffffff811115610319576103186102df565b5b602083019150836001820283011115610335576103346102e3565b5b9250929050565b5f819050919050565b61034e8161033c565b8114610358575f80fd5b50565b5f8135905061036981610345565b92915050565b5f805f805f805f60c0888a03121561038a5761038961019b565b5b5f88013567ffffffffffffffff8111156103a7576103a661019f565b5b6103b38a828b016102b2565b975050602088013567ffffffffffffffff8111156103d4576103d361019f565b5b6103e08a828b016102e7565b965096505060406103f38a828b0161035b565b94505060606104048a828b0161035b565b93505060806104158a828b0161035b565b92505060a06104268a828b0161035b565b91505092959891949750929550565b7f4e487b71000000000000000000000000000000000000000000000000000000005f52601160045260245ffd5b5f61046c8261033c565b91506104778361033c565b925082820190508082111561048f5761048e610435565b5b92915050565b5f81519050919050565b7f4e487b71000000000000000000000000000000000000000000000000000000005f52602260045260245ffd5b5f60028204905060018216806104e357607f821691505b6020821081036104f6576104f561049f565b5b50919050565b5f819050815f5260205f209050919050565b5f6020601f8301049050919050565b5f82821b905092915050565b5f600883026105587fffffffffffffffffffffffffffffffffffffffffffffffffffffffffffffffff8261051d565b610562868361051d565b95508019841693508086168417925050509392505050565b5f819050919050565b5f61059d6105986105938461033c565b61057a565b61033c565b9050919050565b5f819050919050565b6105b683610583565b6105ca6105c2826105a4565b848454610529565b825550505050565b5f90565b6105de6105d2565b6105e98184846105ad565b505050565b5b8181101561060c576106015f826105d6565b6001810190506105ef565b5050565b601f82111561065157610622816104fc565b61062b8461050e565b8101602085101561063a578190505b61064e6106468561050e565b8301826105ee565b50505b505050565b5f82821c905092915050565b5f6106715f1984600802610656565b1980831691505092915050565b5f6106898383610662565b9150826002028217905092915050565b6106a282610495565b67ffffffffffffffff8111156106bb576106ba6101bb565b5b6106c582546104cc565b6106d0828285610610565b5f60209050601f831160018114610701575f84156106ef578287015190505b6106f9858261067e565b865550610760565b601f19841661070f866104fc565b5f5b8281101561073657848901518255600182019150602085019450602081019050610711565b86831015610753578489015161074f601f891682610662565b8355505b6001600288020188555050505b50505050505056fea26469706673582212209d327058d7697ce1fbf98e66408b758652d95c589ac46af41faeba163b86cc1a64736f6c63430008160033",
					"opcodes": "PUSH1 0x80 PUSH1 0x40 MSTORE CALLVALUE DUP1 ISZERO PUSH2 0xF JUMPI PUSH0 DUP1 REVERT JUMPDEST POP PUSH2 0x79E DUP1 PUSH2 0x1D PUSH0 CODECOPY PUSH0 RETURN INVALID PUSH1 0x80 PUSH1 0x40 MSTORE CALLVALUE DUP1 ISZERO PUSH2 0xF JUMPI PUSH0 DUP1 REVERT JUMPDEST POP PUSH1 0x4 CALLDATASIZE LT PUSH2 0x29 JUMPI PUSH0 CALLDATALOAD PUSH1 0xE0 SHR DUP1 PUSH4 0x9478F9E7 EQ PUSH2 0x2D JUMPI JUMPDEST PUSH0 DUP1 REVERT JUMPDEST PUSH2 0x47 PUSH1 0x4 DUP1 CALLDATASIZE SUB DUP2 ADD SWAP1 PUSH2 0x42 SWAP2 SWAP1 PUSH2 0x36F JUMP JUMPDEST PUSH2 0x49 JUMP JUMPDEST STOP JUMPDEST PUSH1 0x1 PUSH0 DUP1 DUP3 DUP3 SLOAD PUSH2 0x5A SWAP2 SWAP1 PUSH2 0x462 JUMP JUMPDEST SWAP3 POP POP DUP2 SWAP1 SSTORE POP PUSH1 0x40 MLOAD DUP1 PUSH2 0x100 ADD PUSH1 0x40 MSTORE DUP1 DUP9 DUP2 MSTORE PUSH1 0x20 ADD DUP8 DUP8 DUP1 DUP1 PUSH1 0x1F ADD PUSH1 0x20 DUP1 SWAP2 DIV MUL PUSH1 0x20 ADD PUSH1 0x40 MLOAD SWAP1 DUP2 ADD PUSH1 0x40 MSTORE DUP1 SWAP4 SWAP3 SWAP2 SWAP1 DUP2 DUP2 MSTORE PUSH1 0x20 ADD DUP4 DUP4 DUP1 DUP3 DUP5 CALLDATACOPY PUSH0 DUP2 DUP5 ADD MSTORE PUSH1 0x1F NOT PUSH1 0x1F DUP3 ADD AND SWAP1 POP DUP1 DUP4 ADD SWAP3 POP POP POP POP POP POP POP DUP2 MSTORE PUSH1 0x20 ADD DUP6 DUP2 MSTORE PUSH1 0x20 ADD DUP5 DUP2 MSTORE PUSH1 0x20 ADD DUP4 DUP2 MSTORE PUSH1 0x20 ADD DUP3 DUP2 MSTORE PUSH1 0x20 ADD PUSH0 ISZERO ISZERO DUP2 MSTORE PUSH1 0x20 ADD PUSH1 0x1 ISZERO ISZERO DUP2 MSTORE POP PUSH1 0x1 PUSH0 DUP1 SLOAD DUP2 MSTORE PUSH1 0x20 ADD SWAP1 DUP2 MSTORE PUSH1 0x20 ADD PUSH0 KECCAK256 PUSH0 DUP3 ADD MLOAD DUP2 PUSH0 ADD SWAP1 DUP2 PUSH2 0x108 SWAP2 SWAP1 PUSH2 0x699 JUMP JUMPDEST POP PUSH1 0x20 DUP3 ADD MLOAD DUP2 PUSH1 0x1 ADD SWAP1 DUP2 PUSH2 0x11E SWAP2 SWAP1 PUSH2 0x699 JUMP JUMPDEST POP PUSH1 0x40 DUP3 ADD MLOAD DUP2 PUSH1 0x2 ADD SSTORE PUSH1 0x60 DUP3 ADD MLOAD DUP2 PUSH1 0x3 ADD SSTORE PUSH1 0x80 DUP3 ADD MLOAD DUP2 PUSH1 0x4 ADD SSTORE PUSH1 0xA0 DUP3 ADD MLOAD DUP2 PUSH1 0x5 ADD SSTORE PUSH1 0xC0 DUP3 ADD MLOAD DUP2 PUSH1 0x6 ADD PUSH0 PUSH2 0x100 EXP DUP2 SLOAD DUP2 PUSH1 0xFF MUL NOT AND SWAP1 DUP4 ISZERO ISZERO MUL OR SWAP1 SSTORE POP PUSH1 0xE0 DUP3 ADD MLOAD DUP2 PUSH1 0x6 ADD PUSH1 0x1 PUSH2 0x100 EXP DUP2 SLOAD DUP2 PUSH1 0xFF MUL NOT AND SWAP1 DUP4 ISZERO ISZERO MUL OR SWAP1 SSTORE POP SWAP1 POP POP POP POP POP POP POP POP POP JUMP JUMPDEST PUSH0 PUSH1 0x40 MLOAD SWAP1 POP SWAP1 JUMP JUMPDEST PUSH0 DUP1 REVERT JUMPDEST PUSH0 DUP1 REVERT JUMPDEST PUSH0 DUP1 REVERT JUMPDEST PUSH0 DUP1 REVERT JUMPDEST PUSH0 PUSH1 0x1F NOT PUSH1 0x1F DUP4 ADD AND SWAP1 POP SWAP2 SWAP1 POP JUMP JUMPDEST PUSH32 0x4E487B7100000000000000000000000000000000000000000000000000000000 PUSH0 MSTORE PUSH1 0x41 PUSH1 0x4 MSTORE PUSH1 0x24 PUSH0 REVERT JUMPDEST PUSH2 0x1F1 DUP3 PUSH2 0x1AB JUMP JUMPDEST DUP2 ADD DUP2 DUP2 LT PUSH8 0xFFFFFFFFFFFFFFFF DUP3 GT OR ISZERO PUSH2 0x210 JUMPI PUSH2 0x20F PUSH2 0x1BB JUMP JUMPDEST JUMPDEST DUP1 PUSH1 0x40 MSTORE POP POP POP JUMP JUMPDEST PUSH0 PUSH2 0x222 PUSH2 0x192 JUMP JUMPDEST SWAP1 POP PUSH2 0x22E DUP3 DUP3 PUSH2 0x1E8 JUMP JUMPDEST SWAP2 SWAP1 POP JUMP JUMPDEST PUSH0 PUSH8 0xFFFFFFFFFFFFFFFF DUP3 GT ISZERO PUSH2 0x24D JUMPI PUSH2 0x24C PUSH2 0x1BB JUMP JUMPDEST JUMPDEST PUSH2 0x256 DUP3 PUSH2 0x1AB JUMP JUMPDEST SWAP1 POP PUSH1 0x20 DUP2 ADD SWAP1 POP SWAP2 SWAP1 POP JUMP JUMPDEST DUP3 DUP2 DUP4 CALLDATACOPY PUSH0 DUP4 DUP4 ADD MSTORE POP POP POP JUMP JUMPDEST PUSH0 PUSH2 0x283 PUSH2 0x27E DUP5 PUSH2 0x233 JUMP JUMPDEST PUSH2 0x219 JUMP JUMPDEST SWAP1 POP DUP3 DUP2 MSTORE PUSH1 0x20 DUP2 ADD DUP5 DUP5 DUP5 ADD GT ISZERO PUSH2 0x29F JUMPI PUSH2 0x29E PUSH2 0x1A7 JUMP JUMPDEST JUMPDEST PUSH2 0x2AA DUP5 DUP3 DUP6 PUSH2 0x263 JUMP JUMPDEST POP SWAP4 SWAP3 POP POP POP JUMP JUMPDEST PUSH0 DUP3 PUSH1 0x1F DUP4 ADD SLT PUSH2 0x2C6 JUMPI PUSH2 0x2C5 PUSH2 0x1A3 JUMP JUMPDEST JUMPDEST DUP2 CALLDATALOAD PUSH2 0x2D6 DUP5 DUP3 PUSH1 0x20 DUP7 ADD PUSH2 0x271 JUMP JUMPDEST SWAP2 POP POP SWAP3 SWAP2 POP POP JUMP JUMPDEST PUSH0 DUP1 REVERT JUMPDEST PUSH0 DUP1 REVERT JUMPDEST PUSH0 DUP1 DUP4 PUSH1 0x1F DUP5 ADD SLT PUSH2 0x2FC JUMPI PUSH2 0x2FB PUSH2 0x1A3 JUMP JUMPDEST JUMPDEST DUP3 CALLDATALOAD SWAP1 POP PUSH8 0xFFFFFFFFFFFFFFFF DUP2 GT ISZERO PUSH2 0x319 JUMPI PUSH2 0x318 PUSH2 0x2DF JUMP JUMPDEST JUMPDEST PUSH1 0x20 DUP4 ADD SWAP2 POP DUP4 PUSH1 0x1 DUP3 MUL DUP4 ADD GT ISZERO PUSH2 0x335 JUMPI PUSH2 0x334 PUSH2 0x2E3 JUMP JUMPDEST JUMPDEST SWAP3 POP SWAP3 SWAP1 POP JUMP JUMPDEST PUSH0 DUP2 SWAP1 POP SWAP2 SWAP1 POP JUMP JUMPDEST PUSH2 0x34E DUP2 PUSH2 0x33C JUMP JUMPDEST DUP2 EQ PUSH2 0x358 JUMPI PUSH0 DUP1 REVERT JUMPDEST POP JUMP JUMPDEST PUSH0 DUP2 CALLDATALOAD SWAP1 POP PUSH2 0x369 DUP2 PUSH2 0x345 JUMP JUMPDEST SWAP3 SWAP2 POP POP JUMP JUMPDEST PUSH0 DUP1 PUSH0 DUP1 PUSH0 DUP1 PUSH0 PUSH1 0xC0 DUP9 DUP11 SUB SLT ISZERO PUSH2 0x38A JUMPI PUSH2 0x389 PUSH2 0x19B JUMP JUMPDEST JUMPDEST PUSH0 DUP9 ADD CALLDATALOAD PUSH8 0xFFFFFFFFFFFFFFFF DUP2 GT ISZERO PUSH2 0x3A7 JUMPI PUSH2 0x3A6 PUSH2 0x19F JUMP JUMPDEST JUMPDEST PUSH2 0x3B3 DUP11 DUP3 DUP12 ADD PUSH2 0x2B2 JUMP JUMPDEST SWAP8 POP POP PUSH1 0x20 DUP9 ADD CALLDATALOAD PUSH8 0xFFFFFFFFFFFFFFFF DUP2 GT ISZERO PUSH2 0x3D4 JUMPI PUSH2 0x3D3 PUSH2 0x19F JUMP JUMPDEST JUMPDEST PUSH2 0x3E0 DUP11 DUP3 DUP12 ADD PUSH2 0x2E7 JUMP JUMPDEST SWAP7 POP SWAP7 POP POP PUSH1 0x40 PUSH2 0x3F3 DUP11 DUP3 DUP12 ADD PUSH2 0x35B JUMP JUMPDEST SWAP5 POP POP PUSH1 0x60 PUSH2 0x404 DUP11 DUP3 DUP12 ADD PUSH2 0x35B JUMP JUMPDEST SWAP4 POP POP PUSH1 0x80 PUSH2 0x415 DUP11 DUP3 DUP12 ADD PUSH2 0x35B JUMP JUMPDEST SWAP3 POP POP PUSH1 0xA0 PUSH2 0x426 DUP11 DUP3 DUP12 ADD PUSH2 0x35B JUMP JUMPDEST SWAP2 POP POP SWAP3 SWAP6 SWAP9 SWAP2 SWAP5 SWAP8 POP SWAP3 SWAP6 POP JUMP JUMPDEST PUSH32 0x4E487B7100000000000000000000000000000000000000000000000000000000 PUSH0 MSTORE PUSH1 0x11 PUSH1 0x4 MSTORE PUSH1 0x24 PUSH0 REVERT JUMPDEST PUSH0 PUSH2 0x46C DUP3 PUSH2 0x33C JUMP JUMPDEST SWAP2 POP PUSH2 0x477 DUP4 PUSH2 0x33C JUMP JUMPDEST SWAP3 POP DUP3 DUP3 ADD SWAP1 POP DUP1 DUP3 GT ISZERO PUSH2 0x48F JUMPI PUSH2 0x48E PUSH2 0x435 JUMP JUMPDEST JUMPDEST SWAP3 SWAP2 POP POP JUMP JUMPDEST PUSH0 DUP2 MLOAD SWAP1 POP SWAP2 SWAP1 POP JUMP JUMPDEST PUSH32 0x4E487B7100000000000000000000000000000000000000000000000000000000 PUSH0 MSTORE PUSH1 0x22 PUSH1 0x4 MSTORE PUSH1 0x24 PUSH0 REVERT JUMPDEST PUSH0 PUSH1 0x2 DUP3 DIV SWAP1 POP PUSH1 0x1 DUP3 AND DUP1 PUSH2 0x4E3 JUMPI PUSH1 0x7F DUP3 AND SWAP2 POP JUMPDEST PUSH1 0x20 DUP3 LT DUP2 SUB PUSH2 0x4F6 JUMPI PUSH2 0x4F5 PUSH2 0x49F JUMP JUMPDEST JUMPDEST POP SWAP2 SWAP1 POP JUMP JUMPDEST PUSH0 DUP2 SWAP1 POP DUP2 PUSH0 MSTORE PUSH1 0x20 PUSH0 KECCAK256 SWAP1 POP SWAP2 SWAP1 POP JUMP JUMPDEST PUSH0 PUSH1 0x20 PUSH1 0x1F DUP4 ADD DIV SWAP1 POP SWAP2 SWAP1 POP JUMP JUMPDEST PUSH0 DUP3 DUP3 SHL SWAP1 POP SWAP3 SWAP2 POP POP JUMP JUMPDEST PUSH0 PUSH1 0x8 DUP4 MUL PUSH2 0x558 PUSH32 0xFFFFFFFFFFFFFFFFFFFFFFFFFFFFFFFFFFFFFFFFFFFFFFFFFFFFFFFFFFFFFFFF DUP3 PUSH2 0x51D JUMP JUMPDEST PUSH2 0x562 DUP7 DUP4 PUSH2 0x51D JUMP JUMPDEST SWAP6 POP DUP1 NOT DUP5 AND SWAP4 POP DUP1 DUP7 AND DUP5 OR SWAP3 POP POP POP SWAP4 SWAP3 POP POP POP JUMP JUMPDEST PUSH0 DUP2 SWAP1 POP SWAP2 SWAP1 POP JUMP JUMPDEST PUSH0 PUSH2 0x59D PUSH2 0x598 PUSH2 0x593 DUP5 PUSH2 0x33C JUMP JUMPDEST PUSH2 0x57A JUMP JUMPDEST PUSH2 0x33C JUMP JUMPDEST SWAP1 POP SWAP2 SWAP1 POP JUMP JUMPDEST PUSH0 DUP2 SWAP1 POP SWAP2 SWAP1 POP JUMP JUMPDEST PUSH2 0x5B6 DUP4 PUSH2 0x583 JUMP JUMPDEST PUSH2 0x5CA PUSH2 0x5C2 DUP3 PUSH2 0x5A4 JUMP JUMPDEST DUP5 DUP5 SLOAD PUSH2 0x529 JUMP JUMPDEST DUP3 SSTORE POP POP POP POP JUMP JUMPDEST PUSH0 SWAP1 JUMP JUMPDEST PUSH2 0x5DE PUSH2 0x5D2 JUMP JUMPDEST PUSH2 0x5E9 DUP2 DUP5 DUP5 PUSH2 0x5AD JUMP JUMPDEST POP POP POP JUMP JUMPDEST JUMPDEST DUP2 DUP2 LT ISZERO PUSH2 0x60C JUMPI PUSH2 0x601 PUSH0 DUP3 PUSH2 0x5D6 JUMP JUMPDEST PUSH1 0x1 DUP2 ADD SWAP1 POP PUSH2 0x5EF JUMP JUMPDEST POP POP JUMP JUMPDEST PUSH1 0x1F DUP3 GT ISZERO PUSH2 0x651 JUMPI PUSH2 0x622 DUP2 PUSH2 0x4FC JUMP JUMPDEST PUSH2 0x62B DUP5 PUSH2 0x50E JUMP JUMPDEST DUP2 ADD PUSH1 0x20 DUP6 LT ISZERO PUSH2 0x63A JUMPI DUP2 SWAP1 POP JUMPDEST PUSH2 0x64E PUSH2 0x646 DUP6 PUSH2 0x50E JUMP JUMPDEST DUP4 ADD DUP3 PUSH2 0x5EE JUMP JUMPDEST POP POP JUMPDEST POP POP POP JUMP JUMPDEST PUSH0 DUP3 DUP3 SHR SWAP1 POP SWAP3 SWAP2 POP POP JUMP JUMPDEST PUSH0 PUSH2 0x671 PUSH0 NOT DUP5 PUSH1 0x8 MUL PUSH2 0x656 JUMP JUMPDEST NOT DUP1 DUP4 AND SWAP2 POP POP SWAP3 SWAP2 POP POP JUMP JUMPDEST PUSH0 PUSH2 0x689 DUP4 DUP4 PUSH2 0x662 JUMP JUMPDEST SWAP2 POP DUP3 PUSH1 0x2 MUL DUP3 OR SWAP1 POP SWAP3 SWAP2 POP POP JUMP JUMPDEST PUSH2 0x6A2 DUP3 PUSH2 0x495 JUMP JUMPDEST PUSH8 0xFFFFFFFFFFFFFFFF DUP2 GT ISZERO PUSH2 0x6BB JUMPI PUSH2 0x6BA PUSH2 0x1BB JUMP JUMPDEST JUMPDEST PUSH2 0x6C5 DUP3 SLOAD PUSH2 0x4CC JUMP JUMPDEST PUSH2 0x6D0 DUP3 DUP3 DUP6 PUSH2 0x610 JUMP JUMPDEST PUSH0 PUSH1 0x20 SWAP1 POP PUSH1 0x1F DUP4 GT PUSH1 0x1 DUP2 EQ PUSH2 0x701 JUMPI PUSH0 DUP5 ISZERO PUSH2 0x6EF JUMPI DUP3 DUP8 ADD MLOAD SWAP1 POP JUMPDEST PUSH2 0x6F9 DUP6 DUP3 PUSH2 0x67E JUMP JUMPDEST DUP7 SSTORE POP PUSH2 0x760 JUMP JUMPDEST PUSH1 0x1F NOT DUP5 AND PUSH2 0x70F DUP7 PUSH2 0x4FC JUMP JUMPDEST PUSH0 JUMPDEST DUP3 DUP2 LT ISZERO PUSH2 0x736 JUMPI DUP5 DUP10 ADD MLOAD DUP3 SSTORE PUSH1 0x1 DUP3 ADD SWAP2 POP PUSH1 0x20 DUP6 ADD SWAP5 POP PUSH1 0x20 DUP2 ADD SWAP1 POP PUSH2 0x711 JUMP JUMPDEST DUP7 DUP4 LT ISZERO PUSH2 0x753 JUMPI DUP5 DUP10 ADD MLOAD PUSH2 0x74F PUSH1 0x1F DUP10 AND DUP3 PUSH2 0x662 JUMP JUMPDEST DUP4 SSTORE POP JUMPDEST PUSH1 0x1 PUSH1 0x2 DUP9 MUL ADD DUP9 SSTORE POP POP POP JUMPDEST POP POP POP POP POP POP JUMP INVALID LOG2 PUSH5 0x6970667358 0x22 SLT KECCAK256 SWAP14 ORIGIN PUSH17 0x58D7697CE1FBF98E66408B758652D95C58 SWAP11 0xC4 PUSH11 0xF41FAEBA163B86CC1A6473 PUSH16 0x6C634300081600330000000000000000 "
				},
				"gasEstimates": {
					"creation": {
						"codeDepositCost": "390000",
						"executionCost": "422",
						"totalCost": "390422"
					},
					"external": {
						"create(string,string,uint256,uint256,uint256,uint256)": "infinite"
					}
				},
				"methodIdentifiers": {
					"create(string,string,uint256,uint256,uint256,uint256)": "9478f9e7"
				}
			},
			"storageLayout": {
				"storage": [
					{
						"astId": 3,
						"contract": "contracts/Third_Homework.sol:Third_Homework",
						"label": "counter",
						"offset": 0,
						"slot": "0",
						"type": "t_uint256"
					},
					{
						"astId": 25,
						"contract": "contracts/Third_Homework.sol:Third_Homework",
						"label": "proposal_history",
						"offset": 0,
						"slot": "1",
						"type": "t_mapping(t_uint256,t_struct(Proposal)20_storage)"
					}
				],
				"types": {
					"t_bool": {
						"encoding": "inplace",
						"label": "bool",
						"numberOfBytes": "1"
					},
					"t_mapping(t_uint256,t_struct(Proposal)20_storage)": {
						"encoding": "mapping",
						"key": "t_uint256",
						"label": "mapping(uint256 => struct Third_Homework.Proposal)",
						"numberOfBytes": "32",
						"value": "t_struct(Proposal)20_storage"
					},
					"t_string_storage": {
						"encoding": "bytes",
						"label": "string",
						"numberOfBytes": "32"
					},
					"t_struct(Proposal)20_storage": {
						"encoding": "inplace",
						"label": "struct Third_Homework.Proposal",
						"members": [
							{
								"astId": 5,
								"contract": "contracts/Third_Homework.sol:Third_Homework",
								"label": "title",
								"offset": 0,
								"slot": "0",
								"type": "t_string_storage"
							},
							{
								"astId": 7,
								"contract": "contracts/Third_Homework.sol:Third_Homework",
								"label": "description",
								"offset": 0,
								"slot": "1",
								"type": "t_string_storage"
							},
							{
								"astId": 9,
								"contract": "contracts/Third_Homework.sol:Third_Homework",
								"label": "approve",
								"offset": 0,
								"slot": "2",
								"type": "t_uint256"
							},
							{
								"astId": 11,
								"contract": "contracts/Third_Homework.sol:Third_Homework",
								"label": "reject",
								"offset": 0,
								"slot": "3",
								"type": "t_uint256"
							},
							{
								"astId": 13,
								"contract": "contracts/Third_Homework.sol:Third_Homework",
								"label": "pass",
								"offset": 0,
								"slot": "4",
								"type": "t_uint256"
							},
							{
								"astId": 15,
								"contract": "contracts/Third_Homework.sol:Third_Homework",
								"label": "total_vote_to_end",
								"offset": 0,
								"slot": "5",
								"type": "t_uint256"
							},
							{
								"astId": 17,
								"contract": "contracts/Third_Homework.sol:Third_Homework",
								"label": "current_state",
								"offset": 0,
								"slot": "6",
								"type": "t_bool"
							},
							{
								"astId": 19,
								"contract": "contracts/Third_Homework.sol:Third_Homework",
								"label": "is_active",
								"offset": 1,
								"slot": "6",
								"type": "t_bool"
							}
						],
						"numberOfBytes": "224"
					},
					"t_uint256": {
						"encoding": "inplace",
						"label": "uint256",
						"numberOfBytes": "32"
					}
				}
			},
			"userdoc": {
				"kind": "user",
				"methods": {},
				"version": 1
			}
		}
	}
}