{
	"contracts/Final_Version.sol": {
		"ProposalContract": {
			"abi": [
				{
					"inputs": [],
					"stateMutability": "nonpayable",
					"type": "constructor"
				},
				{
					"inputs": [
						{
							"internalType": "string",
							"name": "_description",
							"type": "string"
						},
						{
							"internalType": "uint256",
							"name": "_total_vote_to_end",
							"type": "uint256"
						}
					],
					"name": "create",
					"outputs": [],
					"stateMutability": "nonpayable",
					"type": "function"
				},
				{
					"inputs": [],
					"name": "getCurrentProposal",
					"outputs": [
						{
							"components": [
								{
									"internalType": "string",
									"name": "description",
									"type": "string"
								},
								{
									"internalType": "uint256",
									"name": "approve",
									"type": "uint256"
								},
								{
									"internalType": "uint256",
									"name": "reject",
									"type": "uint256"
								},
								{
									"internalType": "uint256",
									"name": "pass",
									"type": "uint256"
								},
								{
									"internalType": "uint256",
									"name": "total_vote_to_end",
									"type": "uint256"
								},
								{
									"internalType": "bool",
									"name": "current_state",
									"type": "bool"
								},
								{
									"internalType": "bool",
									"name": "is_active",
									"type": "bool"
								}
							],
							"internalType": "struct ProposalContract.Proposal",
							"name": "",
							"type": "tuple"
						}
					],
					"stateMutability": "view",
					"type": "function"
				},
				{
					"inputs": [
						{
							"internalType": "uint256",
							"name": "number",
							"type": "uint256"
						}
					],
					"name": "getProposal",
					"outputs": [
						{
							"components": [
								{
									"internalType": "string",
									"name": "description",
									"type": "string"
								},
								{
									"internalType": "uint256",
									"name": "approve",
									"type": "uint256"
								},
								{
									"internalType": "uint256",
									"name": "reject",
									"type": "uint256"
								},
								{
									"internalType": "uint256",
									"name": "pass",
									"type": "uint256"
								},
								{
									"internalType": "uint256",
									"name": "total_vote_to_end",
									"type": "uint256"
								},
								{
									"internalType": "bool",
									"name": "current_state",
									"type": "bool"
								},
								{
									"internalType": "bool",
									"name": "is_active",
									"type": "bool"
								}
							],
							"internalType": "struct ProposalContract.Proposal",
							"name": "",
							"type": "tuple"
						}
					],
					"stateMutability": "view",
					"type": "function"
				},
				{
					"inputs": [
						{
							"internalType": "address",
							"name": "_address",
							"type": "address"
						}
					],
					"name": "isVoted",
					"outputs": [
						{
							"internalType": "bool",
							"name": "",
							"type": "bool"
						}
					],
					"stateMutability": "view",
					"type": "function"
				},
				{
					"inputs": [
						{
							"internalType": "address",
							"name": "new_owner",
							"type": "address"
						}
					],
					"name": "setOwner",
					"outputs": [],
					"stateMutability": "nonpayable",
					"type": "function"
				},
				{
					"inputs": [],
					"name": "terminateProposal",
					"outputs": [],
					"stateMutability": "nonpayable",
					"type": "function"
				},
				{
					"inputs": [
						{
							"internalType": "uint8",
							"name": "choice",
							"type": "uint8"
						}
					],
					"name": "vote",
					"outputs": [],
					"stateMutability": "nonpayable",
					"type": "function"
				}
			],
			"devdoc": {
				"kind": "dev",
				"methods": {},
				"version": 1
			},
			"evm": {
				"assembly": "    /* \"contracts/Final_Version.sol\":63:3924  contract ProposalContract {... */\n  mstore(0x40, 0x80)\n    /* \"contracts/Final_Version.sol\":925:1019  constructor() {... */\n  callvalue\n  dup1\n  iszero\n  tag_1\n  jumpi\n  0x00\n  dup1\n  revert\ntag_1:\n  pop\n    /* \"contracts/Final_Version.sol\":958:968  msg.sender */\n  caller\n    /* \"contracts/Final_Version.sol\":950:955  owner */\n  0x00\n  dup1\n    /* \"contracts/Final_Version.sol\":950:968  owner = msg.sender */\n  0x0100\n  exp\n  dup2\n  sload\n  dup2\n  0xffffffffffffffffffffffffffffffffffffffff\n  mul\n  not\n  and\n  swap1\n  dup4\n  0xffffffffffffffffffffffffffffffffffffffff\n  and\n  mul\n  or\n  swap1\n  sstore\n  pop\n    /* \"contracts/Final_Version.sol\":979:994  voted_addresses */\n  0x03\n    /* \"contracts/Final_Version.sol\":1000:1010  msg.sender */\n  caller\n    /* \"contracts/Final_Version.sol\":979:1011  voted_addresses.push(msg.sender) */\n  swap1\n  dup1\n  0x01\n  dup2\n  sload\n  add\n  dup1\n  dup3\n  sstore\n  dup1\n  swap2\n  pop\n  pop\n  0x01\n  swap1\n  sub\n  swap1\n  0x00\n  mstore\n  keccak256(0x00, 0x20)\n  add\n  0x00\n  swap1\n  swap2\n  swap1\n  swap2\n  swap1\n  swap2\n  0x0100\n  exp\n  dup2\n  sload\n  dup2\n  0xffffffffffffffffffffffffffffffffffffffff\n  mul\n  not\n  and\n  swap1\n  dup4\n  0xffffffffffffffffffffffffffffffffffffffff\n  and\n  mul\n  or\n  swap1\n  sstore\n  pop\n    /* \"contracts/Final_Version.sol\":63:3924  contract ProposalContract {... */\n  dataSize(sub_0)\n  dup1\n  dataOffset(sub_0)\n  0x00\n  codecopy\n  0x00\n  return\nstop\n\nsub_0: assembly {\n        /* \"contracts/Final_Version.sol\":63:3924  contract ProposalContract {... */\n      mstore(0x40, 0x80)\n      callvalue\n      dup1\n      iszero\n      tag_1\n      jumpi\n      0x00\n      dup1\n      revert\n    tag_1:\n      pop\n      jumpi(tag_2, lt(calldatasize, 0x04))\n      shr(0xe0, calldataload(0x00))\n      dup1\n      0xb3f98adc\n      gt\n      tag_10\n      jumpi\n      dup1\n      0xb3f98adc\n      eq\n      tag_6\n      jumpi\n      dup1\n      0xc7f758a8\n      eq\n      tag_7\n      jumpi\n      dup1\n      0xcbff75cb\n      eq\n      tag_8\n      jumpi\n      dup1\n      0xdbddc7aa\n      eq\n      tag_9\n      jumpi\n      jump(tag_2)\n    tag_10:\n      dup1\n      0x13af4035\n      eq\n      tag_3\n      jumpi\n      dup1\n      0x41ec6870\n      eq\n      tag_4\n      jumpi\n      dup1\n      0x46f81a87\n      eq\n      tag_5\n      jumpi\n    tag_2:\n      0x00\n      dup1\n      revert\n        /* \"contracts/Final_Version.sol\":1440:1532  function setOwner(address new_owner) external onlyOwner {... */\n    tag_3:\n      tag_11\n      0x04\n      dup1\n      calldatasize\n      sub\n      dup2\n      add\n      swap1\n      tag_12\n      swap2\n      swap1\n      tag_13\n      jump\t// in\n    tag_12:\n      tag_14\n      jump\t// in\n    tag_11:\n      stop\n        /* \"contracts/Final_Version.sol\":3665:3785  function getCurrentProposal() external view returns(Proposal memory) {... */\n    tag_4:\n      tag_15\n      tag_16\n      jump\t// in\n    tag_15:\n      mload(0x40)\n      tag_17\n      swap2\n      swap1\n      tag_18\n      jump\t// in\n    tag_17:\n      mload(0x40)\n      dup1\n      swap2\n      sub\n      swap1\n      return\n        /* \"contracts/Final_Version.sol\":1542:1769  function create(string calldata _description, uint256 _total_vote_to_end) external onlyOwner {... */\n    tag_5:\n      tag_19\n      0x04\n      dup1\n      calldatasize\n      sub\n      dup2\n      add\n      swap1\n      tag_20\n      swap2\n      swap1\n      tag_21\n      jump\t// in\n    tag_20:\n      tag_22\n      jump\t// in\n    tag_19:\n      stop\n        /* \"contracts/Final_Version.sol\":1785:2662  function vote(uint8 choice) external active newVoter(msg.sender){... */\n    tag_6:\n      tag_23\n      0x04\n      dup1\n      calldatasize\n      sub\n      dup2\n      add\n      swap1\n      tag_24\n      swap2\n      swap1\n      tag_25\n      jump\t// in\n    tag_24:\n      tag_26\n      jump\t// in\n    tag_23:\n      stop\n        /* \"contracts/Final_Version.sol\":3795:3921  function getProposal(uint256 number) external view returns(Proposal memory) {... */\n    tag_7:\n      tag_27\n      0x04\n      dup1\n      calldatasize\n      sub\n      dup2\n      add\n      swap1\n      tag_28\n      swap2\n      swap1\n      tag_29\n      jump\t// in\n    tag_28:\n      tag_30\n      jump\t// in\n    tag_27:\n      mload(0x40)\n      tag_31\n      swap2\n      swap1\n      tag_18\n      jump\t// in\n    tag_31:\n      mload(0x40)\n      dup1\n      swap2\n      sub\n      swap1\n      return\n        /* \"contracts/Final_Version.sol\":3390:3651  function isVoted(address _address) public view returns (bool) {... */\n    tag_8:\n      tag_32\n      0x04\n      dup1\n      calldatasize\n      sub\n      dup2\n      add\n      swap1\n      tag_33\n      swap2\n      swap1\n      tag_13\n      jump\t// in\n    tag_33:\n      tag_34\n      jump\t// in\n    tag_32:\n      mload(0x40)\n      tag_35\n      swap2\n      swap1\n      tag_36\n      jump\t// in\n    tag_35:\n      mload(0x40)\n      dup1\n      swap2\n      sub\n      swap1\n      return\n        /* \"contracts/Final_Version.sol\":2672:2789  function terminateProposal() external onlyOwner active {... */\n    tag_9:\n      tag_37\n      tag_38\n      jump\t// in\n    tag_37:\n      stop\n        /* \"contracts/Final_Version.sol\":1440:1532  function setOwner(address new_owner) external onlyOwner {... */\n    tag_14:\n        /* \"contracts/Final_Version.sol\":1083:1088  owner */\n      0x00\n      dup1\n      sload\n      swap1\n      0x0100\n      exp\n      swap1\n      div\n      0xffffffffffffffffffffffffffffffffffffffff\n      and\n        /* \"contracts/Final_Version.sol\":1069:1088  msg.sender == owner */\n      0xffffffffffffffffffffffffffffffffffffffff\n      and\n        /* \"contracts/Final_Version.sol\":1069:1079  msg.sender */\n      caller\n        /* \"contracts/Final_Version.sol\":1069:1088  msg.sender == owner */\n      0xffffffffffffffffffffffffffffffffffffffff\n      and\n      eq\n        /* \"contracts/Final_Version.sol\":1061:1089  require(msg.sender == owner) */\n      tag_40\n      jumpi\n      0x00\n      dup1\n      revert\n    tag_40:\n        /* \"contracts/Final_Version.sol\":1515:1524  new_owner */\n      dup1\n        /* \"contracts/Final_Version.sol\":1507:1512  owner */\n      0x00\n      dup1\n        /* \"contracts/Final_Version.sol\":1507:1524  owner = new_owner */\n      0x0100\n      exp\n      dup2\n      sload\n      dup2\n      0xffffffffffffffffffffffffffffffffffffffff\n      mul\n      not\n      and\n      swap1\n      dup4\n      0xffffffffffffffffffffffffffffffffffffffff\n      and\n      mul\n      or\n      swap1\n      sstore\n      pop\n        /* \"contracts/Final_Version.sol\":1440:1532  function setOwner(address new_owner) external onlyOwner {... */\n      pop\n      jump\t// out\n        /* \"contracts/Final_Version.sol\":3665:3785  function getCurrentProposal() external view returns(Proposal memory) {... */\n    tag_16:\n        /* \"contracts/Final_Version.sol\":3717:3732  Proposal memory */\n      tag_42\n      tag_43\n      jump\t// in\n    tag_42:\n        /* \"contracts/Final_Version.sol\":3752:3768  proposal_history */\n      0x02\n        /* \"contracts/Final_Version.sol\":3752:3777  proposal_history[counter] */\n      0x00\n        /* \"contracts/Final_Version.sol\":3769:3776  counter */\n      sload(0x01)\n        /* \"contracts/Final_Version.sol\":3752:3777  proposal_history[counter] */\n      dup2\n      mstore\n      0x20\n      add\n      swap1\n      dup2\n      mstore\n      0x20\n      add\n      0x00\n      keccak256\n        /* \"contracts/Final_Version.sol\":3745:3777  return proposal_history[counter] */\n      mload(0x40)\n      dup1\n      0xe0\n      add\n      0x40\n      mstore\n      swap1\n      dup2\n      0x00\n      dup3\n      add\n      dup1\n      sload\n      tag_45\n      swap1\n      tag_46\n      jump\t// in\n    tag_45:\n      dup1\n      0x1f\n      add\n      0x20\n      dup1\n      swap2\n      div\n      mul\n      0x20\n      add\n      mload(0x40)\n      swap1\n      dup2\n      add\n      0x40\n      mstore\n      dup1\n      swap3\n      swap2\n      swap1\n      dup2\n      dup2\n      mstore\n      0x20\n      add\n      dup3\n      dup1\n      sload\n      tag_47\n      swap1\n      tag_46\n      jump\t// in\n    tag_47:\n      dup1\n      iszero\n      tag_48\n      jumpi\n      dup1\n      0x1f\n      lt\n      tag_49\n      jumpi\n      0x0100\n      dup1\n      dup4\n      sload\n      div\n      mul\n      dup4\n      mstore\n      swap2\n      0x20\n      add\n      swap2\n      jump(tag_48)\n    tag_49:\n      dup3\n      add\n      swap2\n      swap1\n      0x00\n      mstore\n      keccak256(0x00, 0x20)\n      swap1\n    tag_50:\n      dup2\n      sload\n      dup2\n      mstore\n      swap1\n      0x01\n      add\n      swap1\n      0x20\n      add\n      dup1\n      dup4\n      gt\n      tag_50\n      jumpi\n      dup3\n      swap1\n      sub\n      0x1f\n      and\n      dup3\n      add\n      swap2\n    tag_48:\n      pop\n      pop\n      pop\n      pop\n      pop\n      dup2\n      mstore\n      0x20\n      add\n      0x01\n      dup3\n      add\n      sload\n      dup2\n      mstore\n      0x20\n      add\n      0x02\n      dup3\n      add\n      sload\n      dup2\n      mstore\n      0x20\n      add\n      0x03\n      dup3\n      add\n      sload\n      dup2\n      mstore\n      0x20\n      add\n      0x04\n      dup3\n      add\n      sload\n      dup2\n      mstore\n      0x20\n      add\n      0x05\n      dup3\n      add\n      0x00\n      swap1\n      sload\n      swap1\n      0x0100\n      exp\n      swap1\n      div\n      0xff\n      and\n      iszero\n      iszero\n      iszero\n      iszero\n      dup2\n      mstore\n      0x20\n      add\n      0x05\n      dup3\n      add\n      0x01\n      swap1\n      sload\n      swap1\n      0x0100\n      exp\n      swap1\n      div\n      0xff\n      and\n      iszero\n      iszero\n      iszero\n      iszero\n      dup2\n      mstore\n      pop\n      pop\n      swap1\n      pop\n        /* \"contracts/Final_Version.sol\":3665:3785  function getCurrentProposal() external view returns(Proposal memory) {... */\n      swap1\n      jump\t// out\n        /* \"contracts/Final_Version.sol\":1542:1769  function create(string calldata _description, uint256 _total_vote_to_end) external onlyOwner {... */\n    tag_22:\n        /* \"contracts/Final_Version.sol\":1083:1088  owner */\n      0x00\n      dup1\n      sload\n      swap1\n      0x0100\n      exp\n      swap1\n      div\n      0xffffffffffffffffffffffffffffffffffffffff\n      and\n        /* \"contracts/Final_Version.sol\":1069:1088  msg.sender == owner */\n      0xffffffffffffffffffffffffffffffffffffffff\n      and\n        /* \"contracts/Final_Version.sol\":1069:1079  msg.sender */\n      caller\n        /* \"contracts/Final_Version.sol\":1069:1088  msg.sender == owner */\n      0xffffffffffffffffffffffffffffffffffffffff\n      and\n      eq\n        /* \"contracts/Final_Version.sol\":1061:1089  require(msg.sender == owner) */\n      tag_52\n      jumpi\n      0x00\n      dup1\n      revert\n    tag_52:\n        /* \"contracts/Final_Version.sol\":1657:1658  1 */\n      0x01\n        /* \"contracts/Final_Version.sol\":1646:1653  counter */\n      dup1\n      0x00\n        /* \"contracts/Final_Version.sol\":1646:1658  counter += 1 */\n      dup3\n      dup3\n      sload\n      tag_54\n      swap2\n      swap1\n      tag_55\n      jump\t// in\n    tag_54:\n      swap3\n      pop\n      pop\n      dup2\n      swap1\n      sstore\n      pop\n        /* \"contracts/Final_Version.sol\":1697:1761  Proposal(_description, 0, 0, 0, _total_vote_to_end, false, true) */\n      mload(0x40)\n      dup1\n      0xe0\n      add\n      0x40\n      mstore\n      dup1\n        /* \"contracts/Final_Version.sol\":1706:1718  _description */\n      dup5\n      dup5\n        /* \"contracts/Final_Version.sol\":1697:1761  Proposal(_description, 0, 0, 0, _total_vote_to_end, false, true) */\n      dup1\n      dup1\n      0x1f\n      add\n      0x20\n      dup1\n      swap2\n      div\n      mul\n      0x20\n      add\n      mload(0x40)\n      swap1\n      dup2\n      add\n      0x40\n      mstore\n      dup1\n      swap4\n      swap3\n      swap2\n      swap1\n      dup2\n      dup2\n      mstore\n      0x20\n      add\n      dup4\n      dup4\n      dup1\n      dup3\n      dup5\n      calldatacopy\n      0x00\n      dup2\n      dup5\n      add\n      mstore\n      not(0x1f)\n      0x1f\n      dup3\n      add\n      and\n      swap1\n      pop\n      dup1\n      dup4\n      add\n      swap3\n      pop\n      pop\n      pop\n      pop\n      pop\n      pop\n      pop\n      dup2\n      mstore\n      0x20\n      add\n        /* \"contracts/Final_Version.sol\":1720:1721  0 */\n      0x00\n        /* \"contracts/Final_Version.sol\":1697:1761  Proposal(_description, 0, 0, 0, _total_vote_to_end, false, true) */\n      dup2\n      mstore\n      0x20\n      add\n        /* \"contracts/Final_Version.sol\":1723:1724  0 */\n      0x00\n        /* \"contracts/Final_Version.sol\":1697:1761  Proposal(_description, 0, 0, 0, _total_vote_to_end, false, true) */\n      dup2\n      mstore\n      0x20\n      add\n        /* \"contracts/Final_Version.sol\":1726:1727  0 */\n      0x00\n        /* \"contracts/Final_Version.sol\":1697:1761  Proposal(_description, 0, 0, 0, _total_vote_to_end, false, true) */\n      dup2\n      mstore\n      0x20\n      add\n        /* \"contracts/Final_Version.sol\":1729:1747  _total_vote_to_end */\n      dup3\n        /* \"contracts/Final_Version.sol\":1697:1761  Proposal(_description, 0, 0, 0, _total_vote_to_end, false, true) */\n      dup2\n      mstore\n      0x20\n      add\n        /* \"contracts/Final_Version.sol\":1749:1754  false */\n      0x00\n        /* \"contracts/Final_Version.sol\":1697:1761  Proposal(_description, 0, 0, 0, _total_vote_to_end, false, true) */\n      iszero\n      iszero\n      dup2\n      mstore\n      0x20\n      add\n        /* \"contracts/Final_Version.sol\":1756:1760  true */\n      0x01\n        /* \"contracts/Final_Version.sol\":1697:1761  Proposal(_description, 0, 0, 0, _total_vote_to_end, false, true) */\n      iszero\n      iszero\n      dup2\n      mstore\n      pop\n        /* \"contracts/Final_Version.sol\":1669:1685  proposal_history */\n      0x02\n        /* \"contracts/Final_Version.sol\":1669:1694  proposal_history[counter] */\n      0x00\n        /* \"contracts/Final_Version.sol\":1686:1693  counter */\n      sload(0x01)\n        /* \"contracts/Final_Version.sol\":1669:1694  proposal_history[counter] */\n      dup2\n      mstore\n      0x20\n      add\n      swap1\n      dup2\n      mstore\n      0x20\n      add\n      0x00\n      keccak256\n        /* \"contracts/Final_Version.sol\":1669:1761  proposal_history[counter] = Proposal(_description, 0, 0, 0, _total_vote_to_end, false, true) */\n      0x00\n      dup3\n      add\n      mload\n      dup2\n      0x00\n      add\n      swap1\n      dup2\n      tag_56\n      swap2\n      swap1\n      tag_57\n      jump\t// in\n    tag_56:\n      pop\n      0x20\n      dup3\n      add\n      mload\n      dup2\n      0x01\n      add\n      sstore\n      0x40\n      dup3\n      add\n      mload\n      dup2\n      0x02\n      add\n      sstore\n      0x60\n      dup3\n      add\n      mload\n      dup2\n      0x03\n      add\n      sstore\n      0x80\n      dup3\n      add\n      mload\n      dup2\n      0x04\n      add\n      sstore\n      0xa0\n      dup3\n      add\n      mload\n      dup2\n      0x05\n      add\n      exp(0x0100, 0x00)\n      dup2\n      sload\n      dup2\n      0xff\n      mul\n      not\n      and\n      swap1\n      dup4\n      iszero\n      iszero\n      mul\n      or\n      swap1\n      sstore\n      pop\n      0xc0\n      dup3\n      add\n      mload\n      dup2\n      0x05\n      add\n      exp(0x0100, 0x01)\n      dup2\n      sload\n      dup2\n      0xff\n      mul\n      not\n      and\n      swap1\n      dup4\n      iszero\n      iszero\n      mul\n      or\n      swap1\n      sstore\n      pop\n      swap1\n      pop\n      pop\n        /* \"contracts/Final_Version.sol\":1542:1769  function create(string calldata _description, uint256 _total_vote_to_end) external onlyOwner {... */\n      pop\n      pop\n      pop\n      jump\t// out\n        /* \"contracts/Final_Version.sol\":1785:2662  function vote(uint8 choice) external active newVoter(msg.sender){... */\n    tag_26:\n        /* \"contracts/Final_Version.sol\":1195:1199  true */\n      0x01\n        /* \"contracts/Final_Version.sol\":1156:1199  proposal_history[counter].is_active == true */\n      iszero\n      iszero\n        /* \"contracts/Final_Version.sol\":1156:1172  proposal_history */\n      0x02\n        /* \"contracts/Final_Version.sol\":1156:1181  proposal_history[counter] */\n      0x00\n        /* \"contracts/Final_Version.sol\":1173:1180  counter */\n      sload(0x01)\n        /* \"contracts/Final_Version.sol\":1156:1181  proposal_history[counter] */\n      dup2\n      mstore\n      0x20\n      add\n      swap1\n      dup2\n      mstore\n      0x20\n      add\n      0x00\n      keccak256\n        /* \"contracts/Final_Version.sol\":1156:1191  proposal_history[counter].is_active */\n      0x05\n      add\n      0x01\n      swap1\n      sload\n      swap1\n      0x0100\n      exp\n      swap1\n      div\n      0xff\n      and\n        /* \"contracts/Final_Version.sol\":1156:1199  proposal_history[counter].is_active == true */\n      iszero\n      iszero\n      eq\n        /* \"contracts/Final_Version.sol\":1148:1200  require(proposal_history[counter].is_active == true) */\n      tag_59\n      jumpi\n      0x00\n      dup1\n      revert\n    tag_59:\n        /* \"contracts/Final_Version.sol\":1838:1848  msg.sender */\n      caller\n        /* \"contracts/Final_Version.sol\":1286:1303  isVoted(_address) */\n      tag_61\n        /* \"contracts/Final_Version.sol\":1294:1302  _address */\n      dup2\n        /* \"contracts/Final_Version.sol\":1286:1293  isVoted */\n      tag_34\n        /* \"contracts/Final_Version.sol\":1286:1303  isVoted(_address) */\n      jump\t// in\n    tag_61:\n        /* \"contracts/Final_Version.sol\":1285:1303  !isVoted(_address) */\n      iszero\n        /* \"contracts/Final_Version.sol\":1277:1333  require(!isVoted(_address), \"Address has not voted yet\") */\n      tag_62\n      jumpi\n      mload(0x40)\n      0x08c379a000000000000000000000000000000000000000000000000000000000\n      dup2\n      mstore\n      0x04\n      add\n      tag_63\n      swap1\n      tag_64\n      jump\t// in\n    tag_63:\n      mload(0x40)\n      dup1\n      swap2\n      sub\n      swap1\n      revert\n    tag_62:\n        /* \"contracts/Final_Version.sol\":1860:1885  Proposal storage proposal */\n      0x00\n        /* \"contracts/Final_Version.sol\":1888:1904  proposal_history */\n      0x02\n        /* \"contracts/Final_Version.sol\":1888:1913  proposal_history[counter] */\n      0x00\n        /* \"contracts/Final_Version.sol\":1905:1912  counter */\n      sload(0x01)\n        /* \"contracts/Final_Version.sol\":1888:1913  proposal_history[counter] */\n      dup2\n      mstore\n      0x20\n      add\n      swap1\n      dup2\n      mstore\n      0x20\n      add\n      0x00\n      keccak256\n        /* \"contracts/Final_Version.sol\":1860:1913  Proposal storage proposal = proposal_history[counter] */\n      swap1\n      pop\n        /* \"contracts/Final_Version.sol\":1924:1942  uint256 total_vote */\n      0x00\n        /* \"contracts/Final_Version.sol\":1982:1990  proposal */\n      dup2\n        /* \"contracts/Final_Version.sol\":1982:1995  proposal.pass */\n      0x03\n      add\n      sload\n        /* \"contracts/Final_Version.sol\":1964:1972  proposal */\n      dup3\n        /* \"contracts/Final_Version.sol\":1964:1979  proposal.reject */\n      0x02\n      add\n      sload\n        /* \"contracts/Final_Version.sol\":1945:1953  proposal */\n      dup4\n        /* \"contracts/Final_Version.sol\":1945:1961  proposal.approve */\n      0x01\n      add\n      sload\n        /* \"contracts/Final_Version.sol\":1945:1979  proposal.approve + proposal.reject */\n      tag_66\n      swap2\n      swap1\n      tag_55\n      jump\t// in\n    tag_66:\n        /* \"contracts/Final_Version.sol\":1945:1995  proposal.approve + proposal.reject + proposal.pass */\n      tag_67\n      swap2\n      swap1\n      tag_55\n      jump\t// in\n    tag_67:\n        /* \"contracts/Final_Version.sol\":1924:1995  uint256 total_vote = proposal.approve + proposal.reject + proposal.pass */\n      swap1\n      pop\n        /* \"contracts/Final_Version.sol\":2010:2025  voted_addresses */\n      0x03\n        /* \"contracts/Final_Version.sol\":2031:2041  msg.sender */\n      caller\n        /* \"contracts/Final_Version.sol\":2010:2042  voted_addresses.push(msg.sender) */\n      swap1\n      dup1\n      0x01\n      dup2\n      sload\n      add\n      dup1\n      dup3\n      sstore\n      dup1\n      swap2\n      pop\n      pop\n      0x01\n      swap1\n      sub\n      swap1\n      0x00\n      mstore\n      keccak256(0x00, 0x20)\n      add\n      0x00\n      swap1\n      swap2\n      swap1\n      swap2\n      swap1\n      swap2\n      0x0100\n      exp\n      dup2\n      sload\n      dup2\n      0xffffffffffffffffffffffffffffffffffffffff\n      mul\n      not\n      and\n      swap1\n      dup4\n      0xffffffffffffffffffffffffffffffffffffffff\n      and\n      mul\n      or\n      swap1\n      sstore\n      pop\n        /* \"contracts/Final_Version.sol\":2071:2072  1 */\n      0x01\n        /* \"contracts/Final_Version.sol\":2061:2067  choice */\n      dup5\n        /* \"contracts/Final_Version.sol\":2061:2072  choice == 1 */\n      0xff\n      and\n      sub\n        /* \"contracts/Final_Version.sol\":2057:2449  if (choice == 1) {... */\n      tag_69\n      jumpi\n        /* \"contracts/Final_Version.sol\":2109:2110  1 */\n      0x01\n        /* \"contracts/Final_Version.sol\":2089:2097  proposal */\n      dup3\n        /* \"contracts/Final_Version.sol\":2089:2105  proposal.approve */\n      0x01\n      add\n      0x00\n        /* \"contracts/Final_Version.sol\":2089:2110  proposal.approve += 1 */\n      dup3\n      dup3\n      sload\n      tag_70\n      swap2\n      swap1\n      tag_55\n      jump\t// in\n    tag_70:\n      swap3\n      pop\n      pop\n      dup2\n      swap1\n      sstore\n      pop\n        /* \"contracts/Final_Version.sol\":2150:2173  calculateCurrentState() */\n      tag_71\n        /* \"contracts/Final_Version.sol\":2150:2171  calculateCurrentState */\n      tag_72\n        /* \"contracts/Final_Version.sol\":2150:2173  calculateCurrentState() */\n      jump\t// in\n    tag_71:\n        /* \"contracts/Final_Version.sol\":2125:2133  proposal */\n      dup3\n        /* \"contracts/Final_Version.sol\":2125:2147  proposal.current_state */\n      0x05\n      add\n      0x00\n        /* \"contracts/Final_Version.sol\":2125:2173  proposal.current_state = calculateCurrentState() */\n      0x0100\n      exp\n      dup2\n      sload\n      dup2\n      0xff\n      mul\n      not\n      and\n      swap1\n      dup4\n      iszero\n      iszero\n      mul\n      or\n      swap1\n      sstore\n      pop\n        /* \"contracts/Final_Version.sol\":2057:2449  if (choice == 1) {... */\n      jump(tag_73)\n    tag_69:\n        /* \"contracts/Final_Version.sol\":2205:2206  2 */\n      0x02\n        /* \"contracts/Final_Version.sol\":2195:2201  choice */\n      dup5\n        /* \"contracts/Final_Version.sol\":2195:2206  choice == 2 */\n      0xff\n      and\n      sub\n        /* \"contracts/Final_Version.sol\":2191:2449  if (choice == 2) {... */\n      tag_74\n      jumpi\n        /* \"contracts/Final_Version.sol\":2242:2243  1 */\n      0x01\n        /* \"contracts/Final_Version.sol\":2223:2231  proposal */\n      dup3\n        /* \"contracts/Final_Version.sol\":2223:2238  proposal.reject */\n      0x02\n      add\n      0x00\n        /* \"contracts/Final_Version.sol\":2223:2243  proposal.reject += 1 */\n      dup3\n      dup3\n      sload\n      tag_75\n      swap2\n      swap1\n      tag_55\n      jump\t// in\n    tag_75:\n      swap3\n      pop\n      pop\n      dup2\n      swap1\n      sstore\n      pop\n        /* \"contracts/Final_Version.sol\":2283:2306  calculateCurrentState() */\n      tag_76\n        /* \"contracts/Final_Version.sol\":2283:2304  calculateCurrentState */\n      tag_72\n        /* \"contracts/Final_Version.sol\":2283:2306  calculateCurrentState() */\n      jump\t// in\n    tag_76:\n        /* \"contracts/Final_Version.sol\":2258:2266  proposal */\n      dup3\n        /* \"contracts/Final_Version.sol\":2258:2280  proposal.current_state */\n      0x05\n      add\n      0x00\n        /* \"contracts/Final_Version.sol\":2258:2306  proposal.current_state = calculateCurrentState() */\n      0x0100\n      exp\n      dup2\n      sload\n      dup2\n      0xff\n      mul\n      not\n      and\n      swap1\n      dup4\n      iszero\n      iszero\n      mul\n      or\n      swap1\n      sstore\n      pop\n        /* \"contracts/Final_Version.sol\":2191:2449  if (choice == 2) {... */\n      jump(tag_77)\n    tag_74:\n        /* \"contracts/Final_Version.sol\":2338:2339  0 */\n      0x00\n        /* \"contracts/Final_Version.sol\":2328:2334  choice */\n      dup5\n        /* \"contracts/Final_Version.sol\":2328:2339  choice == 0 */\n      0xff\n      and\n      sub\n        /* \"contracts/Final_Version.sol\":2324:2449  if (choice == 0) {... */\n      tag_78\n      jumpi\n        /* \"contracts/Final_Version.sol\":2373:2374  1 */\n      0x01\n        /* \"contracts/Final_Version.sol\":2356:2364  proposal */\n      dup3\n        /* \"contracts/Final_Version.sol\":2356:2369  proposal.pass */\n      0x03\n      add\n      0x00\n        /* \"contracts/Final_Version.sol\":2356:2374  proposal.pass += 1 */\n      dup3\n      dup3\n      sload\n      tag_79\n      swap2\n      swap1\n      tag_55\n      jump\t// in\n    tag_79:\n      swap3\n      pop\n      pop\n      dup2\n      swap1\n      sstore\n      pop\n        /* \"contracts/Final_Version.sol\":2414:2437  calculateCurrentState() */\n      tag_80\n        /* \"contracts/Final_Version.sol\":2414:2435  calculateCurrentState */\n      tag_72\n        /* \"contracts/Final_Version.sol\":2414:2437  calculateCurrentState() */\n      jump\t// in\n    tag_80:\n        /* \"contracts/Final_Version.sol\":2389:2397  proposal */\n      dup3\n        /* \"contracts/Final_Version.sol\":2389:2411  proposal.current_state */\n      0x05\n      add\n      0x00\n        /* \"contracts/Final_Version.sol\":2389:2437  proposal.current_state = calculateCurrentState() */\n      0x0100\n      exp\n      dup2\n      sload\n      dup2\n      0xff\n      mul\n      not\n      and\n      swap1\n      dup4\n      iszero\n      iszero\n      mul\n      or\n      swap1\n      sstore\n      pop\n        /* \"contracts/Final_Version.sol\":2324:2449  if (choice == 0) {... */\n    tag_78:\n        /* \"contracts/Final_Version.sol\":2191:2449  if (choice == 2) {... */\n    tag_77:\n        /* \"contracts/Final_Version.sol\":2057:2449  if (choice == 1) {... */\n    tag_73:\n        /* \"contracts/Final_Version.sol\":2511:2512  1 */\n      0x01\n        /* \"contracts/Final_Version.sol\":2497:2507  total_vote */\n      dup2\n        /* \"contracts/Final_Version.sol\":2468:2476  proposal */\n      dup4\n        /* \"contracts/Final_Version.sol\":2468:2494  proposal.total_vote_to_end */\n      0x04\n      add\n      sload\n        /* \"contracts/Final_Version.sol\":2468:2507  proposal.total_vote_to_end - total_vote */\n      tag_81\n      swap2\n      swap1\n      tag_82\n      jump\t// in\n    tag_81:\n        /* \"contracts/Final_Version.sol\":2468:2512  proposal.total_vote_to_end - total_vote == 1 */\n      eq\n        /* \"contracts/Final_Version.sol\":2467:2560  (proposal.total_vote_to_end - total_vote == 1) && (choice == 1 || choice == 2 || choice == 0) */\n      dup1\n      iszero\n      tag_83\n      jumpi\n      pop\n        /* \"contracts/Final_Version.sol\":2528:2529  1 */\n      0x01\n        /* \"contracts/Final_Version.sol\":2518:2524  choice */\n      dup5\n        /* \"contracts/Final_Version.sol\":2518:2529  choice == 1 */\n      0xff\n      and\n      eq\n        /* \"contracts/Final_Version.sol\":2518:2544  choice == 1 || choice == 2 */\n      dup1\n      tag_84\n      jumpi\n      pop\n        /* \"contracts/Final_Version.sol\":2543:2544  2 */\n      0x02\n        /* \"contracts/Final_Version.sol\":2533:2539  choice */\n      dup5\n        /* \"contracts/Final_Version.sol\":2533:2544  choice == 2 */\n      0xff\n      and\n      eq\n        /* \"contracts/Final_Version.sol\":2518:2544  choice == 1 || choice == 2 */\n    tag_84:\n        /* \"contracts/Final_Version.sol\":2518:2559  choice == 1 || choice == 2 || choice == 0 */\n      dup1\n      tag_85\n      jumpi\n      pop\n        /* \"contracts/Final_Version.sol\":2558:2559  0 */\n      0x00\n        /* \"contracts/Final_Version.sol\":2548:2554  choice */\n      dup5\n        /* \"contracts/Final_Version.sol\":2548:2559  choice == 0 */\n      0xff\n      and\n      eq\n        /* \"contracts/Final_Version.sol\":2518:2559  choice == 1 || choice == 2 || choice == 0 */\n    tag_85:\n        /* \"contracts/Final_Version.sol\":2467:2560  (proposal.total_vote_to_end - total_vote == 1) && (choice == 1 || choice == 2 || choice == 0) */\n    tag_83:\n        /* \"contracts/Final_Version.sol\":2463:2655  if ((proposal.total_vote_to_end - total_vote == 1) && (choice == 1 || choice == 2 || choice == 0)) {... */\n      iszero\n      tag_86\n      jumpi\n        /* \"contracts/Final_Version.sol\":2598:2603  false */\n      0x00\n        /* \"contracts/Final_Version.sol\":2577:2585  proposal */\n      dup3\n        /* \"contracts/Final_Version.sol\":2577:2595  proposal.is_active */\n      0x05\n      add\n      0x01\n        /* \"contracts/Final_Version.sol\":2577:2603  proposal.is_active = false */\n      0x0100\n      exp\n      dup2\n      sload\n      dup2\n      0xff\n      mul\n      not\n      and\n      swap1\n      dup4\n      iszero\n      iszero\n      mul\n      or\n      swap1\n      sstore\n      pop\n        /* \"contracts/Final_Version.sol\":2618:2643  voted_addresses = [owner] */\n      mload(0x40)\n      dup1\n      0x20\n      add\n      0x40\n      mstore\n      dup1\n        /* \"contracts/Final_Version.sol\":2637:2642  owner */\n      0x00\n      dup1\n      sload\n      swap1\n      0x0100\n      exp\n      swap1\n      div\n      0xffffffffffffffffffffffffffffffffffffffff\n      and\n        /* \"contracts/Final_Version.sol\":2618:2643  voted_addresses = [owner] */\n      0xffffffffffffffffffffffffffffffffffffffff\n      and\n      0xffffffffffffffffffffffffffffffffffffffff\n      and\n      dup2\n      mstore\n      pop\n        /* \"contracts/Final_Version.sol\":2618:2633  voted_addresses */\n      0x03\n        /* \"contracts/Final_Version.sol\":2618:2643  voted_addresses = [owner] */\n      swap1\n      0x01\n      tag_87\n      swap3\n      swap2\n      swap1\n      tag_88\n      jump\t// in\n    tag_87:\n      pop\n        /* \"contracts/Final_Version.sol\":2463:2655  if ((proposal.total_vote_to_end - total_vote == 1) && (choice == 1 || choice == 2 || choice == 0)) {... */\n    tag_86:\n        /* \"contracts/Final_Version.sol\":1849:2662  {... */\n      pop\n      pop\n        /* \"contracts/Final_Version.sol\":1211:1212  _ */\n      pop\n        /* \"contracts/Final_Version.sol\":1785:2662  function vote(uint8 choice) external active newVoter(msg.sender){... */\n      pop\n      jump\t// out\n        /* \"contracts/Final_Version.sol\":3795:3921  function getProposal(uint256 number) external view returns(Proposal memory) {... */\n    tag_30:\n        /* \"contracts/Final_Version.sol\":3854:3869  Proposal memory */\n      tag_89\n      tag_43\n      jump\t// in\n    tag_89:\n        /* \"contracts/Final_Version.sol\":3889:3905  proposal_history */\n      0x02\n        /* \"contracts/Final_Version.sol\":3889:3913  proposal_history[number] */\n      0x00\n        /* \"contracts/Final_Version.sol\":3906:3912  number */\n      dup4\n        /* \"contracts/Final_Version.sol\":3889:3913  proposal_history[number] */\n      dup2\n      mstore\n      0x20\n      add\n      swap1\n      dup2\n      mstore\n      0x20\n      add\n      0x00\n      keccak256\n        /* \"contracts/Final_Version.sol\":3882:3913  return proposal_history[number] */\n      mload(0x40)\n      dup1\n      0xe0\n      add\n      0x40\n      mstore\n      swap1\n      dup2\n      0x00\n      dup3\n      add\n      dup1\n      sload\n      tag_91\n      swap1\n      tag_46\n      jump\t// in\n    tag_91:\n      dup1\n      0x1f\n      add\n      0x20\n      dup1\n      swap2\n      div\n      mul\n      0x20\n      add\n      mload(0x40)\n      swap1\n      dup2\n      add\n      0x40\n      mstore\n      dup1\n      swap3\n      swap2\n      swap1\n      dup2\n      dup2\n      mstore\n      0x20\n      add\n      dup3\n      dup1\n      sload\n      tag_92\n      swap1\n      tag_46\n      jump\t// in\n    tag_92:\n      dup1\n      iszero\n      tag_93\n      jumpi\n      dup1\n      0x1f\n      lt\n      tag_94\n      jumpi\n      0x0100\n      dup1\n      dup4\n      sload\n      div\n      mul\n      dup4\n      mstore\n      swap2\n      0x20\n      add\n      swap2\n      jump(tag_93)\n    tag_94:\n      dup3\n      add\n      swap2\n      swap1\n      0x00\n      mstore\n      keccak256(0x00, 0x20)\n      swap1\n    tag_95:\n      dup2\n      sload\n      dup2\n      mstore\n      swap1\n      0x01\n      add\n      swap1\n      0x20\n      add\n      dup1\n      dup4\n      gt\n      tag_95\n      jumpi\n      dup3\n      swap1\n      sub\n      0x1f\n      and\n      dup3\n      add\n      swap2\n    tag_93:\n      pop\n      pop\n      pop\n      pop\n      pop\n      dup2\n      mstore\n      0x20\n      add\n      0x01\n      dup3\n      add\n      sload\n      dup2\n      mstore\n      0x20\n      add\n      0x02\n      dup3\n      add\n      sload\n      dup2\n      mstore\n      0x20\n      add\n      0x03\n      dup3\n      add\n      sload\n      dup2\n      mstore\n      0x20\n      add\n      0x04\n      dup3\n      add\n      sload\n      dup2\n      mstore\n      0x20\n      add\n      0x05\n      dup3\n      add\n      0x00\n      swap1\n      sload\n      swap1\n      0x0100\n      exp\n      swap1\n      div\n      0xff\n      and\n      iszero\n      iszero\n      iszero\n      iszero\n      dup2\n      mstore\n      0x20\n      add\n      0x05\n      dup3\n      add\n      0x01\n      swap1\n      sload\n      swap1\n      0x0100\n      exp\n      swap1\n      div\n      0xff\n      and\n      iszero\n      iszero\n      iszero\n      iszero\n      dup2\n      mstore\n      pop\n      pop\n      swap1\n      pop\n        /* \"contracts/Final_Version.sol\":3795:3921  function getProposal(uint256 number) external view returns(Proposal memory) {... */\n      swap2\n      swap1\n      pop\n      jump\t// out\n        /* \"contracts/Final_Version.sol\":3390:3651  function isVoted(address _address) public view returns (bool) {... */\n    tag_34:\n        /* \"contracts/Final_Version.sol\":3446:3450  bool */\n      0x00\n        /* \"contracts/Final_Version.sol\":3468:3474  uint i */\n      dup1\n        /* \"contracts/Final_Version.sol\":3477:3478  0 */\n      0x00\n        /* \"contracts/Final_Version.sol\":3468:3478  uint i = 0 */\n      swap1\n      pop\n        /* \"contracts/Final_Version.sol\":3463:3621  for (uint i = 0; i < voted_addresses.length; i++) {... */\n    tag_97:\n        /* \"contracts/Final_Version.sol\":3484:3499  voted_addresses */\n      0x03\n        /* \"contracts/Final_Version.sol\":3484:3506  voted_addresses.length */\n      dup1\n      sload\n      swap1\n      pop\n        /* \"contracts/Final_Version.sol\":3480:3481  i */\n      dup2\n        /* \"contracts/Final_Version.sol\":3480:3506  i < voted_addresses.length */\n      lt\n        /* \"contracts/Final_Version.sol\":3463:3621  for (uint i = 0; i < voted_addresses.length; i++) {... */\n      iszero\n      tag_98\n      jumpi\n        /* \"contracts/Final_Version.sol\":3554:3562  _address */\n      dup3\n        /* \"contracts/Final_Version.sol\":3532:3562  voted_addresses[i] == _address */\n      0xffffffffffffffffffffffffffffffffffffffff\n      and\n        /* \"contracts/Final_Version.sol\":3532:3547  voted_addresses */\n      0x03\n        /* \"contracts/Final_Version.sol\":3548:3549  i */\n      dup3\n        /* \"contracts/Final_Version.sol\":3532:3550  voted_addresses[i] */\n      dup2\n      sload\n      dup2\n      lt\n      tag_100\n      jumpi\n      tag_101\n      tag_102\n      jump\t// in\n    tag_101:\n    tag_100:\n      swap1\n      0x00\n      mstore\n      keccak256(0x00, 0x20)\n      add\n      0x00\n      swap1\n      sload\n      swap1\n      0x0100\n      exp\n      swap1\n      div\n      0xffffffffffffffffffffffffffffffffffffffff\n      and\n        /* \"contracts/Final_Version.sol\":3532:3562  voted_addresses[i] == _address */\n      0xffffffffffffffffffffffffffffffffffffffff\n      and\n      sub\n        /* \"contracts/Final_Version.sol\":3528:3610  if (voted_addresses[i] == _address) {... */\n      tag_104\n      jumpi\n        /* \"contracts/Final_Version.sol\":3590:3594  true */\n      0x01\n        /* \"contracts/Final_Version.sol\":3583:3594  return true */\n      swap2\n      pop\n      pop\n      jump(tag_96)\n        /* \"contracts/Final_Version.sol\":3528:3610  if (voted_addresses[i] == _address) {... */\n    tag_104:\n        /* \"contracts/Final_Version.sol\":3508:3511  i++ */\n      dup1\n      dup1\n      0x01\n      add\n      swap2\n      pop\n      pop\n        /* \"contracts/Final_Version.sol\":3463:3621  for (uint i = 0; i < voted_addresses.length; i++) {... */\n      jump(tag_97)\n    tag_98:\n      pop\n        /* \"contracts/Final_Version.sol\":3638:3643  false */\n      0x00\n        /* \"contracts/Final_Version.sol\":3631:3643  return false */\n      swap1\n      pop\n        /* \"contracts/Final_Version.sol\":3390:3651  function isVoted(address _address) public view returns (bool) {... */\n    tag_96:\n      swap2\n      swap1\n      pop\n      jump\t// out\n        /* \"contracts/Final_Version.sol\":2672:2789  function terminateProposal() external onlyOwner active {... */\n    tag_38:\n        /* \"contracts/Final_Version.sol\":1083:1088  owner */\n      0x00\n      dup1\n      sload\n      swap1\n      0x0100\n      exp\n      swap1\n      div\n      0xffffffffffffffffffffffffffffffffffffffff\n      and\n        /* \"contracts/Final_Version.sol\":1069:1088  msg.sender == owner */\n      0xffffffffffffffffffffffffffffffffffffffff\n      and\n        /* \"contracts/Final_Version.sol\":1069:1079  msg.sender */\n      caller\n        /* \"contracts/Final_Version.sol\":1069:1088  msg.sender == owner */\n      0xffffffffffffffffffffffffffffffffffffffff\n      and\n      eq\n        /* \"contracts/Final_Version.sol\":1061:1089  require(msg.sender == owner) */\n      tag_106\n      jumpi\n      0x00\n      dup1\n      revert\n    tag_106:\n        /* \"contracts/Final_Version.sol\":1195:1199  true */\n      0x01\n        /* \"contracts/Final_Version.sol\":1156:1199  proposal_history[counter].is_active == true */\n      iszero\n      iszero\n        /* \"contracts/Final_Version.sol\":1156:1172  proposal_history */\n      0x02\n        /* \"contracts/Final_Version.sol\":1156:1181  proposal_history[counter] */\n      0x00\n        /* \"contracts/Final_Version.sol\":1173:1180  counter */\n      sload(0x01)\n        /* \"contracts/Final_Version.sol\":1156:1181  proposal_history[counter] */\n      dup2\n      mstore\n      0x20\n      add\n      swap1\n      dup2\n      mstore\n      0x20\n      add\n      0x00\n      keccak256\n        /* \"contracts/Final_Version.sol\":1156:1191  proposal_history[counter].is_active */\n      0x05\n      add\n      0x01\n      swap1\n      sload\n      swap1\n      0x0100\n      exp\n      swap1\n      div\n      0xff\n      and\n        /* \"contracts/Final_Version.sol\":1156:1199  proposal_history[counter].is_active == true */\n      iszero\n      iszero\n      eq\n        /* \"contracts/Final_Version.sol\":1148:1200  require(proposal_history[counter].is_active == true) */\n      tag_108\n      jumpi\n      0x00\n      dup1\n      revert\n    tag_108:\n        /* \"contracts/Final_Version.sol\":2776:2781  false */\n      0x00\n        /* \"contracts/Final_Version.sol\":2738:2754  proposal_history */\n      0x02\n        /* \"contracts/Final_Version.sol\":2738:2763  proposal_history[counter] */\n      0x00\n        /* \"contracts/Final_Version.sol\":2755:2762  counter */\n      sload(0x01)\n        /* \"contracts/Final_Version.sol\":2738:2763  proposal_history[counter] */\n      dup2\n      mstore\n      0x20\n      add\n      swap1\n      dup2\n      mstore\n      0x20\n      add\n      0x00\n      keccak256\n        /* \"contracts/Final_Version.sol\":2738:2773  proposal_history[counter].is_active */\n      0x05\n      add\n      0x01\n        /* \"contracts/Final_Version.sol\":2738:2781  proposal_history[counter].is_active = false */\n      0x0100\n      exp\n      dup2\n      sload\n      dup2\n      0xff\n      mul\n      not\n      and\n      swap1\n      dup4\n      iszero\n      iszero\n      mul\n      or\n      swap1\n      sstore\n      pop\n        /* \"contracts/Final_Version.sol\":2672:2789  function terminateProposal() external onlyOwner active {... */\n      jump\t// out\n        /* \"contracts/Final_Version.sol\":2803:3305  function calculateCurrentState() private view returns(bool) {... */\n    tag_72:\n        /* \"contracts/Final_Version.sol\":2857:2861  bool */\n      0x00\n        /* \"contracts/Final_Version.sol\":2874:2899  Proposal storage proposal */\n      dup1\n        /* \"contracts/Final_Version.sol\":2902:2918  proposal_history */\n      0x02\n        /* \"contracts/Final_Version.sol\":2902:2927  proposal_history[counter] */\n      0x00\n        /* \"contracts/Final_Version.sol\":2919:2926  counter */\n      sload(0x01)\n        /* \"contracts/Final_Version.sol\":2902:2927  proposal_history[counter] */\n      dup2\n      mstore\n      0x20\n      add\n      swap1\n      dup2\n      mstore\n      0x20\n      add\n      0x00\n      keccak256\n        /* \"contracts/Final_Version.sol\":2874:2927  Proposal storage proposal = proposal_history[counter] */\n      swap1\n      pop\n        /* \"contracts/Final_Version.sol\":2942:2957  uint256 approve */\n      0x00\n        /* \"contracts/Final_Version.sol\":2960:2968  proposal */\n      dup2\n        /* \"contracts/Final_Version.sol\":2960:2976  proposal.approve */\n      0x01\n      add\n      sload\n        /* \"contracts/Final_Version.sol\":2942:2976  uint256 approve = proposal.approve */\n      swap1\n      pop\n        /* \"contracts/Final_Version.sol\":2987:3001  uint256 reject */\n      0x00\n        /* \"contracts/Final_Version.sol\":3004:3012  proposal */\n      dup3\n        /* \"contracts/Final_Version.sol\":3004:3019  proposal.reject */\n      0x02\n      add\n      sload\n        /* \"contracts/Final_Version.sol\":2987:3019  uint256 reject = proposal.reject */\n      swap1\n      pop\n        /* \"contracts/Final_Version.sol\":3030:3042  uint256 pass */\n      0x00\n        /* \"contracts/Final_Version.sol\":3045:3053  proposal */\n      dup4\n        /* \"contracts/Final_Version.sol\":3045:3058  proposal.pass */\n      0x03\n      add\n      sload\n        /* \"contracts/Final_Version.sol\":3030:3058  uint256 pass = proposal.pass */\n      swap1\n      pop\n        /* \"contracts/Final_Version.sol\":3103:3104  1 */\n      0x01\n        /* \"contracts/Final_Version.sol\":3098:3099  2 */\n      0x02\n        /* \"contracts/Final_Version.sol\":3083:3091  proposal */\n      dup6\n        /* \"contracts/Final_Version.sol\":3083:3096  proposal.pass */\n      0x03\n      add\n      sload\n        /* \"contracts/Final_Version.sol\":3083:3099  proposal.pass %2 */\n      tag_111\n      swap2\n      swap1\n      tag_112\n      jump\t// in\n    tag_111:\n        /* \"contracts/Final_Version.sol\":3083:3104  proposal.pass %2 == 1 */\n      sub\n        /* \"contracts/Final_Version.sol\":3079:3142  if (proposal.pass %2 == 1) {... */\n      tag_113\n      jumpi\n        /* \"contracts/Final_Version.sol\":3129:3130  1 */\n      0x01\n        /* \"contracts/Final_Version.sol\":3121:3130  pass += 1 */\n      dup2\n      tag_114\n      swap2\n      swap1\n      tag_55\n      jump\t// in\n    tag_114:\n      swap1\n      pop\n        /* \"contracts/Final_Version.sol\":3079:3142  if (proposal.pass %2 == 1) {... */\n    tag_113:\n        /* \"contracts/Final_Version.sol\":3170:3171  2 */\n      0x02\n        /* \"contracts/Final_Version.sol\":3163:3167  pass */\n      dup2\n        /* \"contracts/Final_Version.sol\":3163:3171  pass / 2 */\n      tag_115\n      swap2\n      swap1\n      tag_116\n      jump\t// in\n    tag_115:\n        /* \"contracts/Final_Version.sol\":3156:3171  pass = pass / 2 */\n      swap1\n      pop\n        /* \"contracts/Final_Version.sol\":3209:3213  pass */\n      dup1\n        /* \"contracts/Final_Version.sol\":3200:3206  reject */\n      dup3\n        /* \"contracts/Final_Version.sol\":3200:3213  reject + pass */\n      tag_117\n      swap2\n      swap1\n      tag_55\n      jump\t// in\n    tag_117:\n        /* \"contracts/Final_Version.sol\":3190:3197  approve */\n      dup4\n        /* \"contracts/Final_Version.sol\":3190:3213  approve > reject + pass */\n      gt\n        /* \"contracts/Final_Version.sol\":3186:3298  if (approve > reject + pass) {... */\n      iszero\n      tag_118\n      jumpi\n        /* \"contracts/Final_Version.sol\":3237:3241  true */\n      0x01\n        /* \"contracts/Final_Version.sol\":3230:3241  return true */\n      swap5\n      pop\n      pop\n      pop\n      pop\n      pop\n      jump(tag_110)\n        /* \"contracts/Final_Version.sol\":3186:3298  if (approve > reject + pass) {... */\n    tag_118:\n        /* \"contracts/Final_Version.sol\":3281:3286  false */\n      0x00\n        /* \"contracts/Final_Version.sol\":3274:3286  return false */\n      swap5\n      pop\n      pop\n      pop\n      pop\n      pop\n        /* \"contracts/Final_Version.sol\":2803:3305  function calculateCurrentState() private view returns(bool) {... */\n    tag_110:\n      swap1\n      jump\t// out\n    tag_43:\n      mload(0x40)\n      dup1\n      0xe0\n      add\n      0x40\n      mstore\n      dup1\n      0x60\n      dup2\n      mstore\n      0x20\n      add\n      0x00\n      dup2\n      mstore\n      0x20\n      add\n      0x00\n      dup2\n      mstore\n      0x20\n      add\n      0x00\n      dup2\n      mstore\n      0x20\n      add\n      0x00\n      dup2\n      mstore\n      0x20\n      add\n      iszero(iszero(0x00))\n      dup2\n      mstore\n      0x20\n      add\n      iszero(iszero(0x00))\n      dup2\n      mstore\n      pop\n      swap1\n      jump\t// out\n    tag_88:\n      dup3\n      dup1\n      sload\n      dup3\n      dup3\n      sstore\n      swap1\n      0x00\n      mstore\n      keccak256(0x00, 0x20)\n      swap1\n      dup2\n      add\n      swap3\n      dup3\n      iszero\n      tag_120\n      jumpi\n      swap2\n      0x20\n      mul\n      dup3\n      add\n    tag_121:\n      dup3\n      dup2\n      gt\n      iszero\n      tag_122\n      jumpi\n      dup3\n      mload\n      dup3\n      exp(0x0100, 0x00)\n      dup2\n      sload\n      dup2\n      0xffffffffffffffffffffffffffffffffffffffff\n      mul\n      not\n      and\n      swap1\n      dup4\n      0xffffffffffffffffffffffffffffffffffffffff\n      and\n      mul\n      or\n      swap1\n      sstore\n      pop\n      swap2\n      0x20\n      add\n      swap2\n      swap1\n      0x01\n      add\n      swap1\n      jump(tag_121)\n    tag_122:\n    tag_120:\n      pop\n      swap1\n      pop\n      tag_123\n      swap2\n      swap1\n      tag_124\n      jump\t// in\n    tag_123:\n      pop\n      swap1\n      jump\t// out\n    tag_124:\n    tag_125:\n      dup1\n      dup3\n      gt\n      iszero\n      tag_126\n      jumpi\n      0x00\n      dup2\n      0x00\n      swap1\n      sstore\n      pop\n      0x01\n      add\n      jump(tag_125)\n    tag_126:\n      pop\n      swap1\n      jump\t// out\n        /* \"#utility.yul\":88:205   */\n    tag_128:\n        /* \"#utility.yul\":197:198   */\n      0x00\n        /* \"#utility.yul\":194:195   */\n      dup1\n        /* \"#utility.yul\":187:199   */\n      revert\n        /* \"#utility.yul\":211:328   */\n    tag_129:\n        /* \"#utility.yul\":320:321   */\n      0x00\n        /* \"#utility.yul\":317:318   */\n      dup1\n        /* \"#utility.yul\":310:322   */\n      revert\n        /* \"#utility.yul\":334:460   */\n    tag_130:\n        /* \"#utility.yul\":371:378   */\n      0x00\n        /* \"#utility.yul\":411:453   */\n      0xffffffffffffffffffffffffffffffffffffffff\n        /* \"#utility.yul\":404:409   */\n      dup3\n        /* \"#utility.yul\":400:454   */\n      and\n        /* \"#utility.yul\":389:454   */\n      swap1\n      pop\n        /* \"#utility.yul\":334:460   */\n      swap2\n      swap1\n      pop\n      jump\t// out\n        /* \"#utility.yul\":466:562   */\n    tag_131:\n        /* \"#utility.yul\":503:510   */\n      0x00\n        /* \"#utility.yul\":532:556   */\n      tag_182\n        /* \"#utility.yul\":550:555   */\n      dup3\n        /* \"#utility.yul\":532:556   */\n      tag_130\n      jump\t// in\n    tag_182:\n        /* \"#utility.yul\":521:556   */\n      swap1\n      pop\n        /* \"#utility.yul\":466:562   */\n      swap2\n      swap1\n      pop\n      jump\t// out\n        /* \"#utility.yul\":568:690   */\n    tag_132:\n        /* \"#utility.yul\":641:665   */\n      tag_184\n        /* \"#utility.yul\":659:664   */\n      dup2\n        /* \"#utility.yul\":641:665   */\n      tag_131\n      jump\t// in\n    tag_184:\n        /* \"#utility.yul\":634:639   */\n      dup2\n        /* \"#utility.yul\":631:666   */\n      eq\n        /* \"#utility.yul\":621:684   */\n      tag_185\n      jumpi\n        /* \"#utility.yul\":680:681   */\n      0x00\n        /* \"#utility.yul\":677:678   */\n      dup1\n        /* \"#utility.yul\":670:682   */\n      revert\n        /* \"#utility.yul\":621:684   */\n    tag_185:\n        /* \"#utility.yul\":568:690   */\n      pop\n      jump\t// out\n        /* \"#utility.yul\":696:835   */\n    tag_133:\n        /* \"#utility.yul\":742:747   */\n      0x00\n        /* \"#utility.yul\":780:786   */\n      dup2\n        /* \"#utility.yul\":767:787   */\n      calldataload\n        /* \"#utility.yul\":758:787   */\n      swap1\n      pop\n        /* \"#utility.yul\":796:829   */\n      tag_187\n        /* \"#utility.yul\":823:828   */\n      dup2\n        /* \"#utility.yul\":796:829   */\n      tag_132\n      jump\t// in\n    tag_187:\n        /* \"#utility.yul\":696:835   */\n      swap3\n      swap2\n      pop\n      pop\n      jump\t// out\n        /* \"#utility.yul\":841:1170   */\n    tag_13:\n        /* \"#utility.yul\":900:906   */\n      0x00\n        /* \"#utility.yul\":949:951   */\n      0x20\n        /* \"#utility.yul\":937:946   */\n      dup3\n        /* \"#utility.yul\":928:935   */\n      dup5\n        /* \"#utility.yul\":924:947   */\n      sub\n        /* \"#utility.yul\":920:952   */\n      slt\n        /* \"#utility.yul\":917:1036   */\n      iszero\n      tag_189\n      jumpi\n        /* \"#utility.yul\":955:1034   */\n      tag_190\n      tag_128\n      jump\t// in\n    tag_190:\n        /* \"#utility.yul\":917:1036   */\n    tag_189:\n        /* \"#utility.yul\":1075:1076   */\n      0x00\n        /* \"#utility.yul\":1100:1153   */\n      tag_191\n        /* \"#utility.yul\":1145:1152   */\n      dup5\n        /* \"#utility.yul\":1136:1142   */\n      dup3\n        /* \"#utility.yul\":1125:1134   */\n      dup6\n        /* \"#utility.yul\":1121:1143   */\n      add\n        /* \"#utility.yul\":1100:1153   */\n      tag_133\n      jump\t// in\n    tag_191:\n        /* \"#utility.yul\":1090:1153   */\n      swap2\n      pop\n        /* \"#utility.yul\":1046:1163   */\n      pop\n        /* \"#utility.yul\":841:1170   */\n      swap3\n      swap2\n      pop\n      pop\n      jump\t// out\n        /* \"#utility.yul\":1176:1275   */\n    tag_134:\n        /* \"#utility.yul\":1228:1234   */\n      0x00\n        /* \"#utility.yul\":1262:1267   */\n      dup2\n        /* \"#utility.yul\":1256:1268   */\n      mload\n        /* \"#utility.yul\":1246:1268   */\n      swap1\n      pop\n        /* \"#utility.yul\":1176:1275   */\n      swap2\n      swap1\n      pop\n      jump\t// out\n        /* \"#utility.yul\":1281:1440   */\n    tag_135:\n        /* \"#utility.yul\":1355:1366   */\n      0x00\n        /* \"#utility.yul\":1389:1395   */\n      dup3\n        /* \"#utility.yul\":1384:1387   */\n      dup3\n        /* \"#utility.yul\":1377:1396   */\n      mstore\n        /* \"#utility.yul\":1429:1433   */\n      0x20\n        /* \"#utility.yul\":1424:1427   */\n      dup3\n        /* \"#utility.yul\":1420:1434   */\n      add\n        /* \"#utility.yul\":1405:1434   */\n      swap1\n      pop\n        /* \"#utility.yul\":1281:1440   */\n      swap3\n      swap2\n      pop\n      pop\n      jump\t// out\n        /* \"#utility.yul\":1446:1692   */\n    tag_136:\n        /* \"#utility.yul\":1527:1528   */\n      0x00\n        /* \"#utility.yul\":1537:1650   */\n    tag_195:\n        /* \"#utility.yul\":1551:1557   */\n      dup4\n        /* \"#utility.yul\":1548:1549   */\n      dup2\n        /* \"#utility.yul\":1545:1558   */\n      lt\n        /* \"#utility.yul\":1537:1650   */\n      iszero\n      tag_197\n      jumpi\n        /* \"#utility.yul\":1636:1637   */\n      dup1\n        /* \"#utility.yul\":1631:1634   */\n      dup3\n        /* \"#utility.yul\":1627:1638   */\n      add\n        /* \"#utility.yul\":1621:1639   */\n      mload\n        /* \"#utility.yul\":1617:1618   */\n      dup2\n        /* \"#utility.yul\":1612:1615   */\n      dup5\n        /* \"#utility.yul\":1608:1619   */\n      add\n        /* \"#utility.yul\":1601:1640   */\n      mstore\n        /* \"#utility.yul\":1573:1575   */\n      0x20\n        /* \"#utility.yul\":1570:1571   */\n      dup2\n        /* \"#utility.yul\":1566:1576   */\n      add\n        /* \"#utility.yul\":1561:1576   */\n      swap1\n      pop\n        /* \"#utility.yul\":1537:1650   */\n      jump(tag_195)\n    tag_197:\n        /* \"#utility.yul\":1684:1685   */\n      0x00\n        /* \"#utility.yul\":1675:1681   */\n      dup5\n        /* \"#utility.yul\":1670:1673   */\n      dup5\n        /* \"#utility.yul\":1666:1682   */\n      add\n        /* \"#utility.yul\":1659:1686   */\n      mstore\n        /* \"#utility.yul\":1508:1692   */\n      pop\n        /* \"#utility.yul\":1446:1692   */\n      pop\n      pop\n      pop\n      jump\t// out\n        /* \"#utility.yul\":1698:1800   */\n    tag_137:\n        /* \"#utility.yul\":1739:1745   */\n      0x00\n        /* \"#utility.yul\":1790:1792   */\n      0x1f\n        /* \"#utility.yul\":1786:1793   */\n      not\n        /* \"#utility.yul\":1781:1783   */\n      0x1f\n        /* \"#utility.yul\":1774:1779   */\n      dup4\n        /* \"#utility.yul\":1770:1784   */\n      add\n        /* \"#utility.yul\":1766:1794   */\n      and\n        /* \"#utility.yul\":1756:1794   */\n      swap1\n      pop\n        /* \"#utility.yul\":1698:1800   */\n      swap2\n      swap1\n      pop\n      jump\t// out\n        /* \"#utility.yul\":1806:2163   */\n    tag_138:\n        /* \"#utility.yul\":1884:1887   */\n      0x00\n        /* \"#utility.yul\":1912:1951   */\n      tag_200\n        /* \"#utility.yul\":1945:1950   */\n      dup3\n        /* \"#utility.yul\":1912:1951   */\n      tag_134\n      jump\t// in\n    tag_200:\n        /* \"#utility.yul\":1967:2028   */\n      tag_201\n        /* \"#utility.yul\":2021:2027   */\n      dup2\n        /* \"#utility.yul\":2016:2019   */\n      dup6\n        /* \"#utility.yul\":1967:2028   */\n      tag_135\n      jump\t// in\n    tag_201:\n        /* \"#utility.yul\":1960:2028   */\n      swap4\n      pop\n        /* \"#utility.yul\":2037:2102   */\n      tag_202\n        /* \"#utility.yul\":2095:2101   */\n      dup2\n        /* \"#utility.yul\":2090:2093   */\n      dup6\n        /* \"#utility.yul\":2083:2087   */\n      0x20\n        /* \"#utility.yul\":2076:2081   */\n      dup7\n        /* \"#utility.yul\":2072:2088   */\n      add\n        /* \"#utility.yul\":2037:2102   */\n      tag_136\n      jump\t// in\n    tag_202:\n        /* \"#utility.yul\":2127:2156   */\n      tag_203\n        /* \"#utility.yul\":2149:2155   */\n      dup2\n        /* \"#utility.yul\":2127:2156   */\n      tag_137\n      jump\t// in\n    tag_203:\n        /* \"#utility.yul\":2122:2125   */\n      dup5\n        /* \"#utility.yul\":2118:2157   */\n      add\n        /* \"#utility.yul\":2111:2157   */\n      swap2\n      pop\n        /* \"#utility.yul\":1888:2163   */\n      pop\n        /* \"#utility.yul\":1806:2163   */\n      swap3\n      swap2\n      pop\n      pop\n      jump\t// out\n        /* \"#utility.yul\":2169:2246   */\n    tag_139:\n        /* \"#utility.yul\":2206:2213   */\n      0x00\n        /* \"#utility.yul\":2235:2240   */\n      dup2\n        /* \"#utility.yul\":2224:2240   */\n      swap1\n      pop\n        /* \"#utility.yul\":2169:2246   */\n      swap2\n      swap1\n      pop\n      jump\t// out\n        /* \"#utility.yul\":2252:2360   */\n    tag_140:\n        /* \"#utility.yul\":2329:2353   */\n      tag_206\n        /* \"#utility.yul\":2347:2352   */\n      dup2\n        /* \"#utility.yul\":2329:2353   */\n      tag_139\n      jump\t// in\n    tag_206:\n        /* \"#utility.yul\":2324:2327   */\n      dup3\n        /* \"#utility.yul\":2317:2354   */\n      mstore\n        /* \"#utility.yul\":2252:2360   */\n      pop\n      pop\n      jump\t// out\n        /* \"#utility.yul\":2366:2456   */\n    tag_141:\n        /* \"#utility.yul\":2400:2407   */\n      0x00\n        /* \"#utility.yul\":2443:2448   */\n      dup2\n        /* \"#utility.yul\":2436:2449   */\n      iszero\n        /* \"#utility.yul\":2429:2450   */\n      iszero\n        /* \"#utility.yul\":2418:2450   */\n      swap1\n      pop\n        /* \"#utility.yul\":2366:2456   */\n      swap2\n      swap1\n      pop\n      jump\t// out\n        /* \"#utility.yul\":2462:2561   */\n    tag_142:\n        /* \"#utility.yul\":2533:2554   */\n      tag_209\n        /* \"#utility.yul\":2548:2553   */\n      dup2\n        /* \"#utility.yul\":2533:2554   */\n      tag_141\n      jump\t// in\n    tag_209:\n        /* \"#utility.yul\":2528:2531   */\n      dup3\n        /* \"#utility.yul\":2521:2555   */\n      mstore\n        /* \"#utility.yul\":2462:2561   */\n      pop\n      pop\n      jump\t// out\n        /* \"#utility.yul\":2643:4144   */\n    tag_143:\n        /* \"#utility.yul\":2760:2763   */\n      0x00\n        /* \"#utility.yul\":2796:2800   */\n      0xe0\n        /* \"#utility.yul\":2791:2794   */\n      dup4\n        /* \"#utility.yul\":2787:2801   */\n      add\n        /* \"#utility.yul\":2890:2894   */\n      0x00\n        /* \"#utility.yul\":2883:2888   */\n      dup4\n        /* \"#utility.yul\":2879:2895   */\n      add\n        /* \"#utility.yul\":2873:2896   */\n      mload\n        /* \"#utility.yul\":2943:2946   */\n      dup5\n        /* \"#utility.yul\":2937:2941   */\n      dup3\n        /* \"#utility.yul\":2933:2947   */\n      sub\n        /* \"#utility.yul\":2926:2930   */\n      0x00\n        /* \"#utility.yul\":2921:2924   */\n      dup7\n        /* \"#utility.yul\":2917:2931   */\n      add\n        /* \"#utility.yul\":2910:2948   */\n      mstore\n        /* \"#utility.yul\":2969:3042   */\n      tag_211\n        /* \"#utility.yul\":3037:3041   */\n      dup3\n        /* \"#utility.yul\":3023:3035   */\n      dup3\n        /* \"#utility.yul\":2969:3042   */\n      tag_138\n      jump\t// in\n    tag_211:\n        /* \"#utility.yul\":2961:3042   */\n      swap2\n      pop\n        /* \"#utility.yul\":2811:3053   */\n      pop\n        /* \"#utility.yul\":3138:3142   */\n      0x20\n        /* \"#utility.yul\":3131:3136   */\n      dup4\n        /* \"#utility.yul\":3127:3143   */\n      add\n        /* \"#utility.yul\":3121:3144   */\n      mload\n        /* \"#utility.yul\":3157:3220   */\n      tag_212\n        /* \"#utility.yul\":3214:3218   */\n      0x20\n        /* \"#utility.yul\":3209:3212   */\n      dup7\n        /* \"#utility.yul\":3205:3219   */\n      add\n        /* \"#utility.yul\":3191:3203   */\n      dup3\n        /* \"#utility.yul\":3157:3220   */\n      tag_140\n      jump\t// in\n    tag_212:\n        /* \"#utility.yul\":3063:3230   */\n      pop\n        /* \"#utility.yul\":3314:3318   */\n      0x40\n        /* \"#utility.yul\":3307:3312   */\n      dup4\n        /* \"#utility.yul\":3303:3319   */\n      add\n        /* \"#utility.yul\":3297:3320   */\n      mload\n        /* \"#utility.yul\":3333:3396   */\n      tag_213\n        /* \"#utility.yul\":3390:3394   */\n      0x40\n        /* \"#utility.yul\":3385:3388   */\n      dup7\n        /* \"#utility.yul\":3381:3395   */\n      add\n        /* \"#utility.yul\":3367:3379   */\n      dup3\n        /* \"#utility.yul\":3333:3396   */\n      tag_140\n      jump\t// in\n    tag_213:\n        /* \"#utility.yul\":3240:3406   */\n      pop\n        /* \"#utility.yul\":3488:3492   */\n      0x60\n        /* \"#utility.yul\":3481:3486   */\n      dup4\n        /* \"#utility.yul\":3477:3493   */\n      add\n        /* \"#utility.yul\":3471:3494   */\n      mload\n        /* \"#utility.yul\":3507:3570   */\n      tag_214\n        /* \"#utility.yul\":3564:3568   */\n      0x60\n        /* \"#utility.yul\":3559:3562   */\n      dup7\n        /* \"#utility.yul\":3555:3569   */\n      add\n        /* \"#utility.yul\":3541:3553   */\n      dup3\n        /* \"#utility.yul\":3507:3570   */\n      tag_140\n      jump\t// in\n    tag_214:\n        /* \"#utility.yul\":3416:3580   */\n      pop\n        /* \"#utility.yul\":3675:3679   */\n      0x80\n        /* \"#utility.yul\":3668:3673   */\n      dup4\n        /* \"#utility.yul\":3664:3680   */\n      add\n        /* \"#utility.yul\":3658:3681   */\n      mload\n        /* \"#utility.yul\":3694:3757   */\n      tag_215\n        /* \"#utility.yul\":3751:3755   */\n      0x80\n        /* \"#utility.yul\":3746:3749   */\n      dup7\n        /* \"#utility.yul\":3742:3756   */\n      add\n        /* \"#utility.yul\":3728:3740   */\n      dup3\n        /* \"#utility.yul\":3694:3757   */\n      tag_140\n      jump\t// in\n    tag_215:\n        /* \"#utility.yul\":3590:3767   */\n      pop\n        /* \"#utility.yul\":3858:3862   */\n      0xa0\n        /* \"#utility.yul\":3851:3856   */\n      dup4\n        /* \"#utility.yul\":3847:3863   */\n      add\n        /* \"#utility.yul\":3841:3864   */\n      mload\n        /* \"#utility.yul\":3877:3934   */\n      tag_216\n        /* \"#utility.yul\":3928:3932   */\n      0xa0\n        /* \"#utility.yul\":3923:3926   */\n      dup7\n        /* \"#utility.yul\":3919:3933   */\n      add\n        /* \"#utility.yul\":3905:3917   */\n      dup3\n        /* \"#utility.yul\":3877:3934   */\n      tag_142\n      jump\t// in\n    tag_216:\n        /* \"#utility.yul\":3777:3944   */\n      pop\n        /* \"#utility.yul\":4031:4035   */\n      0xc0\n        /* \"#utility.yul\":4024:4029   */\n      dup4\n        /* \"#utility.yul\":4020:4036   */\n      add\n        /* \"#utility.yul\":4014:4037   */\n      mload\n        /* \"#utility.yul\":4050:4107   */\n      tag_217\n        /* \"#utility.yul\":4101:4105   */\n      0xc0\n        /* \"#utility.yul\":4096:4099   */\n      dup7\n        /* \"#utility.yul\":4092:4106   */\n      add\n        /* \"#utility.yul\":4078:4090   */\n      dup3\n        /* \"#utility.yul\":4050:4107   */\n      tag_142\n      jump\t// in\n    tag_217:\n        /* \"#utility.yul\":3954:4117   */\n      pop\n        /* \"#utility.yul\":4134:4138   */\n      dup1\n        /* \"#utility.yul\":4127:4138   */\n      swap2\n      pop\n        /* \"#utility.yul\":2765:4144   */\n      pop\n        /* \"#utility.yul\":2643:4144   */\n      swap3\n      swap2\n      pop\n      pop\n      jump\t// out\n        /* \"#utility.yul\":4150:4519   */\n    tag_18:\n        /* \"#utility.yul\":4291:4295   */\n      0x00\n        /* \"#utility.yul\":4329:4331   */\n      0x20\n        /* \"#utility.yul\":4318:4327   */\n      dup3\n        /* \"#utility.yul\":4314:4332   */\n      add\n        /* \"#utility.yul\":4306:4332   */\n      swap1\n      pop\n        /* \"#utility.yul\":4378:4387   */\n      dup2\n        /* \"#utility.yul\":4372:4376   */\n      dup2\n        /* \"#utility.yul\":4368:4388   */\n      sub\n        /* \"#utility.yul\":4364:4365   */\n      0x00\n        /* \"#utility.yul\":4353:4362   */\n      dup4\n        /* \"#utility.yul\":4349:4366   */\n      add\n        /* \"#utility.yul\":4342:4389   */\n      mstore\n        /* \"#utility.yul\":4406:4512   */\n      tag_219\n        /* \"#utility.yul\":4507:4511   */\n      dup2\n        /* \"#utility.yul\":4498:4504   */\n      dup5\n        /* \"#utility.yul\":4406:4512   */\n      tag_143\n      jump\t// in\n    tag_219:\n        /* \"#utility.yul\":4398:4512   */\n      swap1\n      pop\n        /* \"#utility.yul\":4150:4519   */\n      swap3\n      swap2\n      pop\n      pop\n      jump\t// out\n        /* \"#utility.yul\":4525:4642   */\n    tag_144:\n        /* \"#utility.yul\":4634:4635   */\n      0x00\n        /* \"#utility.yul\":4631:4632   */\n      dup1\n        /* \"#utility.yul\":4624:4636   */\n      revert\n        /* \"#utility.yul\":4648:4765   */\n    tag_145:\n        /* \"#utility.yul\":4757:4758   */\n      0x00\n        /* \"#utility.yul\":4754:4755   */\n      dup1\n        /* \"#utility.yul\":4747:4759   */\n      revert\n        /* \"#utility.yul\":4771:4888   */\n    tag_146:\n        /* \"#utility.yul\":4880:4881   */\n      0x00\n        /* \"#utility.yul\":4877:4878   */\n      dup1\n        /* \"#utility.yul\":4870:4882   */\n      revert\n        /* \"#utility.yul\":4908:5461   */\n    tag_147:\n        /* \"#utility.yul\":4966:4974   */\n      0x00\n        /* \"#utility.yul\":4976:4982   */\n      dup1\n        /* \"#utility.yul\":5026:5029   */\n      dup4\n        /* \"#utility.yul\":5019:5023   */\n      0x1f\n        /* \"#utility.yul\":5011:5017   */\n      dup5\n        /* \"#utility.yul\":5007:5024   */\n      add\n        /* \"#utility.yul\":5003:5030   */\n      slt\n        /* \"#utility.yul\":4993:5115   */\n      tag_224\n      jumpi\n        /* \"#utility.yul\":5034:5113   */\n      tag_225\n      tag_144\n      jump\t// in\n    tag_225:\n        /* \"#utility.yul\":4993:5115   */\n    tag_224:\n        /* \"#utility.yul\":5147:5153   */\n      dup3\n        /* \"#utility.yul\":5134:5154   */\n      calldataload\n        /* \"#utility.yul\":5124:5154   */\n      swap1\n      pop\n        /* \"#utility.yul\":5177:5195   */\n      0xffffffffffffffff\n        /* \"#utility.yul\":5169:5175   */\n      dup2\n        /* \"#utility.yul\":5166:5196   */\n      gt\n        /* \"#utility.yul\":5163:5280   */\n      iszero\n      tag_226\n      jumpi\n        /* \"#utility.yul\":5199:5278   */\n      tag_227\n      tag_145\n      jump\t// in\n    tag_227:\n        /* \"#utility.yul\":5163:5280   */\n    tag_226:\n        /* \"#utility.yul\":5313:5317   */\n      0x20\n        /* \"#utility.yul\":5305:5311   */\n      dup4\n        /* \"#utility.yul\":5301:5318   */\n      add\n        /* \"#utility.yul\":5289:5318   */\n      swap2\n      pop\n        /* \"#utility.yul\":5367:5370   */\n      dup4\n        /* \"#utility.yul\":5359:5363   */\n      0x01\n        /* \"#utility.yul\":5351:5357   */\n      dup3\n        /* \"#utility.yul\":5347:5364   */\n      mul\n        /* \"#utility.yul\":5337:5345   */\n      dup4\n        /* \"#utility.yul\":5333:5365   */\n      add\n        /* \"#utility.yul\":5330:5371   */\n      gt\n        /* \"#utility.yul\":5327:5455   */\n      iszero\n      tag_228\n      jumpi\n        /* \"#utility.yul\":5374:5453   */\n      tag_229\n      tag_146\n      jump\t// in\n    tag_229:\n        /* \"#utility.yul\":5327:5455   */\n    tag_228:\n        /* \"#utility.yul\":4908:5461   */\n      swap3\n      pop\n      swap3\n      swap1\n      pop\n      jump\t// out\n        /* \"#utility.yul\":5467:5589   */\n    tag_148:\n        /* \"#utility.yul\":5540:5564   */\n      tag_231\n        /* \"#utility.yul\":5558:5563   */\n      dup2\n        /* \"#utility.yul\":5540:5564   */\n      tag_139\n      jump\t// in\n    tag_231:\n        /* \"#utility.yul\":5533:5538   */\n      dup2\n        /* \"#utility.yul\":5530:5565   */\n      eq\n        /* \"#utility.yul\":5520:5583   */\n      tag_232\n      jumpi\n        /* \"#utility.yul\":5579:5580   */\n      0x00\n        /* \"#utility.yul\":5576:5577   */\n      dup1\n        /* \"#utility.yul\":5569:5581   */\n      revert\n        /* \"#utility.yul\":5520:5583   */\n    tag_232:\n        /* \"#utility.yul\":5467:5589   */\n      pop\n      jump\t// out\n        /* \"#utility.yul\":5595:5734   */\n    tag_149:\n        /* \"#utility.yul\":5641:5646   */\n      0x00\n        /* \"#utility.yul\":5679:5685   */\n      dup2\n        /* \"#utility.yul\":5666:5686   */\n      calldataload\n        /* \"#utility.yul\":5657:5686   */\n      swap1\n      pop\n        /* \"#utility.yul\":5695:5728   */\n      tag_234\n        /* \"#utility.yul\":5722:5727   */\n      dup2\n        /* \"#utility.yul\":5695:5728   */\n      tag_148\n      jump\t// in\n    tag_234:\n        /* \"#utility.yul\":5595:5734   */\n      swap3\n      swap2\n      pop\n      pop\n      jump\t// out\n        /* \"#utility.yul\":5740:6414   */\n    tag_21:\n        /* \"#utility.yul\":5820:5826   */\n      0x00\n        /* \"#utility.yul\":5828:5834   */\n      dup1\n        /* \"#utility.yul\":5836:5842   */\n      0x00\n        /* \"#utility.yul\":5885:5887   */\n      0x40\n        /* \"#utility.yul\":5873:5882   */\n      dup5\n        /* \"#utility.yul\":5864:5871   */\n      dup7\n        /* \"#utility.yul\":5860:5883   */\n      sub\n        /* \"#utility.yul\":5856:5888   */\n      slt\n        /* \"#utility.yul\":5853:5972   */\n      iszero\n      tag_236\n      jumpi\n        /* \"#utility.yul\":5891:5970   */\n      tag_237\n      tag_128\n      jump\t// in\n    tag_237:\n        /* \"#utility.yul\":5853:5972   */\n    tag_236:\n        /* \"#utility.yul\":6039:6040   */\n      0x00\n        /* \"#utility.yul\":6028:6037   */\n      dup5\n        /* \"#utility.yul\":6024:6041   */\n      add\n        /* \"#utility.yul\":6011:6042   */\n      calldataload\n        /* \"#utility.yul\":6069:6087   */\n      0xffffffffffffffff\n        /* \"#utility.yul\":6061:6067   */\n      dup2\n        /* \"#utility.yul\":6058:6088   */\n      gt\n        /* \"#utility.yul\":6055:6172   */\n      iszero\n      tag_238\n      jumpi\n        /* \"#utility.yul\":6091:6170   */\n      tag_239\n      tag_129\n      jump\t// in\n    tag_239:\n        /* \"#utility.yul\":6055:6172   */\n    tag_238:\n        /* \"#utility.yul\":6204:6269   */\n      tag_240\n        /* \"#utility.yul\":6261:6268   */\n      dup7\n        /* \"#utility.yul\":6252:6258   */\n      dup3\n        /* \"#utility.yul\":6241:6250   */\n      dup8\n        /* \"#utility.yul\":6237:6259   */\n      add\n        /* \"#utility.yul\":6204:6269   */\n      tag_147\n      jump\t// in\n    tag_240:\n        /* \"#utility.yul\":6186:6269   */\n      swap4\n      pop\n      swap4\n      pop\n        /* \"#utility.yul\":5982:6279   */\n      pop\n        /* \"#utility.yul\":6318:6320   */\n      0x20\n        /* \"#utility.yul\":6344:6397   */\n      tag_241\n        /* \"#utility.yul\":6389:6396   */\n      dup7\n        /* \"#utility.yul\":6380:6386   */\n      dup3\n        /* \"#utility.yul\":6369:6378   */\n      dup8\n        /* \"#utility.yul\":6365:6387   */\n      add\n        /* \"#utility.yul\":6344:6397   */\n      tag_149\n      jump\t// in\n    tag_241:\n        /* \"#utility.yul\":6334:6397   */\n      swap2\n      pop\n        /* \"#utility.yul\":6289:6407   */\n      pop\n        /* \"#utility.yul\":5740:6414   */\n      swap3\n      pop\n      swap3\n      pop\n      swap3\n      jump\t// out\n        /* \"#utility.yul\":6420:6506   */\n    tag_150:\n        /* \"#utility.yul\":6455:6462   */\n      0x00\n        /* \"#utility.yul\":6495:6499   */\n      0xff\n        /* \"#utility.yul\":6488:6493   */\n      dup3\n        /* \"#utility.yul\":6484:6500   */\n      and\n        /* \"#utility.yul\":6473:6500   */\n      swap1\n      pop\n        /* \"#utility.yul\":6420:6506   */\n      swap2\n      swap1\n      pop\n      jump\t// out\n        /* \"#utility.yul\":6512:6630   */\n    tag_151:\n        /* \"#utility.yul\":6583:6605   */\n      tag_244\n        /* \"#utility.yul\":6599:6604   */\n      dup2\n        /* \"#utility.yul\":6583:6605   */\n      tag_150\n      jump\t// in\n    tag_244:\n        /* \"#utility.yul\":6576:6581   */\n      dup2\n        /* \"#utility.yul\":6573:6606   */\n      eq\n        /* \"#utility.yul\":6563:6624   */\n      tag_245\n      jumpi\n        /* \"#utility.yul\":6620:6621   */\n      0x00\n        /* \"#utility.yul\":6617:6618   */\n      dup1\n        /* \"#utility.yul\":6610:6622   */\n      revert\n        /* \"#utility.yul\":6563:6624   */\n    tag_245:\n        /* \"#utility.yul\":6512:6630   */\n      pop\n      jump\t// out\n        /* \"#utility.yul\":6636:6771   */\n    tag_152:\n        /* \"#utility.yul\":6680:6685   */\n      0x00\n        /* \"#utility.yul\":6718:6724   */\n      dup2\n        /* \"#utility.yul\":6705:6725   */\n      calldataload\n        /* \"#utility.yul\":6696:6725   */\n      swap1\n      pop\n        /* \"#utility.yul\":6734:6765   */\n      tag_247\n        /* \"#utility.yul\":6759:6764   */\n      dup2\n        /* \"#utility.yul\":6734:6765   */\n      tag_151\n      jump\t// in\n    tag_247:\n        /* \"#utility.yul\":6636:6771   */\n      swap3\n      swap2\n      pop\n      pop\n      jump\t// out\n        /* \"#utility.yul\":6777:7102   */\n    tag_25:\n        /* \"#utility.yul\":6834:6840   */\n      0x00\n        /* \"#utility.yul\":6883:6885   */\n      0x20\n        /* \"#utility.yul\":6871:6880   */\n      dup3\n        /* \"#utility.yul\":6862:6869   */\n      dup5\n        /* \"#utility.yul\":6858:6881   */\n      sub\n        /* \"#utility.yul\":6854:6886   */\n      slt\n        /* \"#utility.yul\":6851:6970   */\n      iszero\n      tag_249\n      jumpi\n        /* \"#utility.yul\":6889:6968   */\n      tag_250\n      tag_128\n      jump\t// in\n    tag_250:\n        /* \"#utility.yul\":6851:6970   */\n    tag_249:\n        /* \"#utility.yul\":7009:7010   */\n      0x00\n        /* \"#utility.yul\":7034:7085   */\n      tag_251\n        /* \"#utility.yul\":7077:7084   */\n      dup5\n        /* \"#utility.yul\":7068:7074   */\n      dup3\n        /* \"#utility.yul\":7057:7066   */\n      dup6\n        /* \"#utility.yul\":7053:7075   */\n      add\n        /* \"#utility.yul\":7034:7085   */\n      tag_152\n      jump\t// in\n    tag_251:\n        /* \"#utility.yul\":7024:7085   */\n      swap2\n      pop\n        /* \"#utility.yul\":6980:7095   */\n      pop\n        /* \"#utility.yul\":6777:7102   */\n      swap3\n      swap2\n      pop\n      pop\n      jump\t// out\n        /* \"#utility.yul\":7108:7437   */\n    tag_29:\n        /* \"#utility.yul\":7167:7173   */\n      0x00\n        /* \"#utility.yul\":7216:7218   */\n      0x20\n        /* \"#utility.yul\":7204:7213   */\n      dup3\n        /* \"#utility.yul\":7195:7202   */\n      dup5\n        /* \"#utility.yul\":7191:7214   */\n      sub\n        /* \"#utility.yul\":7187:7219   */\n      slt\n        /* \"#utility.yul\":7184:7303   */\n      iszero\n      tag_253\n      jumpi\n        /* \"#utility.yul\":7222:7301   */\n      tag_254\n      tag_128\n      jump\t// in\n    tag_254:\n        /* \"#utility.yul\":7184:7303   */\n    tag_253:\n        /* \"#utility.yul\":7342:7343   */\n      0x00\n        /* \"#utility.yul\":7367:7420   */\n      tag_255\n        /* \"#utility.yul\":7412:7419   */\n      dup5\n        /* \"#utility.yul\":7403:7409   */\n      dup3\n        /* \"#utility.yul\":7392:7401   */\n      dup6\n        /* \"#utility.yul\":7388:7410   */\n      add\n        /* \"#utility.yul\":7367:7420   */\n      tag_149\n      jump\t// in\n    tag_255:\n        /* \"#utility.yul\":7357:7420   */\n      swap2\n      pop\n        /* \"#utility.yul\":7313:7430   */\n      pop\n        /* \"#utility.yul\":7108:7437   */\n      swap3\n      swap2\n      pop\n      pop\n      jump\t// out\n        /* \"#utility.yul\":7443:7552   */\n    tag_153:\n        /* \"#utility.yul\":7524:7545   */\n      tag_257\n        /* \"#utility.yul\":7539:7544   */\n      dup2\n        /* \"#utility.yul\":7524:7545   */\n      tag_141\n      jump\t// in\n    tag_257:\n        /* \"#utility.yul\":7519:7522   */\n      dup3\n        /* \"#utility.yul\":7512:7546   */\n      mstore\n        /* \"#utility.yul\":7443:7552   */\n      pop\n      pop\n      jump\t// out\n        /* \"#utility.yul\":7558:7768   */\n    tag_36:\n        /* \"#utility.yul\":7645:7649   */\n      0x00\n        /* \"#utility.yul\":7683:7685   */\n      0x20\n        /* \"#utility.yul\":7672:7681   */\n      dup3\n        /* \"#utility.yul\":7668:7686   */\n      add\n        /* \"#utility.yul\":7660:7686   */\n      swap1\n      pop\n        /* \"#utility.yul\":7696:7761   */\n      tag_259\n        /* \"#utility.yul\":7758:7759   */\n      0x00\n        /* \"#utility.yul\":7747:7756   */\n      dup4\n        /* \"#utility.yul\":7743:7760   */\n      add\n        /* \"#utility.yul\":7734:7740   */\n      dup5\n        /* \"#utility.yul\":7696:7761   */\n      tag_153\n      jump\t// in\n    tag_259:\n        /* \"#utility.yul\":7558:7768   */\n      swap3\n      swap2\n      pop\n      pop\n      jump\t// out\n        /* \"#utility.yul\":7774:7954   */\n    tag_154:\n        /* \"#utility.yul\":7822:7899   */\n      0x4e487b7100000000000000000000000000000000000000000000000000000000\n        /* \"#utility.yul\":7819:7820   */\n      0x00\n        /* \"#utility.yul\":7812:7900   */\n      mstore\n        /* \"#utility.yul\":7919:7923   */\n      0x22\n        /* \"#utility.yul\":7916:7917   */\n      0x04\n        /* \"#utility.yul\":7909:7924   */\n      mstore\n        /* \"#utility.yul\":7943:7947   */\n      0x24\n        /* \"#utility.yul\":7940:7941   */\n      0x00\n        /* \"#utility.yul\":7933:7948   */\n      revert\n        /* \"#utility.yul\":7960:8280   */\n    tag_46:\n        /* \"#utility.yul\":8004:8010   */\n      0x00\n        /* \"#utility.yul\":8041:8042   */\n      0x02\n        /* \"#utility.yul\":8035:8039   */\n      dup3\n        /* \"#utility.yul\":8031:8043   */\n      div\n        /* \"#utility.yul\":8021:8043   */\n      swap1\n      pop\n        /* \"#utility.yul\":8088:8089   */\n      0x01\n        /* \"#utility.yul\":8082:8086   */\n      dup3\n        /* \"#utility.yul\":8078:8090   */\n      and\n        /* \"#utility.yul\":8109:8127   */\n      dup1\n        /* \"#utility.yul\":8099:8180   */\n      tag_262\n      jumpi\n        /* \"#utility.yul\":8165:8169   */\n      0x7f\n        /* \"#utility.yul\":8157:8163   */\n      dup3\n        /* \"#utility.yul\":8153:8170   */\n      and\n        /* \"#utility.yul\":8143:8170   */\n      swap2\n      pop\n        /* \"#utility.yul\":8099:8180   */\n    tag_262:\n        /* \"#utility.yul\":8227:8229   */\n      0x20\n        /* \"#utility.yul\":8219:8225   */\n      dup3\n        /* \"#utility.yul\":8216:8230   */\n      lt\n        /* \"#utility.yul\":8196:8214   */\n      dup2\n        /* \"#utility.yul\":8193:8231   */\n      sub\n        /* \"#utility.yul\":8190:8274   */\n      tag_263\n      jumpi\n        /* \"#utility.yul\":8246:8264   */\n      tag_264\n      tag_154\n      jump\t// in\n    tag_264:\n        /* \"#utility.yul\":8190:8274   */\n    tag_263:\n        /* \"#utility.yul\":8011:8280   */\n      pop\n        /* \"#utility.yul\":7960:8280   */\n      swap2\n      swap1\n      pop\n      jump\t// out\n        /* \"#utility.yul\":8286:8466   */\n    tag_155:\n        /* \"#utility.yul\":8334:8411   */\n      0x4e487b7100000000000000000000000000000000000000000000000000000000\n        /* \"#utility.yul\":8331:8332   */\n      0x00\n        /* \"#utility.yul\":8324:8412   */\n      mstore\n        /* \"#utility.yul\":8431:8435   */\n      0x11\n        /* \"#utility.yul\":8428:8429   */\n      0x04\n        /* \"#utility.yul\":8421:8436   */\n      mstore\n        /* \"#utility.yul\":8455:8459   */\n      0x24\n        /* \"#utility.yul\":8452:8453   */\n      0x00\n        /* \"#utility.yul\":8445:8460   */\n      revert\n        /* \"#utility.yul\":8472:8663   */\n    tag_55:\n        /* \"#utility.yul\":8512:8515   */\n      0x00\n        /* \"#utility.yul\":8531:8551   */\n      tag_267\n        /* \"#utility.yul\":8549:8550   */\n      dup3\n        /* \"#utility.yul\":8531:8551   */\n      tag_139\n      jump\t// in\n    tag_267:\n        /* \"#utility.yul\":8526:8551   */\n      swap2\n      pop\n        /* \"#utility.yul\":8565:8585   */\n      tag_268\n        /* \"#utility.yul\":8583:8584   */\n      dup4\n        /* \"#utility.yul\":8565:8585   */\n      tag_139\n      jump\t// in\n    tag_268:\n        /* \"#utility.yul\":8560:8585   */\n      swap3\n      pop\n        /* \"#utility.yul\":8608:8609   */\n      dup3\n        /* \"#utility.yul\":8605:8606   */\n      dup3\n        /* \"#utility.yul\":8601:8610   */\n      add\n        /* \"#utility.yul\":8594:8610   */\n      swap1\n      pop\n        /* \"#utility.yul\":8629:8632   */\n      dup1\n        /* \"#utility.yul\":8626:8627   */\n      dup3\n        /* \"#utility.yul\":8623:8633   */\n      gt\n        /* \"#utility.yul\":8620:8656   */\n      iszero\n      tag_269\n      jumpi\n        /* \"#utility.yul\":8636:8654   */\n      tag_270\n      tag_155\n      jump\t// in\n    tag_270:\n        /* \"#utility.yul\":8620:8656   */\n    tag_269:\n        /* \"#utility.yul\":8472:8663   */\n      swap3\n      swap2\n      pop\n      pop\n      jump\t// out\n        /* \"#utility.yul\":8669:8849   */\n    tag_156:\n        /* \"#utility.yul\":8717:8794   */\n      0x4e487b7100000000000000000000000000000000000000000000000000000000\n        /* \"#utility.yul\":8714:8715   */\n      0x00\n        /* \"#utility.yul\":8707:8795   */\n      mstore\n        /* \"#utility.yul\":8814:8818   */\n      0x41\n        /* \"#utility.yul\":8811:8812   */\n      0x04\n        /* \"#utility.yul\":8804:8819   */\n      mstore\n        /* \"#utility.yul\":8838:8842   */\n      0x24\n        /* \"#utility.yul\":8835:8836   */\n      0x00\n        /* \"#utility.yul\":8828:8843   */\n      revert\n        /* \"#utility.yul\":8855:8996   */\n    tag_157:\n        /* \"#utility.yul\":8904:8908   */\n      0x00\n        /* \"#utility.yul\":8927:8930   */\n      dup2\n        /* \"#utility.yul\":8919:8930   */\n      swap1\n      pop\n        /* \"#utility.yul\":8950:8953   */\n      dup2\n        /* \"#utility.yul\":8947:8948   */\n      0x00\n        /* \"#utility.yul\":8940:8954   */\n      mstore\n        /* \"#utility.yul\":8984:8988   */\n      0x20\n        /* \"#utility.yul\":8981:8982   */\n      0x00\n        /* \"#utility.yul\":8971:8989   */\n      keccak256\n        /* \"#utility.yul\":8963:8989   */\n      swap1\n      pop\n        /* \"#utility.yul\":8855:8996   */\n      swap2\n      swap1\n      pop\n      jump\t// out\n        /* \"#utility.yul\":9002:9095   */\n    tag_158:\n        /* \"#utility.yul\":9039:9045   */\n      0x00\n        /* \"#utility.yul\":9086:9088   */\n      0x20\n        /* \"#utility.yul\":9081:9083   */\n      0x1f\n        /* \"#utility.yul\":9074:9079   */\n      dup4\n        /* \"#utility.yul\":9070:9084   */\n      add\n        /* \"#utility.yul\":9066:9089   */\n      div\n        /* \"#utility.yul\":9056:9089   */\n      swap1\n      pop\n        /* \"#utility.yul\":9002:9095   */\n      swap2\n      swap1\n      pop\n      jump\t// out\n        /* \"#utility.yul\":9101:9208   */\n    tag_159:\n        /* \"#utility.yul\":9145:9153   */\n      0x00\n        /* \"#utility.yul\":9195:9200   */\n      dup3\n        /* \"#utility.yul\":9189:9193   */\n      dup3\n        /* \"#utility.yul\":9185:9201   */\n      shl\n        /* \"#utility.yul\":9164:9201   */\n      swap1\n      pop\n        /* \"#utility.yul\":9101:9208   */\n      swap3\n      swap2\n      pop\n      pop\n      jump\t// out\n        /* \"#utility.yul\":9214:9607   */\n    tag_160:\n        /* \"#utility.yul\":9283:9289   */\n      0x00\n        /* \"#utility.yul\":9333:9334   */\n      0x08\n        /* \"#utility.yul\":9321:9331   */\n      dup4\n        /* \"#utility.yul\":9317:9335   */\n      mul\n        /* \"#utility.yul\":9356:9453   */\n      tag_276\n        /* \"#utility.yul\":9386:9452   */\n      0xffffffffffffffffffffffffffffffffffffffffffffffffffffffffffffffff\n        /* \"#utility.yul\":9375:9384   */\n      dup3\n        /* \"#utility.yul\":9356:9453   */\n      tag_159\n      jump\t// in\n    tag_276:\n        /* \"#utility.yul\":9474:9513   */\n      tag_277\n        /* \"#utility.yul\":9504:9512   */\n      dup7\n        /* \"#utility.yul\":9493:9502   */\n      dup4\n        /* \"#utility.yul\":9474:9513   */\n      tag_159\n      jump\t// in\n    tag_277:\n        /* \"#utility.yul\":9462:9513   */\n      swap6\n      pop\n        /* \"#utility.yul\":9546:9550   */\n      dup1\n        /* \"#utility.yul\":9542:9551   */\n      not\n        /* \"#utility.yul\":9535:9540   */\n      dup5\n        /* \"#utility.yul\":9531:9552   */\n      and\n        /* \"#utility.yul\":9522:9552   */\n      swap4\n      pop\n        /* \"#utility.yul\":9595:9599   */\n      dup1\n        /* \"#utility.yul\":9585:9593   */\n      dup7\n        /* \"#utility.yul\":9581:9600   */\n      and\n        /* \"#utility.yul\":9574:9579   */\n      dup5\n        /* \"#utility.yul\":9571:9601   */\n      or\n        /* \"#utility.yul\":9561:9601   */\n      swap3\n      pop\n        /* \"#utility.yul\":9290:9607   */\n      pop\n      pop\n        /* \"#utility.yul\":9214:9607   */\n      swap4\n      swap3\n      pop\n      pop\n      pop\n      jump\t// out\n        /* \"#utility.yul\":9613:9673   */\n    tag_161:\n        /* \"#utility.yul\":9641:9644   */\n      0x00\n        /* \"#utility.yul\":9662:9667   */\n      dup2\n        /* \"#utility.yul\":9655:9667   */\n      swap1\n      pop\n        /* \"#utility.yul\":9613:9673   */\n      swap2\n      swap1\n      pop\n      jump\t// out\n        /* \"#utility.yul\":9679:9821   */\n    tag_162:\n        /* \"#utility.yul\":9729:9738   */\n      0x00\n        /* \"#utility.yul\":9762:9815   */\n      tag_280\n        /* \"#utility.yul\":9780:9814   */\n      tag_281\n        /* \"#utility.yul\":9789:9813   */\n      tag_282\n        /* \"#utility.yul\":9807:9812   */\n      dup5\n        /* \"#utility.yul\":9789:9813   */\n      tag_139\n      jump\t// in\n    tag_282:\n        /* \"#utility.yul\":9780:9814   */\n      tag_161\n      jump\t// in\n    tag_281:\n        /* \"#utility.yul\":9762:9815   */\n      tag_139\n      jump\t// in\n    tag_280:\n        /* \"#utility.yul\":9749:9815   */\n      swap1\n      pop\n        /* \"#utility.yul\":9679:9821   */\n      swap2\n      swap1\n      pop\n      jump\t// out\n        /* \"#utility.yul\":9827:9902   */\n    tag_163:\n        /* \"#utility.yul\":9870:9873   */\n      0x00\n        /* \"#utility.yul\":9891:9896   */\n      dup2\n        /* \"#utility.yul\":9884:9896   */\n      swap1\n      pop\n        /* \"#utility.yul\":9827:9902   */\n      swap2\n      swap1\n      pop\n      jump\t// out\n        /* \"#utility.yul\":9908:10177   */\n    tag_164:\n        /* \"#utility.yul\":10018:10057   */\n      tag_285\n        /* \"#utility.yul\":10049:10056   */\n      dup4\n        /* \"#utility.yul\":10018:10057   */\n      tag_162\n      jump\t// in\n    tag_285:\n        /* \"#utility.yul\":10079:10170   */\n      tag_286\n        /* \"#utility.yul\":10128:10169   */\n      tag_287\n        /* \"#utility.yul\":10152:10168   */\n      dup3\n        /* \"#utility.yul\":10128:10169   */\n      tag_163\n      jump\t// in\n    tag_287:\n        /* \"#utility.yul\":10120:10126   */\n      dup5\n        /* \"#utility.yul\":10113:10117   */\n      dup5\n        /* \"#utility.yul\":10107:10118   */\n      sload\n        /* \"#utility.yul\":10079:10170   */\n      tag_160\n      jump\t// in\n    tag_286:\n        /* \"#utility.yul\":10073:10077   */\n      dup3\n        /* \"#utility.yul\":10066:10171   */\n      sstore\n        /* \"#utility.yul\":9984:10177   */\n      pop\n        /* \"#utility.yul\":9908:10177   */\n      pop\n      pop\n      pop\n      jump\t// out\n        /* \"#utility.yul\":10183:10256   */\n    tag_165:\n        /* \"#utility.yul\":10228:10231   */\n      0x00\n        /* \"#utility.yul\":10183:10256   */\n      swap1\n      jump\t// out\n        /* \"#utility.yul\":10262:10451   */\n    tag_166:\n        /* \"#utility.yul\":10339:10371   */\n      tag_290\n      tag_165\n      jump\t// in\n    tag_290:\n        /* \"#utility.yul\":10380:10445   */\n      tag_291\n        /* \"#utility.yul\":10438:10444   */\n      dup2\n        /* \"#utility.yul\":10430:10436   */\n      dup5\n        /* \"#utility.yul\":10424:10428   */\n      dup5\n        /* \"#utility.yul\":10380:10445   */\n      tag_164\n      jump\t// in\n    tag_291:\n        /* \"#utility.yul\":10315:10451   */\n      pop\n        /* \"#utility.yul\":10262:10451   */\n      pop\n      pop\n      jump\t// out\n        /* \"#utility.yul\":10457:10643   */\n    tag_167:\n        /* \"#utility.yul\":10517:10637   */\n    tag_293:\n        /* \"#utility.yul\":10534:10537   */\n      dup2\n        /* \"#utility.yul\":10527:10532   */\n      dup2\n        /* \"#utility.yul\":10524:10538   */\n      lt\n        /* \"#utility.yul\":10517:10637   */\n      iszero\n      tag_295\n      jumpi\n        /* \"#utility.yul\":10588:10627   */\n      tag_296\n        /* \"#utility.yul\":10625:10626   */\n      0x00\n        /* \"#utility.yul\":10618:10623   */\n      dup3\n        /* \"#utility.yul\":10588:10627   */\n      tag_166\n      jump\t// in\n    tag_296:\n        /* \"#utility.yul\":10561:10562   */\n      0x01\n        /* \"#utility.yul\":10554:10559   */\n      dup2\n        /* \"#utility.yul\":10550:10563   */\n      add\n        /* \"#utility.yul\":10541:10563   */\n      swap1\n      pop\n        /* \"#utility.yul\":10517:10637   */\n      jump(tag_293)\n    tag_295:\n        /* \"#utility.yul\":10457:10643   */\n      pop\n      pop\n      jump\t// out\n        /* \"#utility.yul\":10649:11192   */\n    tag_168:\n        /* \"#utility.yul\":10750:10752   */\n      0x1f\n        /* \"#utility.yul\":10745:10748   */\n      dup3\n        /* \"#utility.yul\":10742:10753   */\n      gt\n        /* \"#utility.yul\":10739:11185   */\n      iszero\n      tag_298\n      jumpi\n        /* \"#utility.yul\":10784:10822   */\n      tag_299\n        /* \"#utility.yul\":10816:10821   */\n      dup2\n        /* \"#utility.yul\":10784:10822   */\n      tag_157\n      jump\t// in\n    tag_299:\n        /* \"#utility.yul\":10868:10897   */\n      tag_300\n        /* \"#utility.yul\":10886:10896   */\n      dup5\n        /* \"#utility.yul\":10868:10897   */\n      tag_158\n      jump\t// in\n    tag_300:\n        /* \"#utility.yul\":10858:10866   */\n      dup2\n        /* \"#utility.yul\":10854:10898   */\n      add\n        /* \"#utility.yul\":11051:11053   */\n      0x20\n        /* \"#utility.yul\":11039:11049   */\n      dup6\n        /* \"#utility.yul\":11036:11054   */\n      lt\n        /* \"#utility.yul\":11033:11082   */\n      iszero\n      tag_301\n      jumpi\n        /* \"#utility.yul\":11072:11080   */\n      dup2\n        /* \"#utility.yul\":11057:11080   */\n      swap1\n      pop\n        /* \"#utility.yul\":11033:11082   */\n    tag_301:\n        /* \"#utility.yul\":11095:11175   */\n      tag_302\n        /* \"#utility.yul\":11151:11173   */\n      tag_303\n        /* \"#utility.yul\":11169:11172   */\n      dup6\n        /* \"#utility.yul\":11151:11173   */\n      tag_158\n      jump\t// in\n    tag_303:\n        /* \"#utility.yul\":11141:11149   */\n      dup4\n        /* \"#utility.yul\":11137:11174   */\n      add\n        /* \"#utility.yul\":11124:11135   */\n      dup3\n        /* \"#utility.yul\":11095:11175   */\n      tag_167\n      jump\t// in\n    tag_302:\n        /* \"#utility.yul\":10754:11185   */\n      pop\n      pop\n        /* \"#utility.yul\":10739:11185   */\n    tag_298:\n        /* \"#utility.yul\":10649:11192   */\n      pop\n      pop\n      pop\n      jump\t// out\n        /* \"#utility.yul\":11198:11315   */\n    tag_169:\n        /* \"#utility.yul\":11252:11260   */\n      0x00\n        /* \"#utility.yul\":11302:11307   */\n      dup3\n        /* \"#utility.yul\":11296:11300   */\n      dup3\n        /* \"#utility.yul\":11292:11308   */\n      shr\n        /* \"#utility.yul\":11271:11308   */\n      swap1\n      pop\n        /* \"#utility.yul\":11198:11315   */\n      swap3\n      swap2\n      pop\n      pop\n      jump\t// out\n        /* \"#utility.yul\":11321:11490   */\n    tag_170:\n        /* \"#utility.yul\":11365:11371   */\n      0x00\n        /* \"#utility.yul\":11398:11449   */\n      tag_306\n        /* \"#utility.yul\":11446:11447   */\n      0x00\n        /* \"#utility.yul\":11442:11448   */\n      not\n        /* \"#utility.yul\":11434:11439   */\n      dup5\n        /* \"#utility.yul\":11431:11432   */\n      0x08\n        /* \"#utility.yul\":11427:11440   */\n      mul\n        /* \"#utility.yul\":11398:11449   */\n      tag_169\n      jump\t// in\n    tag_306:\n        /* \"#utility.yul\":11394:11450   */\n      not\n        /* \"#utility.yul\":11479:11483   */\n      dup1\n        /* \"#utility.yul\":11473:11477   */\n      dup4\n        /* \"#utility.yul\":11469:11484   */\n      and\n        /* \"#utility.yul\":11459:11484   */\n      swap2\n      pop\n        /* \"#utility.yul\":11372:11490   */\n      pop\n        /* \"#utility.yul\":11321:11490   */\n      swap3\n      swap2\n      pop\n      pop\n      jump\t// out\n        /* \"#utility.yul\":11495:11790   */\n    tag_171:\n        /* \"#utility.yul\":11571:11575   */\n      0x00\n        /* \"#utility.yul\":11717:11746   */\n      tag_308\n        /* \"#utility.yul\":11742:11745   */\n      dup4\n        /* \"#utility.yul\":11736:11740   */\n      dup4\n        /* \"#utility.yul\":11717:11746   */\n      tag_170\n      jump\t// in\n    tag_308:\n        /* \"#utility.yul\":11709:11746   */\n      swap2\n      pop\n        /* \"#utility.yul\":11779:11782   */\n      dup3\n        /* \"#utility.yul\":11776:11777   */\n      0x02\n        /* \"#utility.yul\":11772:11783   */\n      mul\n        /* \"#utility.yul\":11766:11770   */\n      dup3\n        /* \"#utility.yul\":11763:11784   */\n      or\n        /* \"#utility.yul\":11755:11784   */\n      swap1\n      pop\n        /* \"#utility.yul\":11495:11790   */\n      swap3\n      swap2\n      pop\n      pop\n      jump\t// out\n        /* \"#utility.yul\":11795:13190   */\n    tag_57:\n        /* \"#utility.yul\":11912:11949   */\n      tag_310\n        /* \"#utility.yul\":11945:11948   */\n      dup3\n        /* \"#utility.yul\":11912:11949   */\n      tag_134\n      jump\t// in\n    tag_310:\n        /* \"#utility.yul\":12014:12032   */\n      0xffffffffffffffff\n        /* \"#utility.yul\":12006:12012   */\n      dup2\n        /* \"#utility.yul\":12003:12033   */\n      gt\n        /* \"#utility.yul\":12000:12056   */\n      iszero\n      tag_311\n      jumpi\n        /* \"#utility.yul\":12036:12054   */\n      tag_312\n      tag_156\n      jump\t// in\n    tag_312:\n        /* \"#utility.yul\":12000:12056   */\n    tag_311:\n        /* \"#utility.yul\":12080:12118   */\n      tag_313\n        /* \"#utility.yul\":12112:12116   */\n      dup3\n        /* \"#utility.yul\":12106:12117   */\n      sload\n        /* \"#utility.yul\":12080:12118   */\n      tag_46\n      jump\t// in\n    tag_313:\n        /* \"#utility.yul\":12165:12232   */\n      tag_314\n        /* \"#utility.yul\":12225:12231   */\n      dup3\n        /* \"#utility.yul\":12217:12223   */\n      dup3\n        /* \"#utility.yul\":12211:12215   */\n      dup6\n        /* \"#utility.yul\":12165:12232   */\n      tag_168\n      jump\t// in\n    tag_314:\n        /* \"#utility.yul\":12259:12260   */\n      0x00\n        /* \"#utility.yul\":12283:12287   */\n      0x20\n        /* \"#utility.yul\":12270:12287   */\n      swap1\n      pop\n        /* \"#utility.yul\":12315:12317   */\n      0x1f\n        /* \"#utility.yul\":12307:12313   */\n      dup4\n        /* \"#utility.yul\":12304:12318   */\n      gt\n        /* \"#utility.yul\":12332:12333   */\n      0x01\n        /* \"#utility.yul\":12327:12945   */\n      dup2\n      eq\n      tag_316\n      jumpi\n        /* \"#utility.yul\":12989:12990   */\n      0x00\n        /* \"#utility.yul\":13006:13012   */\n      dup5\n        /* \"#utility.yul\":13003:13080   */\n      iszero\n      tag_317\n      jumpi\n        /* \"#utility.yul\":13055:13064   */\n      dup3\n        /* \"#utility.yul\":13050:13053   */\n      dup8\n        /* \"#utility.yul\":13046:13065   */\n      add\n        /* \"#utility.yul\":13040:13066   */\n      mload\n        /* \"#utility.yul\":13031:13066   */\n      swap1\n      pop\n        /* \"#utility.yul\":13003:13080   */\n    tag_317:\n        /* \"#utility.yul\":13106:13173   */\n      tag_318\n        /* \"#utility.yul\":13166:13172   */\n      dup6\n        /* \"#utility.yul\":13159:13164   */\n      dup3\n        /* \"#utility.yul\":13106:13173   */\n      tag_171\n      jump\t// in\n    tag_318:\n        /* \"#utility.yul\":13100:13104   */\n      dup7\n        /* \"#utility.yul\":13093:13174   */\n      sstore\n        /* \"#utility.yul\":12962:13184   */\n      pop\n        /* \"#utility.yul\":12297:13184   */\n      jump(tag_315)\n        /* \"#utility.yul\":12327:12945   */\n    tag_316:\n        /* \"#utility.yul\":12379:12383   */\n      0x1f\n        /* \"#utility.yul\":12375:12384   */\n      not\n        /* \"#utility.yul\":12367:12373   */\n      dup5\n        /* \"#utility.yul\":12363:12385   */\n      and\n        /* \"#utility.yul\":12413:12450   */\n      tag_319\n        /* \"#utility.yul\":12445:12449   */\n      dup7\n        /* \"#utility.yul\":12413:12450   */\n      tag_157\n      jump\t// in\n    tag_319:\n        /* \"#utility.yul\":12472:12473   */\n      0x00\n        /* \"#utility.yul\":12486:12694   */\n    tag_320:\n        /* \"#utility.yul\":12500:12507   */\n      dup3\n        /* \"#utility.yul\":12497:12498   */\n      dup2\n        /* \"#utility.yul\":12494:12508   */\n      lt\n        /* \"#utility.yul\":12486:12694   */\n      iszero\n      tag_322\n      jumpi\n        /* \"#utility.yul\":12579:12588   */\n      dup5\n        /* \"#utility.yul\":12574:12577   */\n      dup10\n        /* \"#utility.yul\":12570:12589   */\n      add\n        /* \"#utility.yul\":12564:12590   */\n      mload\n        /* \"#utility.yul\":12556:12562   */\n      dup3\n        /* \"#utility.yul\":12549:12591   */\n      sstore\n        /* \"#utility.yul\":12630:12631   */\n      0x01\n        /* \"#utility.yul\":12622:12628   */\n      dup3\n        /* \"#utility.yul\":12618:12632   */\n      add\n        /* \"#utility.yul\":12608:12632   */\n      swap2\n      pop\n        /* \"#utility.yul\":12677:12679   */\n      0x20\n        /* \"#utility.yul\":12666:12675   */\n      dup6\n        /* \"#utility.yul\":12662:12680   */\n      add\n        /* \"#utility.yul\":12649:12680   */\n      swap5\n      pop\n        /* \"#utility.yul\":12523:12527   */\n      0x20\n        /* \"#utility.yul\":12520:12521   */\n      dup2\n        /* \"#utility.yul\":12516:12528   */\n      add\n        /* \"#utility.yul\":12511:12528   */\n      swap1\n      pop\n        /* \"#utility.yul\":12486:12694   */\n      jump(tag_320)\n    tag_322:\n        /* \"#utility.yul\":12722:12728   */\n      dup7\n        /* \"#utility.yul\":12713:12720   */\n      dup4\n        /* \"#utility.yul\":12710:12729   */\n      lt\n        /* \"#utility.yul\":12707:12886   */\n      iszero\n      tag_323\n      jumpi\n        /* \"#utility.yul\":12780:12789   */\n      dup5\n        /* \"#utility.yul\":12775:12778   */\n      dup10\n        /* \"#utility.yul\":12771:12790   */\n      add\n        /* \"#utility.yul\":12765:12791   */\n      mload\n        /* \"#utility.yul\":12823:12871   */\n      tag_324\n        /* \"#utility.yul\":12865:12869   */\n      0x1f\n        /* \"#utility.yul\":12857:12863   */\n      dup10\n        /* \"#utility.yul\":12853:12870   */\n      and\n        /* \"#utility.yul\":12842:12851   */\n      dup3\n        /* \"#utility.yul\":12823:12871   */\n      tag_170\n      jump\t// in\n    tag_324:\n        /* \"#utility.yul\":12815:12821   */\n      dup4\n        /* \"#utility.yul\":12808:12872   */\n      sstore\n        /* \"#utility.yul\":12730:12886   */\n      pop\n        /* \"#utility.yul\":12707:12886   */\n    tag_323:\n        /* \"#utility.yul\":12932:12933   */\n      0x01\n        /* \"#utility.yul\":12928:12929   */\n      0x02\n        /* \"#utility.yul\":12920:12926   */\n      dup9\n        /* \"#utility.yul\":12916:12930   */\n      mul\n        /* \"#utility.yul\":12912:12934   */\n      add\n        /* \"#utility.yul\":12906:12910   */\n      dup9\n        /* \"#utility.yul\":12899:12935   */\n      sstore\n        /* \"#utility.yul\":12334:12945   */\n      pop\n      pop\n      pop\n        /* \"#utility.yul\":12297:13184   */\n    tag_315:\n      pop\n        /* \"#utility.yul\":11887:13190   */\n      pop\n      pop\n      pop\n        /* \"#utility.yul\":11795:13190   */\n      pop\n      pop\n      jump\t// out\n        /* \"#utility.yul\":13196:13365   */\n    tag_172:\n        /* \"#utility.yul\":13280:13291   */\n      0x00\n        /* \"#utility.yul\":13314:13320   */\n      dup3\n        /* \"#utility.yul\":13309:13312   */\n      dup3\n        /* \"#utility.yul\":13302:13321   */\n      mstore\n        /* \"#utility.yul\":13354:13358   */\n      0x20\n        /* \"#utility.yul\":13349:13352   */\n      dup3\n        /* \"#utility.yul\":13345:13359   */\n      add\n        /* \"#utility.yul\":13330:13359   */\n      swap1\n      pop\n        /* \"#utility.yul\":13196:13365   */\n      swap3\n      swap2\n      pop\n      pop\n      jump\t// out\n        /* \"#utility.yul\":13371:13546   */\n    tag_173:\n        /* \"#utility.yul\":13511:13538   */\n      0x4164647265737320686173206e6f7420766f7465642079657400000000000000\n        /* \"#utility.yul\":13507:13508   */\n      0x00\n        /* \"#utility.yul\":13499:13505   */\n      dup3\n        /* \"#utility.yul\":13495:13509   */\n      add\n        /* \"#utility.yul\":13488:13539   */\n      mstore\n        /* \"#utility.yul\":13371:13546   */\n      pop\n      jump\t// out\n        /* \"#utility.yul\":13552:13918   */\n    tag_174:\n        /* \"#utility.yul\":13694:13697   */\n      0x00\n        /* \"#utility.yul\":13715:13782   */\n      tag_328\n        /* \"#utility.yul\":13779:13781   */\n      0x19\n        /* \"#utility.yul\":13774:13777   */\n      dup4\n        /* \"#utility.yul\":13715:13782   */\n      tag_172\n      jump\t// in\n    tag_328:\n        /* \"#utility.yul\":13708:13782   */\n      swap2\n      pop\n        /* \"#utility.yul\":13791:13884   */\n      tag_329\n        /* \"#utility.yul\":13880:13883   */\n      dup3\n        /* \"#utility.yul\":13791:13884   */\n      tag_173\n      jump\t// in\n    tag_329:\n        /* \"#utility.yul\":13909:13911   */\n      0x20\n        /* \"#utility.yul\":13904:13907   */\n      dup3\n        /* \"#utility.yul\":13900:13912   */\n      add\n        /* \"#utility.yul\":13893:13912   */\n      swap1\n      pop\n        /* \"#utility.yul\":13552:13918   */\n      swap2\n      swap1\n      pop\n      jump\t// out\n        /* \"#utility.yul\":13924:14343   */\n    tag_64:\n        /* \"#utility.yul\":14090:14094   */\n      0x00\n        /* \"#utility.yul\":14128:14130   */\n      0x20\n        /* \"#utility.yul\":14117:14126   */\n      dup3\n        /* \"#utility.yul\":14113:14131   */\n      add\n        /* \"#utility.yul\":14105:14131   */\n      swap1\n      pop\n        /* \"#utility.yul\":14177:14186   */\n      dup2\n        /* \"#utility.yul\":14171:14175   */\n      dup2\n        /* \"#utility.yul\":14167:14187   */\n      sub\n        /* \"#utility.yul\":14163:14164   */\n      0x00\n        /* \"#utility.yul\":14152:14161   */\n      dup4\n        /* \"#utility.yul\":14148:14165   */\n      add\n        /* \"#utility.yul\":14141:14188   */\n      mstore\n        /* \"#utility.yul\":14205:14336   */\n      tag_331\n        /* \"#utility.yul\":14331:14335   */\n      dup2\n        /* \"#utility.yul\":14205:14336   */\n      tag_174\n      jump\t// in\n    tag_331:\n        /* \"#utility.yul\":14197:14336   */\n      swap1\n      pop\n        /* \"#utility.yul\":13924:14343   */\n      swap2\n      swap1\n      pop\n      jump\t// out\n        /* \"#utility.yul\":14349:14543   */\n    tag_82:\n        /* \"#utility.yul\":14389:14393   */\n      0x00\n        /* \"#utility.yul\":14409:14429   */\n      tag_333\n        /* \"#utility.yul\":14427:14428   */\n      dup3\n        /* \"#utility.yul\":14409:14429   */\n      tag_139\n      jump\t// in\n    tag_333:\n        /* \"#utility.yul\":14404:14429   */\n      swap2\n      pop\n        /* \"#utility.yul\":14443:14463   */\n      tag_334\n        /* \"#utility.yul\":14461:14462   */\n      dup4\n        /* \"#utility.yul\":14443:14463   */\n      tag_139\n      jump\t// in\n    tag_334:\n        /* \"#utility.yul\":14438:14463   */\n      swap3\n      pop\n        /* \"#utility.yul\":14487:14488   */\n      dup3\n        /* \"#utility.yul\":14484:14485   */\n      dup3\n        /* \"#utility.yul\":14480:14489   */\n      sub\n        /* \"#utility.yul\":14472:14489   */\n      swap1\n      pop\n        /* \"#utility.yul\":14511:14512   */\n      dup2\n        /* \"#utility.yul\":14505:14509   */\n      dup2\n        /* \"#utility.yul\":14502:14513   */\n      gt\n        /* \"#utility.yul\":14499:14536   */\n      iszero\n      tag_335\n      jumpi\n        /* \"#utility.yul\":14516:14534   */\n      tag_336\n      tag_155\n      jump\t// in\n    tag_336:\n        /* \"#utility.yul\":14499:14536   */\n    tag_335:\n        /* \"#utility.yul\":14349:14543   */\n      swap3\n      swap2\n      pop\n      pop\n      jump\t// out\n        /* \"#utility.yul\":14549:14729   */\n    tag_102:\n        /* \"#utility.yul\":14597:14674   */\n      0x4e487b7100000000000000000000000000000000000000000000000000000000\n        /* \"#utility.yul\":14594:14595   */\n      0x00\n        /* \"#utility.yul\":14587:14675   */\n      mstore\n        /* \"#utility.yul\":14694:14698   */\n      0x32\n        /* \"#utility.yul\":14691:14692   */\n      0x04\n        /* \"#utility.yul\":14684:14699   */\n      mstore\n        /* \"#utility.yul\":14718:14722   */\n      0x24\n        /* \"#utility.yul\":14715:14716   */\n      0x00\n        /* \"#utility.yul\":14708:14723   */\n      revert\n        /* \"#utility.yul\":14735:14915   */\n    tag_175:\n        /* \"#utility.yul\":14783:14860   */\n      0x4e487b7100000000000000000000000000000000000000000000000000000000\n        /* \"#utility.yul\":14780:14781   */\n      0x00\n        /* \"#utility.yul\":14773:14861   */\n      mstore\n        /* \"#utility.yul\":14880:14884   */\n      0x12\n        /* \"#utility.yul\":14877:14878   */\n      0x04\n        /* \"#utility.yul\":14870:14885   */\n      mstore\n        /* \"#utility.yul\":14904:14908   */\n      0x24\n        /* \"#utility.yul\":14901:14902   */\n      0x00\n        /* \"#utility.yul\":14894:14909   */\n      revert\n        /* \"#utility.yul\":14921:15097   */\n    tag_112:\n        /* \"#utility.yul\":14953:14954   */\n      0x00\n        /* \"#utility.yul\":14970:14990   */\n      tag_340\n        /* \"#utility.yul\":14988:14989   */\n      dup3\n        /* \"#utility.yul\":14970:14990   */\n      tag_139\n      jump\t// in\n    tag_340:\n        /* \"#utility.yul\":14965:14990   */\n      swap2\n      pop\n        /* \"#utility.yul\":15004:15024   */\n      tag_341\n        /* \"#utility.yul\":15022:15023   */\n      dup4\n        /* \"#utility.yul\":15004:15024   */\n      tag_139\n      jump\t// in\n    tag_341:\n        /* \"#utility.yul\":14999:15024   */\n      swap3\n      pop\n        /* \"#utility.yul\":15043:15044   */\n      dup3\n        /* \"#utility.yul\":15033:15068   */\n      tag_342\n      jumpi\n        /* \"#utility.yul\":15048:15066   */\n      tag_343\n      tag_175\n      jump\t// in\n    tag_343:\n        /* \"#utility.yul\":15033:15068   */\n    tag_342:\n        /* \"#utility.yul\":15089:15090   */\n      dup3\n        /* \"#utility.yul\":15086:15087   */\n      dup3\n        /* \"#utility.yul\":15082:15091   */\n      mod\n        /* \"#utility.yul\":15077:15091   */\n      swap1\n      pop\n        /* \"#utility.yul\":14921:15097   */\n      swap3\n      swap2\n      pop\n      pop\n      jump\t// out\n        /* \"#utility.yul\":15103:15288   */\n    tag_116:\n        /* \"#utility.yul\":15143:15144   */\n      0x00\n        /* \"#utility.yul\":15160:15180   */\n      tag_345\n        /* \"#utility.yul\":15178:15179   */\n      dup3\n        /* \"#utility.yul\":15160:15180   */\n      tag_139\n      jump\t// in\n    tag_345:\n        /* \"#utility.yul\":15155:15180   */\n      swap2\n      pop\n        /* \"#utility.yul\":15194:15214   */\n      tag_346\n        /* \"#utility.yul\":15212:15213   */\n      dup4\n        /* \"#utility.yul\":15194:15214   */\n      tag_139\n      jump\t// in\n    tag_346:\n        /* \"#utility.yul\":15189:15214   */\n      swap3\n      pop\n        /* \"#utility.yul\":15233:15234   */\n      dup3\n        /* \"#utility.yul\":15223:15258   */\n      tag_347\n      jumpi\n        /* \"#utility.yul\":15238:15256   */\n      tag_348\n      tag_175\n      jump\t// in\n    tag_348:\n        /* \"#utility.yul\":15223:15258   */\n    tag_347:\n        /* \"#utility.yul\":15280:15281   */\n      dup3\n        /* \"#utility.yul\":15277:15278   */\n      dup3\n        /* \"#utility.yul\":15273:15282   */\n      div\n        /* \"#utility.yul\":15268:15282   */\n      swap1\n      pop\n        /* \"#utility.yul\":15103:15288   */\n      swap3\n      swap2\n      pop\n      pop\n      jump\t// out\n\n    auxdata: 0xa2646970667358221220b9f009482cc8bd681a26e30d678b606fc323f94d8559842e938ecacf1231fab864736f6c63430008180033\n}\n",
				"bytecode": {
					"linkReferences": {},
					"object": "608060405234801561000f575f80fd5b50335f806101000a81548173ffffffffffffffffffffffffffffffffffffffff021916908373ffffffffffffffffffffffffffffffffffffffff160217905550600333908060018154018082558091505060019003905f5260205f20015f9091909190916101000a81548173ffffffffffffffffffffffffffffffffffffffff021916908373ffffffffffffffffffffffffffffffffffffffff1602179055506113c5806100bc5f395ff3fe608060405234801561000f575f80fd5b506004361061007b575f3560e01c8063b3f98adc11610059578063b3f98adc146100d5578063c7f758a8146100f1578063cbff75cb14610121578063dbddc7aa146101515761007b565b806313af40351461007f57806341ec68701461009b57806346f81a87146100b9575b5f80fd5b61009960048036038101906100949190610b98565b61015b565b005b6100a36101f3565b6040516100b09190610d18565b60405180910390f35b6100d360048036038101906100ce9190610dc3565b61030a565b005b6100ef60048036038101906100ea9190610e56565b610489565b005b61010b60048036038101906101069190610e81565b610756565b6040516101189190610d18565b60405180910390f35b61013b60048036038101906101369190610b98565b61086d565b6040516101489190610ebb565b60405180910390f35b61015961090f565b005b5f8054906101000a900473ffffffffffffffffffffffffffffffffffffffff1673ffffffffffffffffffffffffffffffffffffffff163373ffffffffffffffffffffffffffffffffffffffff16146101b1575f80fd5b805f806101000a81548173ffffffffffffffffffffffffffffffffffffffff021916908373ffffffffffffffffffffffffffffffffffffffff16021790555050565b6101fb610a59565b60025f60015481526020019081526020015f206040518060e00160405290815f8201805461022890610f01565b80601f016020809104026020016040519081016040528092919081815260200182805461025490610f01565b801561029f5780601f106102765761010080835404028352916020019161029f565b820191905f5260205f20905b81548152906001019060200180831161028257829003601f168201915b5050505050815260200160018201548152602001600282015481526020016003820154815260200160048201548152602001600582015f9054906101000a900460ff161515151581526020016005820160019054906101000a900460ff161515151581525050905090565b5f8054906101000a900473ffffffffffffffffffffffffffffffffffffffff1673ffffffffffffffffffffffffffffffffffffffff163373ffffffffffffffffffffffffffffffffffffffff1614610360575f80fd5b6001805f8282546103719190610f5e565b925050819055506040518060e0016040528084848080601f0160208091040260200160405190810160405280939291908181526020018383808284375f81840152601f19601f8201169050808301925050505050505081526020015f81526020015f81526020015f81526020018281526020015f151581526020016001151581525060025f60015481526020019081526020015f205f820151815f019081610419919061115b565b506020820151816001015560408201518160020155606082015181600301556080820151816004015560a0820151816005015f6101000a81548160ff02191690831515021790555060c08201518160050160016101000a81548160ff021916908315150217905550905050505050565b6001151560025f60015481526020019081526020015f2060050160019054906101000a900460ff161515146104bc575f80fd5b336104c68161086d565b15610506576040517f08c379a00000000000000000000000000000000000000000000000000000000081526004016104fd90611284565b60405180910390fd5b5f60025f60015481526020019081526020015f2090505f8160030154826002015483600101546105369190610f5e565b6105409190610f5e565b9050600333908060018154018082558091505060019003905f5260205f20015f9091909190916101000a81548173ffffffffffffffffffffffffffffffffffffffff021916908373ffffffffffffffffffffffffffffffffffffffff16021790555060018460ff16036105ef576001826001015f8282546105c19190610f5e565b925050819055506105d06109c8565b826005015f6101000a81548160ff021916908315150217905550610686565b60028460ff160361063c576001826002015f82825461060e9190610f5e565b9250508190555061061d6109c8565b826005015f6101000a81548160ff021916908315150217905550610685565b5f8460ff1603610684576001826003015f82825461065a9190610f5e565b925050819055506106696109c8565b826005015f6101000a81548160ff0219169083151502179055505b5b5b600181836004015461069891906112a2565b1480156106c3575060018460ff1614806106b5575060028460ff16145b806106c257505f8460ff16145b5b15610750575f8260050160016101000a81548160ff02191690831515021790555060405180602001604052805f8054906101000a900473ffffffffffffffffffffffffffffffffffffffff1673ffffffffffffffffffffffffffffffffffffffff1673ffffffffffffffffffffffffffffffffffffffff16815250600390600161074e929190610a94565b505b50505050565b61075e610a59565b60025f8381526020019081526020015f206040518060e00160405290815f8201805461078990610f01565b80601f01602080910402602001604051908101604052809291908181526020018280546107b590610f01565b80156108005780601f106107d757610100808354040283529160200191610800565b820191905f5260205f20905b8154815290600101906020018083116107e357829003601f168201915b5050505050815260200160018201548152602001600282015481526020016003820154815260200160048201548152602001600582015f9054906101000a900460ff161515151581526020016005820160019054906101000a900460ff1615151515815250509050919050565b5f805f90505b600380549050811015610905578273ffffffffffffffffffffffffffffffffffffffff16600382815481106108ab576108aa6112d5565b5b905f5260205f20015f9054906101000a900473ffffffffffffffffffffffffffffffffffffffff1673ffffffffffffffffffffffffffffffffffffffff16036108f857600191505061090a565b8080600101915050610873565b505f90505b919050565b5f8054906101000a900473ffffffffffffffffffffffffffffffffffffffff1673ffffffffffffffffffffffffffffffffffffffff163373ffffffffffffffffffffffffffffffffffffffff1614610965575f80fd5b6001151560025f60015481526020019081526020015f2060050160019054906101000a900460ff16151514610998575f80fd5b5f60025f60015481526020019081526020015f2060050160016101000a81548160ff021916908315150217905550565b5f8060025f60015481526020019081526020015f2090505f816001015490505f826002015490505f83600301549050600160028560030154610a0a919061132f565b03610a1f57600181610a1c9190610f5e565b90505b600281610a2c919061135f565b90508082610a3a9190610f5e565b831115610a4e576001945050505050610a56565b5f9450505050505b90565b6040518060e00160405280606081526020015f81526020015f81526020015f81526020015f81526020015f151581526020015f151581525090565b828054828255905f5260205f20908101928215610b0a579160200282015b82811115610b09578251825f6101000a81548173ffffffffffffffffffffffffffffffffffffffff021916908373ffffffffffffffffffffffffffffffffffffffff16021790555091602001919060010190610ab2565b5b509050610b179190610b1b565b5090565b5b80821115610b32575f815f905550600101610b1c565b5090565b5f80fd5b5f80fd5b5f73ffffffffffffffffffffffffffffffffffffffff82169050919050565b5f610b6782610b3e565b9050919050565b610b7781610b5d565b8114610b81575f80fd5b50565b5f81359050610b9281610b6e565b92915050565b5f60208284031215610bad57610bac610b36565b5b5f610bba84828501610b84565b91505092915050565b5f81519050919050565b5f82825260208201905092915050565b5f5b83811015610bfa578082015181840152602081019050610bdf565b5f8484015250505050565b5f601f19601f8301169050919050565b5f610c1f82610bc3565b610c298185610bcd565b9350610c39818560208601610bdd565b610c4281610c05565b840191505092915050565b5f819050919050565b610c5f81610c4d565b82525050565b5f8115159050919050565b610c7981610c65565b82525050565b5f60e083015f8301518482035f860152610c998282610c15565b9150506020830151610cae6020860182610c56565b506040830151610cc16040860182610c56565b506060830151610cd46060860182610c56565b506080830151610ce76080860182610c56565b5060a0830151610cfa60a0860182610c70565b5060c0830151610d0d60c0860182610c70565b508091505092915050565b5f6020820190508181035f830152610d308184610c7f565b905092915050565b5f80fd5b5f80fd5b5f80fd5b5f8083601f840112610d5957610d58610d38565b5b8235905067ffffffffffffffff811115610d7657610d75610d3c565b5b602083019150836001820283011115610d9257610d91610d40565b5b9250929050565b610da281610c4d565b8114610dac575f80fd5b50565b5f81359050610dbd81610d99565b92915050565b5f805f60408486031215610dda57610dd9610b36565b5b5f84013567ffffffffffffffff811115610df757610df6610b3a565b5b610e0386828701610d44565b93509350506020610e1686828701610daf565b9150509250925092565b5f60ff82169050919050565b610e3581610e20565b8114610e3f575f80fd5b50565b5f81359050610e5081610e2c565b92915050565b5f60208284031215610e6b57610e6a610b36565b5b5f610e7884828501610e42565b91505092915050565b5f60208284031215610e9657610e95610b36565b5b5f610ea384828501610daf565b91505092915050565b610eb581610c65565b82525050565b5f602082019050610ece5f830184610eac565b92915050565b7f4e487b71000000000000000000000000000000000000000000000000000000005f52602260045260245ffd5b5f6002820490506001821680610f1857607f821691505b602082108103610f2b57610f2a610ed4565b5b50919050565b7f4e487b71000000000000000000000000000000000000000000000000000000005f52601160045260245ffd5b5f610f6882610c4d565b9150610f7383610c4d565b9250828201905080821115610f8b57610f8a610f31565b5b92915050565b7f4e487b71000000000000000000000000000000000000000000000000000000005f52604160045260245ffd5b5f819050815f5260205f209050919050565b5f6020601f8301049050919050565b5f82821b905092915050565b5f6008830261101a7fffffffffffffffffffffffffffffffffffffffffffffffffffffffffffffffff82610fdf565b6110248683610fdf565b95508019841693508086168417925050509392505050565b5f819050919050565b5f61105f61105a61105584610c4d565b61103c565b610c4d565b9050919050565b5f819050919050565b61107883611045565b61108c61108482611066565b848454610feb565b825550505050565b5f90565b6110a0611094565b6110ab81848461106f565b505050565b5b818110156110ce576110c35f82611098565b6001810190506110b1565b5050565b601f821115611113576110e481610fbe565b6110ed84610fd0565b810160208510156110fc578190505b61111061110885610fd0565b8301826110b0565b50505b505050565b5f82821c905092915050565b5f6111335f1984600802611118565b1980831691505092915050565b5f61114b8383611124565b9150826002028217905092915050565b61116482610bc3565b67ffffffffffffffff81111561117d5761117c610f91565b5b6111878254610f01565b6111928282856110d2565b5f60209050601f8311600181146111c3575f84156111b1578287015190505b6111bb8582611140565b865550611222565b601f1984166111d186610fbe565b5f5b828110156111f8578489015182556001820191506020850194506020810190506111d3565b868310156112155784890151611211601f891682611124565b8355505b6001600288020188555050505b505050505050565b5f82825260208201905092915050565b7f4164647265737320686173206e6f7420766f74656420796574000000000000005f82015250565b5f61126e60198361122a565b91506112798261123a565b602082019050919050565b5f6020820190508181035f83015261129b81611262565b9050919050565b5f6112ac82610c4d565b91506112b783610c4d565b92508282039050818111156112cf576112ce610f31565b5b92915050565b7f4e487b71000000000000000000000000000000000000000000000000000000005f52603260045260245ffd5b7f4e487b71000000000000000000000000000000000000000000000000000000005f52601260045260245ffd5b5f61133982610c4d565b915061134483610c4d565b92508261135457611353611302565b5b828206905092915050565b5f61136982610c4d565b915061137483610c4d565b92508261138457611383611302565b5b82820490509291505056fea2646970667358221220b9f009482cc8bd681a26e30d678b606fc323f94d8559842e938ecacf1231fab864736f6c63430008180033",
					"opcodes": "PUSH1 0x80 PUSH1 0x40 MSTORE CALLVALUE DUP1 ISZERO PUSH2 0xF JUMPI PUSH0 DUP1 REVERT JUMPDEST POP CALLER PUSH0 DUP1 PUSH2 0x100 EXP DUP2 SLOAD DUP2 PUSH20 0xFFFFFFFFFFFFFFFFFFFFFFFFFFFFFFFFFFFFFFFF MUL NOT AND SWAP1 DUP4 PUSH20 0xFFFFFFFFFFFFFFFFFFFFFFFFFFFFFFFFFFFFFFFF AND MUL OR SWAP1 SSTORE POP PUSH1 0x3 CALLER SWAP1 DUP1 PUSH1 0x1 DUP2 SLOAD ADD DUP1 DUP3 SSTORE DUP1 SWAP2 POP POP PUSH1 0x1 SWAP1 SUB SWAP1 PUSH0 MSTORE PUSH1 0x20 PUSH0 KECCAK256 ADD PUSH0 SWAP1 SWAP2 SWAP1 SWAP2 SWAP1 SWAP2 PUSH2 0x100 EXP DUP2 SLOAD DUP2 PUSH20 0xFFFFFFFFFFFFFFFFFFFFFFFFFFFFFFFFFFFFFFFF MUL NOT AND SWAP1 DUP4 PUSH20 0xFFFFFFFFFFFFFFFFFFFFFFFFFFFFFFFFFFFFFFFF AND MUL OR SWAP1 SSTORE POP PUSH2 0x13C5 DUP1 PUSH2 0xBC PUSH0 CODECOPY PUSH0 RETURN INVALID PUSH1 0x80 PUSH1 0x40 MSTORE CALLVALUE DUP1 ISZERO PUSH2 0xF JUMPI PUSH0 DUP1 REVERT JUMPDEST POP PUSH1 0x4 CALLDATASIZE LT PUSH2 0x7B JUMPI PUSH0 CALLDATALOAD PUSH1 0xE0 SHR DUP1 PUSH4 0xB3F98ADC GT PUSH2 0x59 JUMPI DUP1 PUSH4 0xB3F98ADC EQ PUSH2 0xD5 JUMPI DUP1 PUSH4 0xC7F758A8 EQ PUSH2 0xF1 JUMPI DUP1 PUSH4 0xCBFF75CB EQ PUSH2 0x121 JUMPI DUP1 PUSH4 0xDBDDC7AA EQ PUSH2 0x151 JUMPI PUSH2 0x7B JUMP JUMPDEST DUP1 PUSH4 0x13AF4035 EQ PUSH2 0x7F JUMPI DUP1 PUSH4 0x41EC6870 EQ PUSH2 0x9B JUMPI DUP1 PUSH4 0x46F81A87 EQ PUSH2 0xB9 JUMPI JUMPDEST PUSH0 DUP1 REVERT JUMPDEST PUSH2 0x99 PUSH1 0x4 DUP1 CALLDATASIZE SUB DUP2 ADD SWAP1 PUSH2 0x94 SWAP2 SWAP1 PUSH2 0xB98 JUMP JUMPDEST PUSH2 0x15B JUMP JUMPDEST STOP JUMPDEST PUSH2 0xA3 PUSH2 0x1F3 JUMP JUMPDEST PUSH1 0x40 MLOAD PUSH2 0xB0 SWAP2 SWAP1 PUSH2 0xD18 JUMP JUMPDEST PUSH1 0x40 MLOAD DUP1 SWAP2 SUB SWAP1 RETURN JUMPDEST PUSH2 0xD3 PUSH1 0x4 DUP1 CALLDATASIZE SUB DUP2 ADD SWAP1 PUSH2 0xCE SWAP2 SWAP1 PUSH2 0xDC3 JUMP JUMPDEST PUSH2 0x30A JUMP JUMPDEST STOP JUMPDEST PUSH2 0xEF PUSH1 0x4 DUP1 CALLDATASIZE SUB DUP2 ADD SWAP1 PUSH2 0xEA SWAP2 SWAP1 PUSH2 0xE56 JUMP JUMPDEST PUSH2 0x489 JUMP JUMPDEST STOP JUMPDEST PUSH2 0x10B PUSH1 0x4 DUP1 CALLDATASIZE SUB DUP2 ADD SWAP1 PUSH2 0x106 SWAP2 SWAP1 PUSH2 0xE81 JUMP JUMPDEST PUSH2 0x756 JUMP JUMPDEST PUSH1 0x40 MLOAD PUSH2 0x118 SWAP2 SWAP1 PUSH2 0xD18 JUMP JUMPDEST PUSH1 0x40 MLOAD DUP1 SWAP2 SUB SWAP1 RETURN JUMPDEST PUSH2 0x13B PUSH1 0x4 DUP1 CALLDATASIZE SUB DUP2 ADD SWAP1 PUSH2 0x136 SWAP2 SWAP1 PUSH2 0xB98 JUMP JUMPDEST PUSH2 0x86D JUMP JUMPDEST PUSH1 0x40 MLOAD PUSH2 0x148 SWAP2 SWAP1 PUSH2 0xEBB JUMP JUMPDEST PUSH1 0x40 MLOAD DUP1 SWAP2 SUB SWAP1 RETURN JUMPDEST PUSH2 0x159 PUSH2 0x90F JUMP JUMPDEST STOP JUMPDEST PUSH0 DUP1 SLOAD SWAP1 PUSH2 0x100 EXP SWAP1 DIV PUSH20 0xFFFFFFFFFFFFFFFFFFFFFFFFFFFFFFFFFFFFFFFF AND PUSH20 0xFFFFFFFFFFFFFFFFFFFFFFFFFFFFFFFFFFFFFFFF AND CALLER PUSH20 0xFFFFFFFFFFFFFFFFFFFFFFFFFFFFFFFFFFFFFFFF AND EQ PUSH2 0x1B1 JUMPI PUSH0 DUP1 REVERT JUMPDEST DUP1 PUSH0 DUP1 PUSH2 0x100 EXP DUP2 SLOAD DUP2 PUSH20 0xFFFFFFFFFFFFFFFFFFFFFFFFFFFFFFFFFFFFFFFF MUL NOT AND SWAP1 DUP4 PUSH20 0xFFFFFFFFFFFFFFFFFFFFFFFFFFFFFFFFFFFFFFFF AND MUL OR SWAP1 SSTORE POP POP JUMP JUMPDEST PUSH2 0x1FB PUSH2 0xA59 JUMP JUMPDEST PUSH1 0x2 PUSH0 PUSH1 0x1 SLOAD DUP2 MSTORE PUSH1 0x20 ADD SWAP1 DUP2 MSTORE PUSH1 0x20 ADD PUSH0 KECCAK256 PUSH1 0x40 MLOAD DUP1 PUSH1 0xE0 ADD PUSH1 0x40 MSTORE SWAP1 DUP2 PUSH0 DUP3 ADD DUP1 SLOAD PUSH2 0x228 SWAP1 PUSH2 0xF01 JUMP JUMPDEST DUP1 PUSH1 0x1F ADD PUSH1 0x20 DUP1 SWAP2 DIV MUL PUSH1 0x20 ADD PUSH1 0x40 MLOAD SWAP1 DUP2 ADD PUSH1 0x40 MSTORE DUP1 SWAP3 SWAP2 SWAP1 DUP2 DUP2 MSTORE PUSH1 0x20 ADD DUP3 DUP1 SLOAD PUSH2 0x254 SWAP1 PUSH2 0xF01 JUMP JUMPDEST DUP1 ISZERO PUSH2 0x29F JUMPI DUP1 PUSH1 0x1F LT PUSH2 0x276 JUMPI PUSH2 0x100 DUP1 DUP4 SLOAD DIV MUL DUP4 MSTORE SWAP2 PUSH1 0x20 ADD SWAP2 PUSH2 0x29F JUMP JUMPDEST DUP3 ADD SWAP2 SWAP1 PUSH0 MSTORE PUSH1 0x20 PUSH0 KECCAK256 SWAP1 JUMPDEST DUP2 SLOAD DUP2 MSTORE SWAP1 PUSH1 0x1 ADD SWAP1 PUSH1 0x20 ADD DUP1 DUP4 GT PUSH2 0x282 JUMPI DUP3 SWAP1 SUB PUSH1 0x1F AND DUP3 ADD SWAP2 JUMPDEST POP POP POP POP POP DUP2 MSTORE PUSH1 0x20 ADD PUSH1 0x1 DUP3 ADD SLOAD DUP2 MSTORE PUSH1 0x20 ADD PUSH1 0x2 DUP3 ADD SLOAD DUP2 MSTORE PUSH1 0x20 ADD PUSH1 0x3 DUP3 ADD SLOAD DUP2 MSTORE PUSH1 0x20 ADD PUSH1 0x4 DUP3 ADD SLOAD DUP2 MSTORE PUSH1 0x20 ADD PUSH1 0x5 DUP3 ADD PUSH0 SWAP1 SLOAD SWAP1 PUSH2 0x100 EXP SWAP1 DIV PUSH1 0xFF AND ISZERO ISZERO ISZERO ISZERO DUP2 MSTORE PUSH1 0x20 ADD PUSH1 0x5 DUP3 ADD PUSH1 0x1 SWAP1 SLOAD SWAP1 PUSH2 0x100 EXP SWAP1 DIV PUSH1 0xFF AND ISZERO ISZERO ISZERO ISZERO DUP2 MSTORE POP POP SWAP1 POP SWAP1 JUMP JUMPDEST PUSH0 DUP1 SLOAD SWAP1 PUSH2 0x100 EXP SWAP1 DIV PUSH20 0xFFFFFFFFFFFFFFFFFFFFFFFFFFFFFFFFFFFFFFFF AND PUSH20 0xFFFFFFFFFFFFFFFFFFFFFFFFFFFFFFFFFFFFFFFF AND CALLER PUSH20 0xFFFFFFFFFFFFFFFFFFFFFFFFFFFFFFFFFFFFFFFF AND EQ PUSH2 0x360 JUMPI PUSH0 DUP1 REVERT JUMPDEST PUSH1 0x1 DUP1 PUSH0 DUP3 DUP3 SLOAD PUSH2 0x371 SWAP2 SWAP1 PUSH2 0xF5E JUMP JUMPDEST SWAP3 POP POP DUP2 SWAP1 SSTORE POP PUSH1 0x40 MLOAD DUP1 PUSH1 0xE0 ADD PUSH1 0x40 MSTORE DUP1 DUP5 DUP5 DUP1 DUP1 PUSH1 0x1F ADD PUSH1 0x20 DUP1 SWAP2 DIV MUL PUSH1 0x20 ADD PUSH1 0x40 MLOAD SWAP1 DUP2 ADD PUSH1 0x40 MSTORE DUP1 SWAP4 SWAP3 SWAP2 SWAP1 DUP2 DUP2 MSTORE PUSH1 0x20 ADD DUP4 DUP4 DUP1 DUP3 DUP5 CALLDATACOPY PUSH0 DUP2 DUP5 ADD MSTORE PUSH1 0x1F NOT PUSH1 0x1F DUP3 ADD AND SWAP1 POP DUP1 DUP4 ADD SWAP3 POP POP POP POP POP POP POP DUP2 MSTORE PUSH1 0x20 ADD PUSH0 DUP2 MSTORE PUSH1 0x20 ADD PUSH0 DUP2 MSTORE PUSH1 0x20 ADD PUSH0 DUP2 MSTORE PUSH1 0x20 ADD DUP3 DUP2 MSTORE PUSH1 0x20 ADD PUSH0 ISZERO ISZERO DUP2 MSTORE PUSH1 0x20 ADD PUSH1 0x1 ISZERO ISZERO DUP2 MSTORE POP PUSH1 0x2 PUSH0 PUSH1 0x1 SLOAD DUP2 MSTORE PUSH1 0x20 ADD SWAP1 DUP2 MSTORE PUSH1 0x20 ADD PUSH0 KECCAK256 PUSH0 DUP3 ADD MLOAD DUP2 PUSH0 ADD SWAP1 DUP2 PUSH2 0x419 SWAP2 SWAP1 PUSH2 0x115B JUMP JUMPDEST POP PUSH1 0x20 DUP3 ADD MLOAD DUP2 PUSH1 0x1 ADD SSTORE PUSH1 0x40 DUP3 ADD MLOAD DUP2 PUSH1 0x2 ADD SSTORE PUSH1 0x60 DUP3 ADD MLOAD DUP2 PUSH1 0x3 ADD SSTORE PUSH1 0x80 DUP3 ADD MLOAD DUP2 PUSH1 0x4 ADD SSTORE PUSH1 0xA0 DUP3 ADD MLOAD DUP2 PUSH1 0x5 ADD PUSH0 PUSH2 0x100 EXP DUP2 SLOAD DUP2 PUSH1 0xFF MUL NOT AND SWAP1 DUP4 ISZERO ISZERO MUL OR SWAP1 SSTORE POP PUSH1 0xC0 DUP3 ADD MLOAD DUP2 PUSH1 0x5 ADD PUSH1 0x1 PUSH2 0x100 EXP DUP2 SLOAD DUP2 PUSH1 0xFF MUL NOT AND SWAP1 DUP4 ISZERO ISZERO MUL OR SWAP1 SSTORE POP SWAP1 POP POP POP POP POP JUMP JUMPDEST PUSH1 0x1 ISZERO ISZERO PUSH1 0x2 PUSH0 PUSH1 0x1 SLOAD DUP2 MSTORE PUSH1 0x20 ADD SWAP1 DUP2 MSTORE PUSH1 0x20 ADD PUSH0 KECCAK256 PUSH1 0x5 ADD PUSH1 0x1 SWAP1 SLOAD SWAP1 PUSH2 0x100 EXP SWAP1 DIV PUSH1 0xFF AND ISZERO ISZERO EQ PUSH2 0x4BC JUMPI PUSH0 DUP1 REVERT JUMPDEST CALLER PUSH2 0x4C6 DUP2 PUSH2 0x86D JUMP JUMPDEST ISZERO PUSH2 0x506 JUMPI PUSH1 0x40 MLOAD PUSH32 0x8C379A000000000000000000000000000000000000000000000000000000000 DUP2 MSTORE PUSH1 0x4 ADD PUSH2 0x4FD SWAP1 PUSH2 0x1284 JUMP JUMPDEST PUSH1 0x40 MLOAD DUP1 SWAP2 SUB SWAP1 REVERT JUMPDEST PUSH0 PUSH1 0x2 PUSH0 PUSH1 0x1 SLOAD DUP2 MSTORE PUSH1 0x20 ADD SWAP1 DUP2 MSTORE PUSH1 0x20 ADD PUSH0 KECCAK256 SWAP1 POP PUSH0 DUP2 PUSH1 0x3 ADD SLOAD DUP3 PUSH1 0x2 ADD SLOAD DUP4 PUSH1 0x1 ADD SLOAD PUSH2 0x536 SWAP2 SWAP1 PUSH2 0xF5E JUMP JUMPDEST PUSH2 0x540 SWAP2 SWAP1 PUSH2 0xF5E JUMP JUMPDEST SWAP1 POP PUSH1 0x3 CALLER SWAP1 DUP1 PUSH1 0x1 DUP2 SLOAD ADD DUP1 DUP3 SSTORE DUP1 SWAP2 POP POP PUSH1 0x1 SWAP1 SUB SWAP1 PUSH0 MSTORE PUSH1 0x20 PUSH0 KECCAK256 ADD PUSH0 SWAP1 SWAP2 SWAP1 SWAP2 SWAP1 SWAP2 PUSH2 0x100 EXP DUP2 SLOAD DUP2 PUSH20 0xFFFFFFFFFFFFFFFFFFFFFFFFFFFFFFFFFFFFFFFF MUL NOT AND SWAP1 DUP4 PUSH20 0xFFFFFFFFFFFFFFFFFFFFFFFFFFFFFFFFFFFFFFFF AND MUL OR SWAP1 SSTORE POP PUSH1 0x1 DUP5 PUSH1 0xFF AND SUB PUSH2 0x5EF JUMPI PUSH1 0x1 DUP3 PUSH1 0x1 ADD PUSH0 DUP3 DUP3 SLOAD PUSH2 0x5C1 SWAP2 SWAP1 PUSH2 0xF5E JUMP JUMPDEST SWAP3 POP POP DUP2 SWAP1 SSTORE POP PUSH2 0x5D0 PUSH2 0x9C8 JUMP JUMPDEST DUP3 PUSH1 0x5 ADD PUSH0 PUSH2 0x100 EXP DUP2 SLOAD DUP2 PUSH1 0xFF MUL NOT AND SWAP1 DUP4 ISZERO ISZERO MUL OR SWAP1 SSTORE POP PUSH2 0x686 JUMP JUMPDEST PUSH1 0x2 DUP5 PUSH1 0xFF AND SUB PUSH2 0x63C JUMPI PUSH1 0x1 DUP3 PUSH1 0x2 ADD PUSH0 DUP3 DUP3 SLOAD PUSH2 0x60E SWAP2 SWAP1 PUSH2 0xF5E JUMP JUMPDEST SWAP3 POP POP DUP2 SWAP1 SSTORE POP PUSH2 0x61D PUSH2 0x9C8 JUMP JUMPDEST DUP3 PUSH1 0x5 ADD PUSH0 PUSH2 0x100 EXP DUP2 SLOAD DUP2 PUSH1 0xFF MUL NOT AND SWAP1 DUP4 ISZERO ISZERO MUL OR SWAP1 SSTORE POP PUSH2 0x685 JUMP JUMPDEST PUSH0 DUP5 PUSH1 0xFF AND SUB PUSH2 0x684 JUMPI PUSH1 0x1 DUP3 PUSH1 0x3 ADD PUSH0 DUP3 DUP3 SLOAD PUSH2 0x65A SWAP2 SWAP1 PUSH2 0xF5E JUMP JUMPDEST SWAP3 POP POP DUP2 SWAP1 SSTORE POP PUSH2 0x669 PUSH2 0x9C8 JUMP JUMPDEST DUP3 PUSH1 0x5 ADD PUSH0 PUSH2 0x100 EXP DUP2 SLOAD DUP2 PUSH1 0xFF MUL NOT AND SWAP1 DUP4 ISZERO ISZERO MUL OR SWAP1 SSTORE POP JUMPDEST JUMPDEST JUMPDEST PUSH1 0x1 DUP2 DUP4 PUSH1 0x4 ADD SLOAD PUSH2 0x698 SWAP2 SWAP1 PUSH2 0x12A2 JUMP JUMPDEST EQ DUP1 ISZERO PUSH2 0x6C3 JUMPI POP PUSH1 0x1 DUP5 PUSH1 0xFF AND EQ DUP1 PUSH2 0x6B5 JUMPI POP PUSH1 0x2 DUP5 PUSH1 0xFF AND EQ JUMPDEST DUP1 PUSH2 0x6C2 JUMPI POP PUSH0 DUP5 PUSH1 0xFF AND EQ JUMPDEST JUMPDEST ISZERO PUSH2 0x750 JUMPI PUSH0 DUP3 PUSH1 0x5 ADD PUSH1 0x1 PUSH2 0x100 EXP DUP2 SLOAD DUP2 PUSH1 0xFF MUL NOT AND SWAP1 DUP4 ISZERO ISZERO MUL OR SWAP1 SSTORE POP PUSH1 0x40 MLOAD DUP1 PUSH1 0x20 ADD PUSH1 0x40 MSTORE DUP1 PUSH0 DUP1 SLOAD SWAP1 PUSH2 0x100 EXP SWAP1 DIV PUSH20 0xFFFFFFFFFFFFFFFFFFFFFFFFFFFFFFFFFFFFFFFF AND PUSH20 0xFFFFFFFFFFFFFFFFFFFFFFFFFFFFFFFFFFFFFFFF AND PUSH20 0xFFFFFFFFFFFFFFFFFFFFFFFFFFFFFFFFFFFFFFFF AND DUP2 MSTORE POP PUSH1 0x3 SWAP1 PUSH1 0x1 PUSH2 0x74E SWAP3 SWAP2 SWAP1 PUSH2 0xA94 JUMP JUMPDEST POP JUMPDEST POP POP POP POP JUMP JUMPDEST PUSH2 0x75E PUSH2 0xA59 JUMP JUMPDEST PUSH1 0x2 PUSH0 DUP4 DUP2 MSTORE PUSH1 0x20 ADD SWAP1 DUP2 MSTORE PUSH1 0x20 ADD PUSH0 KECCAK256 PUSH1 0x40 MLOAD DUP1 PUSH1 0xE0 ADD PUSH1 0x40 MSTORE SWAP1 DUP2 PUSH0 DUP3 ADD DUP1 SLOAD PUSH2 0x789 SWAP1 PUSH2 0xF01 JUMP JUMPDEST DUP1 PUSH1 0x1F ADD PUSH1 0x20 DUP1 SWAP2 DIV MUL PUSH1 0x20 ADD PUSH1 0x40 MLOAD SWAP1 DUP2 ADD PUSH1 0x40 MSTORE DUP1 SWAP3 SWAP2 SWAP1 DUP2 DUP2 MSTORE PUSH1 0x20 ADD DUP3 DUP1 SLOAD PUSH2 0x7B5 SWAP1 PUSH2 0xF01 JUMP JUMPDEST DUP1 ISZERO PUSH2 0x800 JUMPI DUP1 PUSH1 0x1F LT PUSH2 0x7D7 JUMPI PUSH2 0x100 DUP1 DUP4 SLOAD DIV MUL DUP4 MSTORE SWAP2 PUSH1 0x20 ADD SWAP2 PUSH2 0x800 JUMP JUMPDEST DUP3 ADD SWAP2 SWAP1 PUSH0 MSTORE PUSH1 0x20 PUSH0 KECCAK256 SWAP1 JUMPDEST DUP2 SLOAD DUP2 MSTORE SWAP1 PUSH1 0x1 ADD SWAP1 PUSH1 0x20 ADD DUP1 DUP4 GT PUSH2 0x7E3 JUMPI DUP3 SWAP1 SUB PUSH1 0x1F AND DUP3 ADD SWAP2 JUMPDEST POP POP POP POP POP DUP2 MSTORE PUSH1 0x20 ADD PUSH1 0x1 DUP3 ADD SLOAD DUP2 MSTORE PUSH1 0x20 ADD PUSH1 0x2 DUP3 ADD SLOAD DUP2 MSTORE PUSH1 0x20 ADD PUSH1 0x3 DUP3 ADD SLOAD DUP2 MSTORE PUSH1 0x20 ADD PUSH1 0x4 DUP3 ADD SLOAD DUP2 MSTORE PUSH1 0x20 ADD PUSH1 0x5 DUP3 ADD PUSH0 SWAP1 SLOAD SWAP1 PUSH2 0x100 EXP SWAP1 DIV PUSH1 0xFF AND ISZERO ISZERO ISZERO ISZERO DUP2 MSTORE PUSH1 0x20 ADD PUSH1 0x5 DUP3 ADD PUSH1 0x1 SWAP1 SLOAD SWAP1 PUSH2 0x100 EXP SWAP1 DIV PUSH1 0xFF AND ISZERO ISZERO ISZERO ISZERO DUP2 MSTORE POP POP SWAP1 POP SWAP2 SWAP1 POP JUMP JUMPDEST PUSH0 DUP1 PUSH0 SWAP1 POP JUMPDEST PUSH1 0x3 DUP1 SLOAD SWAP1 POP DUP2 LT ISZERO PUSH2 0x905 JUMPI DUP3 PUSH20 0xFFFFFFFFFFFFFFFFFFFFFFFFFFFFFFFFFFFFFFFF AND PUSH1 0x3 DUP3 DUP2 SLOAD DUP2 LT PUSH2 0x8AB JUMPI PUSH2 0x8AA PUSH2 0x12D5 JUMP JUMPDEST JUMPDEST SWAP1 PUSH0 MSTORE PUSH1 0x20 PUSH0 KECCAK256 ADD PUSH0 SWAP1 SLOAD SWAP1 PUSH2 0x100 EXP SWAP1 DIV PUSH20 0xFFFFFFFFFFFFFFFFFFFFFFFFFFFFFFFFFFFFFFFF AND PUSH20 0xFFFFFFFFFFFFFFFFFFFFFFFFFFFFFFFFFFFFFFFF AND SUB PUSH2 0x8F8 JUMPI PUSH1 0x1 SWAP2 POP POP PUSH2 0x90A JUMP JUMPDEST DUP1 DUP1 PUSH1 0x1 ADD SWAP2 POP POP PUSH2 0x873 JUMP JUMPDEST POP PUSH0 SWAP1 POP JUMPDEST SWAP2 SWAP1 POP JUMP JUMPDEST PUSH0 DUP1 SLOAD SWAP1 PUSH2 0x100 EXP SWAP1 DIV PUSH20 0xFFFFFFFFFFFFFFFFFFFFFFFFFFFFFFFFFFFFFFFF AND PUSH20 0xFFFFFFFFFFFFFFFFFFFFFFFFFFFFFFFFFFFFFFFF AND CALLER PUSH20 0xFFFFFFFFFFFFFFFFFFFFFFFFFFFFFFFFFFFFFFFF AND EQ PUSH2 0x965 JUMPI PUSH0 DUP1 REVERT JUMPDEST PUSH1 0x1 ISZERO ISZERO PUSH1 0x2 PUSH0 PUSH1 0x1 SLOAD DUP2 MSTORE PUSH1 0x20 ADD SWAP1 DUP2 MSTORE PUSH1 0x20 ADD PUSH0 KECCAK256 PUSH1 0x5 ADD PUSH1 0x1 SWAP1 SLOAD SWAP1 PUSH2 0x100 EXP SWAP1 DIV PUSH1 0xFF AND ISZERO ISZERO EQ PUSH2 0x998 JUMPI PUSH0 DUP1 REVERT JUMPDEST PUSH0 PUSH1 0x2 PUSH0 PUSH1 0x1 SLOAD DUP2 MSTORE PUSH1 0x20 ADD SWAP1 DUP2 MSTORE PUSH1 0x20 ADD PUSH0 KECCAK256 PUSH1 0x5 ADD PUSH1 0x1 PUSH2 0x100 EXP DUP2 SLOAD DUP2 PUSH1 0xFF MUL NOT AND SWAP1 DUP4 ISZERO ISZERO MUL OR SWAP1 SSTORE POP JUMP JUMPDEST PUSH0 DUP1 PUSH1 0x2 PUSH0 PUSH1 0x1 SLOAD DUP2 MSTORE PUSH1 0x20 ADD SWAP1 DUP2 MSTORE PUSH1 0x20 ADD PUSH0 KECCAK256 SWAP1 POP PUSH0 DUP2 PUSH1 0x1 ADD SLOAD SWAP1 POP PUSH0 DUP3 PUSH1 0x2 ADD SLOAD SWAP1 POP PUSH0 DUP4 PUSH1 0x3 ADD SLOAD SWAP1 POP PUSH1 0x1 PUSH1 0x2 DUP6 PUSH1 0x3 ADD SLOAD PUSH2 0xA0A SWAP2 SWAP1 PUSH2 0x132F JUMP JUMPDEST SUB PUSH2 0xA1F JUMPI PUSH1 0x1 DUP2 PUSH2 0xA1C SWAP2 SWAP1 PUSH2 0xF5E JUMP JUMPDEST SWAP1 POP JUMPDEST PUSH1 0x2 DUP2 PUSH2 0xA2C SWAP2 SWAP1 PUSH2 0x135F JUMP JUMPDEST SWAP1 POP DUP1 DUP3 PUSH2 0xA3A SWAP2 SWAP1 PUSH2 0xF5E JUMP JUMPDEST DUP4 GT ISZERO PUSH2 0xA4E JUMPI PUSH1 0x1 SWAP5 POP POP POP POP POP PUSH2 0xA56 JUMP JUMPDEST PUSH0 SWAP5 POP POP POP POP POP JUMPDEST SWAP1 JUMP JUMPDEST PUSH1 0x40 MLOAD DUP1 PUSH1 0xE0 ADD PUSH1 0x40 MSTORE DUP1 PUSH1 0x60 DUP2 MSTORE PUSH1 0x20 ADD PUSH0 DUP2 MSTORE PUSH1 0x20 ADD PUSH0 DUP2 MSTORE PUSH1 0x20 ADD PUSH0 DUP2 MSTORE PUSH1 0x20 ADD PUSH0 DUP2 MSTORE PUSH1 0x20 ADD PUSH0 ISZERO ISZERO DUP2 MSTORE PUSH1 0x20 ADD PUSH0 ISZERO ISZERO DUP2 MSTORE POP SWAP1 JUMP JUMPDEST DUP3 DUP1 SLOAD DUP3 DUP3 SSTORE SWAP1 PUSH0 MSTORE PUSH1 0x20 PUSH0 KECCAK256 SWAP1 DUP2 ADD SWAP3 DUP3 ISZERO PUSH2 0xB0A JUMPI SWAP2 PUSH1 0x20 MUL DUP3 ADD JUMPDEST DUP3 DUP2 GT ISZERO PUSH2 0xB09 JUMPI DUP3 MLOAD DUP3 PUSH0 PUSH2 0x100 EXP DUP2 SLOAD DUP2 PUSH20 0xFFFFFFFFFFFFFFFFFFFFFFFFFFFFFFFFFFFFFFFF MUL NOT AND SWAP1 DUP4 PUSH20 0xFFFFFFFFFFFFFFFFFFFFFFFFFFFFFFFFFFFFFFFF AND MUL OR SWAP1 SSTORE POP SWAP2 PUSH1 0x20 ADD SWAP2 SWAP1 PUSH1 0x1 ADD SWAP1 PUSH2 0xAB2 JUMP JUMPDEST JUMPDEST POP SWAP1 POP PUSH2 0xB17 SWAP2 SWAP1 PUSH2 0xB1B JUMP JUMPDEST POP SWAP1 JUMP JUMPDEST JUMPDEST DUP1 DUP3 GT ISZERO PUSH2 0xB32 JUMPI PUSH0 DUP2 PUSH0 SWAP1 SSTORE POP PUSH1 0x1 ADD PUSH2 0xB1C JUMP JUMPDEST POP SWAP1 JUMP JUMPDEST PUSH0 DUP1 REVERT JUMPDEST PUSH0 DUP1 REVERT JUMPDEST PUSH0 PUSH20 0xFFFFFFFFFFFFFFFFFFFFFFFFFFFFFFFFFFFFFFFF DUP3 AND SWAP1 POP SWAP2 SWAP1 POP JUMP JUMPDEST PUSH0 PUSH2 0xB67 DUP3 PUSH2 0xB3E JUMP JUMPDEST SWAP1 POP SWAP2 SWAP1 POP JUMP JUMPDEST PUSH2 0xB77 DUP2 PUSH2 0xB5D JUMP JUMPDEST DUP2 EQ PUSH2 0xB81 JUMPI PUSH0 DUP1 REVERT JUMPDEST POP JUMP JUMPDEST PUSH0 DUP2 CALLDATALOAD SWAP1 POP PUSH2 0xB92 DUP2 PUSH2 0xB6E JUMP JUMPDEST SWAP3 SWAP2 POP POP JUMP JUMPDEST PUSH0 PUSH1 0x20 DUP3 DUP5 SUB SLT ISZERO PUSH2 0xBAD JUMPI PUSH2 0xBAC PUSH2 0xB36 JUMP JUMPDEST JUMPDEST PUSH0 PUSH2 0xBBA DUP5 DUP3 DUP6 ADD PUSH2 0xB84 JUMP JUMPDEST SWAP2 POP POP SWAP3 SWAP2 POP POP JUMP JUMPDEST PUSH0 DUP2 MLOAD SWAP1 POP SWAP2 SWAP1 POP JUMP JUMPDEST PUSH0 DUP3 DUP3 MSTORE PUSH1 0x20 DUP3 ADD SWAP1 POP SWAP3 SWAP2 POP POP JUMP JUMPDEST PUSH0 JUMPDEST DUP4 DUP2 LT ISZERO PUSH2 0xBFA JUMPI DUP1 DUP3 ADD MLOAD DUP2 DUP5 ADD MSTORE PUSH1 0x20 DUP2 ADD SWAP1 POP PUSH2 0xBDF JUMP JUMPDEST PUSH0 DUP5 DUP5 ADD MSTORE POP POP POP POP JUMP JUMPDEST PUSH0 PUSH1 0x1F NOT PUSH1 0x1F DUP4 ADD AND SWAP1 POP SWAP2 SWAP1 POP JUMP JUMPDEST PUSH0 PUSH2 0xC1F DUP3 PUSH2 0xBC3 JUMP JUMPDEST PUSH2 0xC29 DUP2 DUP6 PUSH2 0xBCD JUMP JUMPDEST SWAP4 POP PUSH2 0xC39 DUP2 DUP6 PUSH1 0x20 DUP7 ADD PUSH2 0xBDD JUMP JUMPDEST PUSH2 0xC42 DUP2 PUSH2 0xC05 JUMP JUMPDEST DUP5 ADD SWAP2 POP POP SWAP3 SWAP2 POP POP JUMP JUMPDEST PUSH0 DUP2 SWAP1 POP SWAP2 SWAP1 POP JUMP JUMPDEST PUSH2 0xC5F DUP2 PUSH2 0xC4D JUMP JUMPDEST DUP3 MSTORE POP POP JUMP JUMPDEST PUSH0 DUP2 ISZERO ISZERO SWAP1 POP SWAP2 SWAP1 POP JUMP JUMPDEST PUSH2 0xC79 DUP2 PUSH2 0xC65 JUMP JUMPDEST DUP3 MSTORE POP POP JUMP JUMPDEST PUSH0 PUSH1 0xE0 DUP4 ADD PUSH0 DUP4 ADD MLOAD DUP5 DUP3 SUB PUSH0 DUP7 ADD MSTORE PUSH2 0xC99 DUP3 DUP3 PUSH2 0xC15 JUMP JUMPDEST SWAP2 POP POP PUSH1 0x20 DUP4 ADD MLOAD PUSH2 0xCAE PUSH1 0x20 DUP7 ADD DUP3 PUSH2 0xC56 JUMP JUMPDEST POP PUSH1 0x40 DUP4 ADD MLOAD PUSH2 0xCC1 PUSH1 0x40 DUP7 ADD DUP3 PUSH2 0xC56 JUMP JUMPDEST POP PUSH1 0x60 DUP4 ADD MLOAD PUSH2 0xCD4 PUSH1 0x60 DUP7 ADD DUP3 PUSH2 0xC56 JUMP JUMPDEST POP PUSH1 0x80 DUP4 ADD MLOAD PUSH2 0xCE7 PUSH1 0x80 DUP7 ADD DUP3 PUSH2 0xC56 JUMP JUMPDEST POP PUSH1 0xA0 DUP4 ADD MLOAD PUSH2 0xCFA PUSH1 0xA0 DUP7 ADD DUP3 PUSH2 0xC70 JUMP JUMPDEST POP PUSH1 0xC0 DUP4 ADD MLOAD PUSH2 0xD0D PUSH1 0xC0 DUP7 ADD DUP3 PUSH2 0xC70 JUMP JUMPDEST POP DUP1 SWAP2 POP POP SWAP3 SWAP2 POP POP JUMP JUMPDEST PUSH0 PUSH1 0x20 DUP3 ADD SWAP1 POP DUP2 DUP2 SUB PUSH0 DUP4 ADD MSTORE PUSH2 0xD30 DUP2 DUP5 PUSH2 0xC7F JUMP JUMPDEST SWAP1 POP SWAP3 SWAP2 POP POP JUMP JUMPDEST PUSH0 DUP1 REVERT JUMPDEST PUSH0 DUP1 REVERT JUMPDEST PUSH0 DUP1 REVERT JUMPDEST PUSH0 DUP1 DUP4 PUSH1 0x1F DUP5 ADD SLT PUSH2 0xD59 JUMPI PUSH2 0xD58 PUSH2 0xD38 JUMP JUMPDEST JUMPDEST DUP3 CALLDATALOAD SWAP1 POP PUSH8 0xFFFFFFFFFFFFFFFF DUP2 GT ISZERO PUSH2 0xD76 JUMPI PUSH2 0xD75 PUSH2 0xD3C JUMP JUMPDEST JUMPDEST PUSH1 0x20 DUP4 ADD SWAP2 POP DUP4 PUSH1 0x1 DUP3 MUL DUP4 ADD GT ISZERO PUSH2 0xD92 JUMPI PUSH2 0xD91 PUSH2 0xD40 JUMP JUMPDEST JUMPDEST SWAP3 POP SWAP3 SWAP1 POP JUMP JUMPDEST PUSH2 0xDA2 DUP2 PUSH2 0xC4D JUMP JUMPDEST DUP2 EQ PUSH2 0xDAC JUMPI PUSH0 DUP1 REVERT JUMPDEST POP JUMP JUMPDEST PUSH0 DUP2 CALLDATALOAD SWAP1 POP PUSH2 0xDBD DUP2 PUSH2 0xD99 JUMP JUMPDEST SWAP3 SWAP2 POP POP JUMP JUMPDEST PUSH0 DUP1 PUSH0 PUSH1 0x40 DUP5 DUP7 SUB SLT ISZERO PUSH2 0xDDA JUMPI PUSH2 0xDD9 PUSH2 0xB36 JUMP JUMPDEST JUMPDEST PUSH0 DUP5 ADD CALLDATALOAD PUSH8 0xFFFFFFFFFFFFFFFF DUP2 GT ISZERO PUSH2 0xDF7 JUMPI PUSH2 0xDF6 PUSH2 0xB3A JUMP JUMPDEST JUMPDEST PUSH2 0xE03 DUP7 DUP3 DUP8 ADD PUSH2 0xD44 JUMP JUMPDEST SWAP4 POP SWAP4 POP POP PUSH1 0x20 PUSH2 0xE16 DUP7 DUP3 DUP8 ADD PUSH2 0xDAF JUMP JUMPDEST SWAP2 POP POP SWAP3 POP SWAP3 POP SWAP3 JUMP JUMPDEST PUSH0 PUSH1 0xFF DUP3 AND SWAP1 POP SWAP2 SWAP1 POP JUMP JUMPDEST PUSH2 0xE35 DUP2 PUSH2 0xE20 JUMP JUMPDEST DUP2 EQ PUSH2 0xE3F JUMPI PUSH0 DUP1 REVERT JUMPDEST POP JUMP JUMPDEST PUSH0 DUP2 CALLDATALOAD SWAP1 POP PUSH2 0xE50 DUP2 PUSH2 0xE2C JUMP JUMPDEST SWAP3 SWAP2 POP POP JUMP JUMPDEST PUSH0 PUSH1 0x20 DUP3 DUP5 SUB SLT ISZERO PUSH2 0xE6B JUMPI PUSH2 0xE6A PUSH2 0xB36 JUMP JUMPDEST JUMPDEST PUSH0 PUSH2 0xE78 DUP5 DUP3 DUP6 ADD PUSH2 0xE42 JUMP JUMPDEST SWAP2 POP POP SWAP3 SWAP2 POP POP JUMP JUMPDEST PUSH0 PUSH1 0x20 DUP3 DUP5 SUB SLT ISZERO PUSH2 0xE96 JUMPI PUSH2 0xE95 PUSH2 0xB36 JUMP JUMPDEST JUMPDEST PUSH0 PUSH2 0xEA3 DUP5 DUP3 DUP6 ADD PUSH2 0xDAF JUMP JUMPDEST SWAP2 POP POP SWAP3 SWAP2 POP POP JUMP JUMPDEST PUSH2 0xEB5 DUP2 PUSH2 0xC65 JUMP JUMPDEST DUP3 MSTORE POP POP JUMP JUMPDEST PUSH0 PUSH1 0x20 DUP3 ADD SWAP1 POP PUSH2 0xECE PUSH0 DUP4 ADD DUP5 PUSH2 0xEAC JUMP JUMPDEST SWAP3 SWAP2 POP POP JUMP JUMPDEST PUSH32 0x4E487B7100000000000000000000000000000000000000000000000000000000 PUSH0 MSTORE PUSH1 0x22 PUSH1 0x4 MSTORE PUSH1 0x24 PUSH0 REVERT JUMPDEST PUSH0 PUSH1 0x2 DUP3 DIV SWAP1 POP PUSH1 0x1 DUP3 AND DUP1 PUSH2 0xF18 JUMPI PUSH1 0x7F DUP3 AND SWAP2 POP JUMPDEST PUSH1 0x20 DUP3 LT DUP2 SUB PUSH2 0xF2B JUMPI PUSH2 0xF2A PUSH2 0xED4 JUMP JUMPDEST JUMPDEST POP SWAP2 SWAP1 POP JUMP JUMPDEST PUSH32 0x4E487B7100000000000000000000000000000000000000000000000000000000 PUSH0 MSTORE PUSH1 0x11 PUSH1 0x4 MSTORE PUSH1 0x24 PUSH0 REVERT JUMPDEST PUSH0 PUSH2 0xF68 DUP3 PUSH2 0xC4D JUMP JUMPDEST SWAP2 POP PUSH2 0xF73 DUP4 PUSH2 0xC4D JUMP JUMPDEST SWAP3 POP DUP3 DUP3 ADD SWAP1 POP DUP1 DUP3 GT ISZERO PUSH2 0xF8B JUMPI PUSH2 0xF8A PUSH2 0xF31 JUMP JUMPDEST JUMPDEST SWAP3 SWAP2 POP POP JUMP JUMPDEST PUSH32 0x4E487B7100000000000000000000000000000000000000000000000000000000 PUSH0 MSTORE PUSH1 0x41 PUSH1 0x4 MSTORE PUSH1 0x24 PUSH0 REVERT JUMPDEST PUSH0 DUP2 SWAP1 POP DUP2 PUSH0 MSTORE PUSH1 0x20 PUSH0 KECCAK256 SWAP1 POP SWAP2 SWAP1 POP JUMP JUMPDEST PUSH0 PUSH1 0x20 PUSH1 0x1F DUP4 ADD DIV SWAP1 POP SWAP2 SWAP1 POP JUMP JUMPDEST PUSH0 DUP3 DUP3 SHL SWAP1 POP SWAP3 SWAP2 POP POP JUMP JUMPDEST PUSH0 PUSH1 0x8 DUP4 MUL PUSH2 0x101A PUSH32 0xFFFFFFFFFFFFFFFFFFFFFFFFFFFFFFFFFFFFFFFFFFFFFFFFFFFFFFFFFFFFFFFF DUP3 PUSH2 0xFDF JUMP JUMPDEST PUSH2 0x1024 DUP7 DUP4 PUSH2 0xFDF JUMP JUMPDEST SWAP6 POP DUP1 NOT DUP5 AND SWAP4 POP DUP1 DUP7 AND DUP5 OR SWAP3 POP POP POP SWAP4 SWAP3 POP POP POP JUMP JUMPDEST PUSH0 DUP2 SWAP1 POP SWAP2 SWAP1 POP JUMP JUMPDEST PUSH0 PUSH2 0x105F PUSH2 0x105A PUSH2 0x1055 DUP5 PUSH2 0xC4D JUMP JUMPDEST PUSH2 0x103C JUMP JUMPDEST PUSH2 0xC4D JUMP JUMPDEST SWAP1 POP SWAP2 SWAP1 POP JUMP JUMPDEST PUSH0 DUP2 SWAP1 POP SWAP2 SWAP1 POP JUMP JUMPDEST PUSH2 0x1078 DUP4 PUSH2 0x1045 JUMP JUMPDEST PUSH2 0x108C PUSH2 0x1084 DUP3 PUSH2 0x1066 JUMP JUMPDEST DUP5 DUP5 SLOAD PUSH2 0xFEB JUMP JUMPDEST DUP3 SSTORE POP POP POP POP JUMP JUMPDEST PUSH0 SWAP1 JUMP JUMPDEST PUSH2 0x10A0 PUSH2 0x1094 JUMP JUMPDEST PUSH2 0x10AB DUP2 DUP5 DUP5 PUSH2 0x106F JUMP JUMPDEST POP POP POP JUMP JUMPDEST JUMPDEST DUP2 DUP2 LT ISZERO PUSH2 0x10CE JUMPI PUSH2 0x10C3 PUSH0 DUP3 PUSH2 0x1098 JUMP JUMPDEST PUSH1 0x1 DUP2 ADD SWAP1 POP PUSH2 0x10B1 JUMP JUMPDEST POP POP JUMP JUMPDEST PUSH1 0x1F DUP3 GT ISZERO PUSH2 0x1113 JUMPI PUSH2 0x10E4 DUP2 PUSH2 0xFBE JUMP JUMPDEST PUSH2 0x10ED DUP5 PUSH2 0xFD0 JUMP JUMPDEST DUP2 ADD PUSH1 0x20 DUP6 LT ISZERO PUSH2 0x10FC JUMPI DUP2 SWAP1 POP JUMPDEST PUSH2 0x1110 PUSH2 0x1108 DUP6 PUSH2 0xFD0 JUMP JUMPDEST DUP4 ADD DUP3 PUSH2 0x10B0 JUMP JUMPDEST POP POP JUMPDEST POP POP POP JUMP JUMPDEST PUSH0 DUP3 DUP3 SHR SWAP1 POP SWAP3 SWAP2 POP POP JUMP JUMPDEST PUSH0 PUSH2 0x1133 PUSH0 NOT DUP5 PUSH1 0x8 MUL PUSH2 0x1118 JUMP JUMPDEST NOT DUP1 DUP4 AND SWAP2 POP POP SWAP3 SWAP2 POP POP JUMP JUMPDEST PUSH0 PUSH2 0x114B DUP4 DUP4 PUSH2 0x1124 JUMP JUMPDEST SWAP2 POP DUP3 PUSH1 0x2 MUL DUP3 OR SWAP1 POP SWAP3 SWAP2 POP POP JUMP JUMPDEST PUSH2 0x1164 DUP3 PUSH2 0xBC3 JUMP JUMPDEST PUSH8 0xFFFFFFFFFFFFFFFF DUP2 GT ISZERO PUSH2 0x117D JUMPI PUSH2 0x117C PUSH2 0xF91 JUMP JUMPDEST JUMPDEST PUSH2 0x1187 DUP3 SLOAD PUSH2 0xF01 JUMP JUMPDEST PUSH2 0x1192 DUP3 DUP3 DUP6 PUSH2 0x10D2 JUMP JUMPDEST PUSH0 PUSH1 0x20 SWAP1 POP PUSH1 0x1F DUP4 GT PUSH1 0x1 DUP2 EQ PUSH2 0x11C3 JUMPI PUSH0 DUP5 ISZERO PUSH2 0x11B1 JUMPI DUP3 DUP8 ADD MLOAD SWAP1 POP JUMPDEST PUSH2 0x11BB DUP6 DUP3 PUSH2 0x1140 JUMP JUMPDEST DUP7 SSTORE POP PUSH2 0x1222 JUMP JUMPDEST PUSH1 0x1F NOT DUP5 AND PUSH2 0x11D1 DUP7 PUSH2 0xFBE JUMP JUMPDEST PUSH0 JUMPDEST DUP3 DUP2 LT ISZERO PUSH2 0x11F8 JUMPI DUP5 DUP10 ADD MLOAD DUP3 SSTORE PUSH1 0x1 DUP3 ADD SWAP2 POP PUSH1 0x20 DUP6 ADD SWAP5 POP PUSH1 0x20 DUP2 ADD SWAP1 POP PUSH2 0x11D3 JUMP JUMPDEST DUP7 DUP4 LT ISZERO PUSH2 0x1215 JUMPI DUP5 DUP10 ADD MLOAD PUSH2 0x1211 PUSH1 0x1F DUP10 AND DUP3 PUSH2 0x1124 JUMP JUMPDEST DUP4 SSTORE POP JUMPDEST PUSH1 0x1 PUSH1 0x2 DUP9 MUL ADD DUP9 SSTORE POP POP POP JUMPDEST POP POP POP POP POP POP JUMP JUMPDEST PUSH0 DUP3 DUP3 MSTORE PUSH1 0x20 DUP3 ADD SWAP1 POP SWAP3 SWAP2 POP POP JUMP JUMPDEST PUSH32 0x4164647265737320686173206E6F7420766F7465642079657400000000000000 PUSH0 DUP3 ADD MSTORE POP JUMP JUMPDEST PUSH0 PUSH2 0x126E PUSH1 0x19 DUP4 PUSH2 0x122A JUMP JUMPDEST SWAP2 POP PUSH2 0x1279 DUP3 PUSH2 0x123A JUMP JUMPDEST PUSH1 0x20 DUP3 ADD SWAP1 POP SWAP2 SWAP1 POP JUMP JUMPDEST PUSH0 PUSH1 0x20 DUP3 ADD SWAP1 POP DUP2 DUP2 SUB PUSH0 DUP4 ADD MSTORE PUSH2 0x129B DUP2 PUSH2 0x1262 JUMP JUMPDEST SWAP1 POP SWAP2 SWAP1 POP JUMP JUMPDEST PUSH0 PUSH2 0x12AC DUP3 PUSH2 0xC4D JUMP JUMPDEST SWAP2 POP PUSH2 0x12B7 DUP4 PUSH2 0xC4D JUMP JUMPDEST SWAP3 POP DUP3 DUP3 SUB SWAP1 POP DUP2 DUP2 GT ISZERO PUSH2 0x12CF JUMPI PUSH2 0x12CE PUSH2 0xF31 JUMP JUMPDEST JUMPDEST SWAP3 SWAP2 POP POP JUMP JUMPDEST PUSH32 0x4E487B7100000000000000000000000000000000000000000000000000000000 PUSH0 MSTORE PUSH1 0x32 PUSH1 0x4 MSTORE PUSH1 0x24 PUSH0 REVERT JUMPDEST PUSH32 0x4E487B7100000000000000000000000000000000000000000000000000000000 PUSH0 MSTORE PUSH1 0x12 PUSH1 0x4 MSTORE PUSH1 0x24 PUSH0 REVERT JUMPDEST PUSH0 PUSH2 0x1339 DUP3 PUSH2 0xC4D JUMP JUMPDEST SWAP2 POP PUSH2 0x1344 DUP4 PUSH2 0xC4D JUMP JUMPDEST SWAP3 POP DUP3 PUSH2 0x1354 JUMPI PUSH2 0x1353 PUSH2 0x1302 JUMP JUMPDEST JUMPDEST DUP3 DUP3 MOD SWAP1 POP SWAP3 SWAP2 POP POP JUMP JUMPDEST PUSH0 PUSH2 0x1369 DUP3 PUSH2 0xC4D JUMP JUMPDEST SWAP2 POP PUSH2 0x1374 DUP4 PUSH2 0xC4D JUMP JUMPDEST SWAP3 POP DUP3 PUSH2 0x1384 JUMPI PUSH2 0x1383 PUSH2 0x1302 JUMP JUMPDEST JUMPDEST DUP3 DUP3 DIV SWAP1 POP SWAP3 SWAP2 POP POP JUMP INVALID LOG2 PUSH5 0x6970667358 0x22 SLT KECCAK256 0xB9 CREATE MULMOD BASEFEE 0x2C 0xC8 0xBD PUSH9 0x1A26E30D678B606FC3 0x23 0xF9 0x4D DUP6 MSIZE DUP5 0x2E SWAP4 DUP15 0xCA 0xCF SLT BALANCE STATICCALL 0xB8 PUSH5 0x736F6C6343 STOP ADDMOD XOR STOP CALLER "
				},
				"gasEstimates": {
					"creation": {
						"codeDepositCost": "1012200",
						"executionCost": "73892",
						"totalCost": "1086092"
					},
					"external": {
						"create(string,uint256)": "infinite",
						"getCurrentProposal()": "infinite",
						"getProposal(uint256)": "infinite",
						"isVoted(address)": "infinite",
						"setOwner(address)": "26882",
						"terminateProposal()": "33276",
						"vote(uint8)": "infinite"
					},
					"internal": {
						"calculateCurrentState()": "infinite"
					}
				},
				"methodIdentifiers": {
					"create(string,uint256)": "46f81a87",
					"getCurrentProposal()": "41ec6870",
					"getProposal(uint256)": "c7f758a8",
					"isVoted(address)": "cbff75cb",
					"setOwner(address)": "13af4035",
					"terminateProposal()": "dbddc7aa",
					"vote(uint8)": "b3f98adc"
				}
			},
			"storageLayout": {
				"storage": [
					{
						"astId": 3,
						"contract": "contracts/Final_Version.sol:ProposalContract",
						"label": "owner",
						"offset": 0,
						"slot": "0",
						"type": "t_address"
					},
					{
						"astId": 5,
						"contract": "contracts/Final_Version.sol:ProposalContract",
						"label": "counter",
						"offset": 0,
						"slot": "1",
						"type": "t_uint256"
					},
					{
						"astId": 25,
						"contract": "contracts/Final_Version.sol:ProposalContract",
						"label": "proposal_history",
						"offset": 0,
						"slot": "2",
						"type": "t_mapping(t_uint256,t_struct(Proposal)20_storage)"
					},
					{
						"astId": 28,
						"contract": "contracts/Final_Version.sol:ProposalContract",
						"label": "voted_addresses",
						"offset": 0,
						"slot": "3",
						"type": "t_array(t_address)dyn_storage"
					}
				],
				"types": {
					"t_address": {
						"encoding": "inplace",
						"label": "address",
						"numberOfBytes": "20"
					},
					"t_array(t_address)dyn_storage": {
						"base": "t_address",
						"encoding": "dynamic_array",
						"label": "address[]",
						"numberOfBytes": "32"
					},
					"t_bool": {
						"encoding": "inplace",
						"label": "bool",
						"numberOfBytes": "1"
					},
					"t_mapping(t_uint256,t_struct(Proposal)20_storage)": {
						"encoding": "mapping",
						"key": "t_uint256",
						"label": "mapping(uint256 => struct ProposalContract.Proposal)",
						"numberOfBytes": "32",
						"value": "t_struct(Proposal)20_storage"
					},
					"t_string_storage": {
						"encoding": "bytes",
						"label": "string",
						"numberOfBytes": "32"
					},
					"t_struct(Proposal)20_storage": {
						"encoding": "inplace",
						"label": "struct ProposalContract.Proposal",
						"members": [
							{
								"astId": 7,
								"contract": "contracts/Final_Version.sol:ProposalContract",
								"label": "description",
								"offset": 0,
								"slot": "0",
								"type": "t_string_storage"
							},
							{
								"astId": 9,
								"contract": "contracts/Final_Version.sol:ProposalContract",
								"label": "approve",
								"offset": 0,
								"slot": "1",
								"type": "t_uint256"
							},
							{
								"astId": 11,
								"contract": "contracts/Final_Version.sol:ProposalContract",
								"label": "reject",
								"offset": 0,
								"slot": "2",
								"type": "t_uint256"
							},
							{
								"astId": 13,
								"contract": "contracts/Final_Version.sol:ProposalContract",
								"label": "pass",
								"offset": 0,
								"slot": "3",
								"type": "t_uint256"
							},
							{
								"astId": 15,
								"contract": "contracts/Final_Version.sol:ProposalContract",
								"label": "total_vote_to_end",
								"offset": 0,
								"slot": "4",
								"type": "t_uint256"
							},
							{
								"astId": 17,
								"contract": "contracts/Final_Version.sol:ProposalContract",
								"label": "current_state",
								"offset": 0,
								"slot": "5",
								"type": "t_bool"
							},
							{
								"astId": 19,
								"contract": "contracts/Final_Version.sol:ProposalContract",
								"label": "is_active",
								"offset": 1,
								"slot": "5",
								"type": "t_bool"
							}
						],
						"numberOfBytes": "192"
					},
					"t_uint256": {
						"encoding": "inplace",
						"label": "uint256",
						"numberOfBytes": "32"
					}
				}
			},
			"userdoc": {
				"kind": "user",
				"methods": {},
				"version": 1
			}
		}
	}
}