{
	"data": {
		"bytecode": {
			"linkReferences": {},
			"object": "608060405234801561000f575f80fd5b503360025f6101000a81548173ffffffffffffffffffffffffffffffffffffffff021916908373ffffffffffffffffffffffffffffffffffffffff160217905550600333908060018154018082558091505060019003905f5260205f20015f9091909190916101000a81548173ffffffffffffffffffffffffffffffffffffffff021916908373ffffffffffffffffffffffffffffffffffffffff16021790555061176f806100bd5f395ff3fe608060405234801561000f575f80fd5b506004361061007b575f3560e01c80639478f9e7116100595780639478f9e7146100c3578063b3f98adc146100df578063c7f758a8146100fb578063cbff75cb1461012b5761007b565b806313af40351461007f57806341ec68701461009b57806389190393146100b9575b5f80fd5b61009960048036038101906100949190610e1a565b61015b565b005b6100a361022d565b6040516100b09190610fb5565b60405180910390f35b6100c16103d4565b005b6100dd60048036038101906100d89190611060565b6104fb565b005b6100f960048036038101906100f49190611160565b610717565b005b6101156004803603810190610110919061118b565b610a1b565b6040516101229190610fb5565b60405180910390f35b61014560048036038101906101409190610e1a565b610bc3565b60405161015291906111c5565b60405180910390f35b60025f9054906101000a900473ffffffffffffffffffffffffffffffffffffffff1673ffffffffffffffffffffffffffffffffffffffff163373ffffffffffffffffffffffffffffffffffffffff16146101ea576040517f08c379a00000000000000000000000000000000000000000000000000000000081526004016101e190611238565b60405180910390fd5b8060025f6101000a81548173ffffffffffffffffffffffffffffffffffffffff021916908373ffffffffffffffffffffffffffffffffffffffff16021790555050565b610235610cd3565b60015f805481526020019081526020015f20604051806101000160405290815f8201805461026290611283565b80601f016020809104026020016040519081016040528092919081815260200182805461028e90611283565b80156102d95780601f106102b0576101008083540402835291602001916102d9565b820191905f5260205f20905b8154815290600101906020018083116102bc57829003601f168201915b505050505081526020016001820180546102f290611283565b80601f016020809104026020016040519081016040528092919081815260200182805461031e90611283565b80156103695780601f1061034057610100808354040283529160200191610369565b820191905f5260205f20905b81548152906001019060200180831161034c57829003601f168201915b5050505050815260200160028201548152602001600382015481526020016004820154815260200160058201548152602001600682015f9054906101000a900460ff161515151581526020016006820160019054906101000a900460ff161515151581525050905090565b60025f9054906101000a900473ffffffffffffffffffffffffffffffffffffffff1673ffffffffffffffffffffffffffffffffffffffff163373ffffffffffffffffffffffffffffffffffffffff1614610463576040517f08c379a000000000000000000000000000000000000000000000000000000000815260040161045a90611238565b60405180910390fd5b6001151560015f805481526020019081526020015f2060060160019054906101000a900460ff161515146104cc576040517f08c379a00000000000000000000000000000000000000000000000000000000081526004016104c3906112fd565b60405180910390fd5b5f60015f805481526020019081526020015f2060060160016101000a81548160ff021916908315150217905550565b60025f9054906101000a900473ffffffffffffffffffffffffffffffffffffffff1673ffffffffffffffffffffffffffffffffffffffff163373ffffffffffffffffffffffffffffffffffffffff161461058a576040517f08c379a000000000000000000000000000000000000000000000000000000000815260040161058190611238565b60405180910390fd5b60015f8082825461059b9190611348565b9250508190555060405180610100016040528089898080601f0160208091040260200160405190810160405280939291908181526020018383808284375f81840152601f19601f82011690508083019250505050505050815260200187878080601f0160208091040260200160405190810160405280939291908181526020018383808284375f81840152601f19601f8201169050808301925050505050505081526020018581526020018481526020018381526020018281526020015f151581526020016001151581525060015f805481526020019081526020015f205f820151815f01908161068c9190611545565b5060208201518160010190816106a29190611545565b5060408201518160020155606082015181600301556080820151816004015560a0820151816005015560c0820151816006015f6101000a81548160ff02191690831515021790555060e08201518160060160016101000a81548160ff0219169083151502179055509050505050505050505050565b6001151560015f805481526020019081526020015f2060060160019054906101000a900460ff16151514610780576040517f08c379a0000000000000000000000000000000000000000000000000000000008152600401610777906112fd565b60405180910390fd5b3361078a81610bc3565b156107ca576040517f08c379a00000000000000000000000000000000000000000000000000000000081526004016107c19061165e565b60405180910390fd5b5f60015f805481526020019081526020015f2090505f8160040154826003015483600201546107f99190611348565b6108039190611348565b9050600333908060018154018082558091505060019003905f5260205f20015f9091909190916101000a81548173ffffffffffffffffffffffffffffffffffffffff021916908373ffffffffffffffffffffffffffffffffffffffff16021790555060018460ff16036108b2576001826002015f8282546108849190611348565b92505081905550610893610c65565b826006015f6101000a81548160ff021916908315150217905550610949565b60028460ff16036108ff576001826003015f8282546108d19190611348565b925050819055506108e0610c65565b826006015f6101000a81548160ff021916908315150217905550610948565b5f8460ff1603610947576001826004015f82825461091d9190611348565b9250508190555061092c610c65565b826006015f6101000a81548160ff0219169083151502179055505b5b5b600181836005015461095b919061167c565b148015610986575060018460ff161480610978575060028460ff16145b8061098557505f8460ff16145b5b15610a15575f8260060160016101000a81548160ff021916908315150217905550604051806020016040528060025f9054906101000a900473ffffffffffffffffffffffffffffffffffffffff1673ffffffffffffffffffffffffffffffffffffffff1673ffffffffffffffffffffffffffffffffffffffff168152506003906001610a13929190610d16565b505b50505050565b610a23610cd3565b60015f8381526020019081526020015f20604051806101000160405290815f82018054610a4f90611283565b80601f0160208091040260200160405190810160405280929190818152602001828054610a7b90611283565b8015610ac65780601f10610a9d57610100808354040283529160200191610ac6565b820191905f5260205f20905b815481529060010190602001808311610aa957829003601f168201915b50505050508152602001600182018054610adf90611283565b80601f0160208091040260200160405190810160405280929190818152602001828054610b0b90611283565b8015610b565780601f10610b2d57610100808354040283529160200191610b56565b820191905f5260205f20905b815481529060010190602001808311610b3957829003601f168201915b5050505050815260200160028201548152602001600382015481526020016004820154815260200160058201548152602001600682015f9054906101000a900460ff161515151581526020016006820160019054906101000a900460ff1615151515815250509050919050565b5f805f90505b600380549050811015610c5b578273ffffffffffffffffffffffffffffffffffffffff1660038281548110610c0157610c006116af565b5b905f5260205f20015f9054906101000a900473ffffffffffffffffffffffffffffffffffffffff1673ffffffffffffffffffffffffffffffffffffffff1603610c4e576001915050610c60565b8080600101915050610bc9565b505f90505b919050565b5f8060015f805481526020019081526020015f2090505f816004015482600301548360020154610c959190611348565b610c9f9190611348565b90505f600282610caf9190611709565b90508083600201541115610cc95760019350505050610cd0565b5f93505050505b90565b60405180610100016040528060608152602001606081526020015f81526020015f81526020015f81526020015f81526020015f151581526020015f151581525090565b828054828255905f5260205f20908101928215610d8c579160200282015b82811115610d8b578251825f6101000a81548173ffffffffffffffffffffffffffffffffffffffff021916908373ffffffffffffffffffffffffffffffffffffffff16021790555091602001919060010190610d34565b5b509050610d999190610d9d565b5090565b5b80821115610db4575f815f905550600101610d9e565b5090565b5f80fd5b5f80fd5b5f73ffffffffffffffffffffffffffffffffffffffff82169050919050565b5f610de982610dc0565b9050919050565b610df981610ddf565b8114610e03575f80fd5b50565b5f81359050610e1481610df0565b92915050565b5f60208284031215610e2f57610e2e610db8565b5b5f610e3c84828501610e06565b91505092915050565b5f81519050919050565b5f82825260208201905092915050565b5f5b83811015610e7c578082015181840152602081019050610e61565b5f8484015250505050565b5f601f19601f8301169050919050565b5f610ea182610e45565b610eab8185610e4f565b9350610ebb818560208601610e5f565b610ec481610e87565b840191505092915050565b5f819050919050565b610ee181610ecf565b82525050565b5f8115159050919050565b610efb81610ee7565b82525050565b5f61010083015f8301518482035f860152610f1c8282610e97565b91505060208301518482036020860152610f368282610e97565b9150506040830151610f4b6040860182610ed8565b506060830151610f5e6060860182610ed8565b506080830151610f716080860182610ed8565b5060a0830151610f8460a0860182610ed8565b5060c0830151610f9760c0860182610ef2565b5060e0830151610faa60e0860182610ef2565b508091505092915050565b5f6020820190508181035f830152610fcd8184610f01565b905092915050565b5f80fd5b5f80fd5b5f80fd5b5f8083601f840112610ff657610ff5610fd5565b5b8235905067ffffffffffffffff81111561101357611012610fd9565b5b60208301915083600182028301111561102f5761102e610fdd565b5b9250929050565b61103f81610ecf565b8114611049575f80fd5b50565b5f8135905061105a81611036565b92915050565b5f805f805f805f8060c0898b03121561107c5761107b610db8565b5b5f89013567ffffffffffffffff81111561109957611098610dbc565b5b6110a58b828c01610fe1565b9850985050602089013567ffffffffffffffff8111156110c8576110c7610dbc565b5b6110d48b828c01610fe1565b965096505060406110e78b828c0161104c565b94505060606110f88b828c0161104c565b93505060806111098b828c0161104c565b92505060a061111a8b828c0161104c565b9150509295985092959890939650565b5f60ff82169050919050565b61113f8161112a565b8114611149575f80fd5b50565b5f8135905061115a81611136565b92915050565b5f6020828403121561117557611174610db8565b5b5f6111828482850161114c565b91505092915050565b5f602082840312156111a05761119f610db8565b5b5f6111ad8482850161104c565b91505092915050565b6111bf81610ee7565b82525050565b5f6020820190506111d85f8301846111b6565b92915050565b5f82825260208201905092915050565b7f596f75277265206e6f7420746865206f776e65722e00000000000000000000005f82015250565b5f6112226015836111de565b915061122d826111ee565b602082019050919050565b5f6020820190508181035f83015261124f81611216565b9050919050565b7f4e487b71000000000000000000000000000000000000000000000000000000005f52602260045260245ffd5b5f600282049050600182168061129a57607f821691505b6020821081036112ad576112ac611256565b5b50919050565b7f5468652070726f706f73616c206973206e6f74206163746976650000000000005f82015250565b5f6112e7601a836111de565b91506112f2826112b3565b602082019050919050565b5f6020820190508181035f830152611314816112db565b9050919050565b7f4e487b71000000000000000000000000000000000000000000000000000000005f52601160045260245ffd5b5f61135282610ecf565b915061135d83610ecf565b92508282019050808211156113755761137461131b565b5b92915050565b7f4e487b71000000000000000000000000000000000000000000000000000000005f52604160045260245ffd5b5f819050815f5260205f209050919050565b5f6020601f8301049050919050565b5f82821b905092915050565b5f600883026114047fffffffffffffffffffffffffffffffffffffffffffffffffffffffffffffffff826113c9565b61140e86836113c9565b95508019841693508086168417925050509392505050565b5f819050919050565b5f61144961144461143f84610ecf565b611426565b610ecf565b9050919050565b5f819050919050565b6114628361142f565b61147661146e82611450565b8484546113d5565b825550505050565b5f90565b61148a61147e565b611495818484611459565b505050565b5b818110156114b8576114ad5f82611482565b60018101905061149b565b5050565b601f8211156114fd576114ce816113a8565b6114d7846113ba565b810160208510156114e6578190505b6114fa6114f2856113ba565b83018261149a565b50505b505050565b5f82821c905092915050565b5f61151d5f1984600802611502565b1980831691505092915050565b5f611535838361150e565b9150826002028217905092915050565b61154e82610e45565b67ffffffffffffffff8111156115675761156661137b565b5b6115718254611283565b61157c8282856114bc565b5f60209050601f8311600181146115ad575f841561159b578287015190505b6115a5858261152a565b86555061160c565b601f1984166115bb866113a8565b5f5b828110156115e2578489015182556001820191506020850194506020810190506115bd565b868310156115ff57848901516115fb601f89168261150e565b8355505b6001600288020188555050505b505050505050565b7f416464726573732068617320616c726561647920766f746564000000000000005f82015250565b5f6116486019836111de565b915061165382611614565b602082019050919050565b5f6020820190508181035f8301526116758161163c565b9050919050565b5f61168682610ecf565b915061169183610ecf565b92508282039050818111156116a9576116a861131b565b5b92915050565b7f4e487b71000000000000000000000000000000000000000000000000000000005f52603260045260245ffd5b7f4e487b71000000000000000000000000000000000000000000000000000000005f52601260045260245ffd5b5f61171382610ecf565b915061171e83610ecf565b92508261172e5761172d6116dc565b5b82820490509291505056fea264697066735822122052107142c9835a52a735ff9f5f89ae31f0bbab23501b345764c2fc68a4854f6464736f6c63430008180033",
			"opcodes": "PUSH1 0x80 PUSH1 0x40 MSTORE CALLVALUE DUP1 ISZERO PUSH2 0xF JUMPI PUSH0 DUP1 REVERT JUMPDEST POP CALLER PUSH1 0x2 PUSH0 PUSH2 0x100 EXP DUP2 SLOAD DUP2 PUSH20 0xFFFFFFFFFFFFFFFFFFFFFFFFFFFFFFFFFFFFFFFF MUL NOT AND SWAP1 DUP4 PUSH20 0xFFFFFFFFFFFFFFFFFFFFFFFFFFFFFFFFFFFFFFFF AND MUL OR SWAP1 SSTORE POP PUSH1 0x3 CALLER SWAP1 DUP1 PUSH1 0x1 DUP2 SLOAD ADD DUP1 DUP3 SSTORE DUP1 SWAP2 POP POP PUSH1 0x1 SWAP1 SUB SWAP1 PUSH0 MSTORE PUSH1 0x20 PUSH0 KECCAK256 ADD PUSH0 SWAP1 SWAP2 SWAP1 SWAP2 SWAP1 SWAP2 PUSH2 0x100 EXP DUP2 SLOAD DUP2 PUSH20 0xFFFFFFFFFFFFFFFFFFFFFFFFFFFFFFFFFFFFFFFF MUL NOT AND SWAP1 DUP4 PUSH20 0xFFFFFFFFFFFFFFFFFFFFFFFFFFFFFFFFFFFFFFFF AND MUL OR SWAP1 SSTORE POP PUSH2 0x176F DUP1 PUSH2 0xBD PUSH0 CODECOPY PUSH0 RETURN INVALID PUSH1 0x80 PUSH1 0x40 MSTORE CALLVALUE DUP1 ISZERO PUSH2 0xF JUMPI PUSH0 DUP1 REVERT JUMPDEST POP PUSH1 0x4 CALLDATASIZE LT PUSH2 0x7B JUMPI PUSH0 CALLDATALOAD PUSH1 0xE0 SHR DUP1 PUSH4 0x9478F9E7 GT PUSH2 0x59 JUMPI DUP1 PUSH4 0x9478F9E7 EQ PUSH2 0xC3 JUMPI DUP1 PUSH4 0xB3F98ADC EQ PUSH2 0xDF JUMPI DUP1 PUSH4 0xC7F758A8 EQ PUSH2 0xFB JUMPI DUP1 PUSH4 0xCBFF75CB EQ PUSH2 0x12B JUMPI PUSH2 0x7B JUMP JUMPDEST DUP1 PUSH4 0x13AF4035 EQ PUSH2 0x7F JUMPI DUP1 PUSH4 0x41EC6870 EQ PUSH2 0x9B JUMPI DUP1 PUSH4 0x89190393 EQ PUSH2 0xB9 JUMPI JUMPDEST PUSH0 DUP1 REVERT JUMPDEST PUSH2 0x99 PUSH1 0x4 DUP1 CALLDATASIZE SUB DUP2 ADD SWAP1 PUSH2 0x94 SWAP2 SWAP1 PUSH2 0xE1A JUMP JUMPDEST PUSH2 0x15B JUMP JUMPDEST STOP JUMPDEST PUSH2 0xA3 PUSH2 0x22D JUMP JUMPDEST PUSH1 0x40 MLOAD PUSH2 0xB0 SWAP2 SWAP1 PUSH2 0xFB5 JUMP JUMPDEST PUSH1 0x40 MLOAD DUP1 SWAP2 SUB SWAP1 RETURN JUMPDEST PUSH2 0xC1 PUSH2 0x3D4 JUMP JUMPDEST STOP JUMPDEST PUSH2 0xDD PUSH1 0x4 DUP1 CALLDATASIZE SUB DUP2 ADD SWAP1 PUSH2 0xD8 SWAP2 SWAP1 PUSH2 0x1060 JUMP JUMPDEST PUSH2 0x4FB JUMP JUMPDEST STOP JUMPDEST PUSH2 0xF9 PUSH1 0x4 DUP1 CALLDATASIZE SUB DUP2 ADD SWAP1 PUSH2 0xF4 SWAP2 SWAP1 PUSH2 0x1160 JUMP JUMPDEST PUSH2 0x717 JUMP JUMPDEST STOP JUMPDEST PUSH2 0x115 PUSH1 0x4 DUP1 CALLDATASIZE SUB DUP2 ADD SWAP1 PUSH2 0x110 SWAP2 SWAP1 PUSH2 0x118B JUMP JUMPDEST PUSH2 0xA1B JUMP JUMPDEST PUSH1 0x40 MLOAD PUSH2 0x122 SWAP2 SWAP1 PUSH2 0xFB5 JUMP JUMPDEST PUSH1 0x40 MLOAD DUP1 SWAP2 SUB SWAP1 RETURN JUMPDEST PUSH2 0x145 PUSH1 0x4 DUP1 CALLDATASIZE SUB DUP2 ADD SWAP1 PUSH2 0x140 SWAP2 SWAP1 PUSH2 0xE1A JUMP JUMPDEST PUSH2 0xBC3 JUMP JUMPDEST PUSH1 0x40 MLOAD PUSH2 0x152 SWAP2 SWAP1 PUSH2 0x11C5 JUMP JUMPDEST PUSH1 0x40 MLOAD DUP1 SWAP2 SUB SWAP1 RETURN JUMPDEST PUSH1 0x2 PUSH0 SWAP1 SLOAD SWAP1 PUSH2 0x100 EXP SWAP1 DIV PUSH20 0xFFFFFFFFFFFFFFFFFFFFFFFFFFFFFFFFFFFFFFFF AND PUSH20 0xFFFFFFFFFFFFFFFFFFFFFFFFFFFFFFFFFFFFFFFF AND CALLER PUSH20 0xFFFFFFFFFFFFFFFFFFFFFFFFFFFFFFFFFFFFFFFF AND EQ PUSH2 0x1EA JUMPI PUSH1 0x40 MLOAD PUSH32 0x8C379A000000000000000000000000000000000000000000000000000000000 DUP2 MSTORE PUSH1 0x4 ADD PUSH2 0x1E1 SWAP1 PUSH2 0x1238 JUMP JUMPDEST PUSH1 0x40 MLOAD DUP1 SWAP2 SUB SWAP1 REVERT JUMPDEST DUP1 PUSH1 0x2 PUSH0 PUSH2 0x100 EXP DUP2 SLOAD DUP2 PUSH20 0xFFFFFFFFFFFFFFFFFFFFFFFFFFFFFFFFFFFFFFFF MUL NOT AND SWAP1 DUP4 PUSH20 0xFFFFFFFFFFFFFFFFFFFFFFFFFFFFFFFFFFFFFFFF AND MUL OR SWAP1 SSTORE POP POP JUMP JUMPDEST PUSH2 0x235 PUSH2 0xCD3 JUMP JUMPDEST PUSH1 0x1 PUSH0 DUP1 SLOAD DUP2 MSTORE PUSH1 0x20 ADD SWAP1 DUP2 MSTORE PUSH1 0x20 ADD PUSH0 KECCAK256 PUSH1 0x40 MLOAD DUP1 PUSH2 0x100 ADD PUSH1 0x40 MSTORE SWAP1 DUP2 PUSH0 DUP3 ADD DUP1 SLOAD PUSH2 0x262 SWAP1 PUSH2 0x1283 JUMP JUMPDEST DUP1 PUSH1 0x1F ADD PUSH1 0x20 DUP1 SWAP2 DIV MUL PUSH1 0x20 ADD PUSH1 0x40 MLOAD SWAP1 DUP2 ADD PUSH1 0x40 MSTORE DUP1 SWAP3 SWAP2 SWAP1 DUP2 DUP2 MSTORE PUSH1 0x20 ADD DUP3 DUP1 SLOAD PUSH2 0x28E SWAP1 PUSH2 0x1283 JUMP JUMPDEST DUP1 ISZERO PUSH2 0x2D9 JUMPI DUP1 PUSH1 0x1F LT PUSH2 0x2B0 JUMPI PUSH2 0x100 DUP1 DUP4 SLOAD DIV MUL DUP4 MSTORE SWAP2 PUSH1 0x20 ADD SWAP2 PUSH2 0x2D9 JUMP JUMPDEST DUP3 ADD SWAP2 SWAP1 PUSH0 MSTORE PUSH1 0x20 PUSH0 KECCAK256 SWAP1 JUMPDEST DUP2 SLOAD DUP2 MSTORE SWAP1 PUSH1 0x1 ADD SWAP1 PUSH1 0x20 ADD DUP1 DUP4 GT PUSH2 0x2BC JUMPI DUP3 SWAP1 SUB PUSH1 0x1F AND DUP3 ADD SWAP2 JUMPDEST POP POP POP POP POP DUP2 MSTORE PUSH1 0x20 ADD PUSH1 0x1 DUP3 ADD DUP1 SLOAD PUSH2 0x2F2 SWAP1 PUSH2 0x1283 JUMP JUMPDEST DUP1 PUSH1 0x1F ADD PUSH1 0x20 DUP1 SWAP2 DIV MUL PUSH1 0x20 ADD PUSH1 0x40 MLOAD SWAP1 DUP2 ADD PUSH1 0x40 MSTORE DUP1 SWAP3 SWAP2 SWAP1 DUP2 DUP2 MSTORE PUSH1 0x20 ADD DUP3 DUP1 SLOAD PUSH2 0x31E SWAP1 PUSH2 0x1283 JUMP JUMPDEST DUP1 ISZERO PUSH2 0x369 JUMPI DUP1 PUSH1 0x1F LT PUSH2 0x340 JUMPI PUSH2 0x100 DUP1 DUP4 SLOAD DIV MUL DUP4 MSTORE SWAP2 PUSH1 0x20 ADD SWAP2 PUSH2 0x369 JUMP JUMPDEST DUP3 ADD SWAP2 SWAP1 PUSH0 MSTORE PUSH1 0x20 PUSH0 KECCAK256 SWAP1 JUMPDEST DUP2 SLOAD DUP2 MSTORE SWAP1 PUSH1 0x1 ADD SWAP1 PUSH1 0x20 ADD DUP1 DUP4 GT PUSH2 0x34C JUMPI DUP3 SWAP1 SUB PUSH1 0x1F AND DUP3 ADD SWAP2 JUMPDEST POP POP POP POP POP DUP2 MSTORE PUSH1 0x20 ADD PUSH1 0x2 DUP3 ADD SLOAD DUP2 MSTORE PUSH1 0x20 ADD PUSH1 0x3 DUP3 ADD SLOAD DUP2 MSTORE PUSH1 0x20 ADD PUSH1 0x4 DUP3 ADD SLOAD DUP2 MSTORE PUSH1 0x20 ADD PUSH1 0x5 DUP3 ADD SLOAD DUP2 MSTORE PUSH1 0x20 ADD PUSH1 0x6 DUP3 ADD PUSH0 SWAP1 SLOAD SWAP1 PUSH2 0x100 EXP SWAP1 DIV PUSH1 0xFF AND ISZERO ISZERO ISZERO ISZERO DUP2 MSTORE PUSH1 0x20 ADD PUSH1 0x6 DUP3 ADD PUSH1 0x1 SWAP1 SLOAD SWAP1 PUSH2 0x100 EXP SWAP1 DIV PUSH1 0xFF AND ISZERO ISZERO ISZERO ISZERO DUP2 MSTORE POP POP SWAP1 POP SWAP1 JUMP JUMPDEST PUSH1 0x2 PUSH0 SWAP1 SLOAD SWAP1 PUSH2 0x100 EXP SWAP1 DIV PUSH20 0xFFFFFFFFFFFFFFFFFFFFFFFFFFFFFFFFFFFFFFFF AND PUSH20 0xFFFFFFFFFFFFFFFFFFFFFFFFFFFFFFFFFFFFFFFF AND CALLER PUSH20 0xFFFFFFFFFFFFFFFFFFFFFFFFFFFFFFFFFFFFFFFF AND EQ PUSH2 0x463 JUMPI PUSH1 0x40 MLOAD PUSH32 0x8C379A000000000000000000000000000000000000000000000000000000000 DUP2 MSTORE PUSH1 0x4 ADD PUSH2 0x45A SWAP1 PUSH2 0x1238 JUMP JUMPDEST PUSH1 0x40 MLOAD DUP1 SWAP2 SUB SWAP1 REVERT JUMPDEST PUSH1 0x1 ISZERO ISZERO PUSH1 0x1 PUSH0 DUP1 SLOAD DUP2 MSTORE PUSH1 0x20 ADD SWAP1 DUP2 MSTORE PUSH1 0x20 ADD PUSH0 KECCAK256 PUSH1 0x6 ADD PUSH1 0x1 SWAP1 SLOAD SWAP1 PUSH2 0x100 EXP SWAP1 DIV PUSH1 0xFF AND ISZERO ISZERO EQ PUSH2 0x4CC JUMPI PUSH1 0x40 MLOAD PUSH32 0x8C379A000000000000000000000000000000000000000000000000000000000 DUP2 MSTORE PUSH1 0x4 ADD PUSH2 0x4C3 SWAP1 PUSH2 0x12FD JUMP JUMPDEST PUSH1 0x40 MLOAD DUP1 SWAP2 SUB SWAP1 REVERT JUMPDEST PUSH0 PUSH1 0x1 PUSH0 DUP1 SLOAD DUP2 MSTORE PUSH1 0x20 ADD SWAP1 DUP2 MSTORE PUSH1 0x20 ADD PUSH0 KECCAK256 PUSH1 0x6 ADD PUSH1 0x1 PUSH2 0x100 EXP DUP2 SLOAD DUP2 PUSH1 0xFF MUL NOT AND SWAP1 DUP4 ISZERO ISZERO MUL OR SWAP1 SSTORE POP JUMP JUMPDEST PUSH1 0x2 PUSH0 SWAP1 SLOAD SWAP1 PUSH2 0x100 EXP SWAP1 DIV PUSH20 0xFFFFFFFFFFFFFFFFFFFFFFFFFFFFFFFFFFFFFFFF AND PUSH20 0xFFFFFFFFFFFFFFFFFFFFFFFFFFFFFFFFFFFFFFFF AND CALLER PUSH20 0xFFFFFFFFFFFFFFFFFFFFFFFFFFFFFFFFFFFFFFFF AND EQ PUSH2 0x58A JUMPI PUSH1 0x40 MLOAD PUSH32 0x8C379A000000000000000000000000000000000000000000000000000000000 DUP2 MSTORE PUSH1 0x4 ADD PUSH2 0x581 SWAP1 PUSH2 0x1238 JUMP JUMPDEST PUSH1 0x40 MLOAD DUP1 SWAP2 SUB SWAP1 REVERT JUMPDEST PUSH1 0x1 PUSH0 DUP1 DUP3 DUP3 SLOAD PUSH2 0x59B SWAP2 SWAP1 PUSH2 0x1348 JUMP JUMPDEST SWAP3 POP POP DUP2 SWAP1 SSTORE POP PUSH1 0x40 MLOAD DUP1 PUSH2 0x100 ADD PUSH1 0x40 MSTORE DUP1 DUP10 DUP10 DUP1 DUP1 PUSH1 0x1F ADD PUSH1 0x20 DUP1 SWAP2 DIV MUL PUSH1 0x20 ADD PUSH1 0x40 MLOAD SWAP1 DUP2 ADD PUSH1 0x40 MSTORE DUP1 SWAP4 SWAP3 SWAP2 SWAP1 DUP2 DUP2 MSTORE PUSH1 0x20 ADD DUP4 DUP4 DUP1 DUP3 DUP5 CALLDATACOPY PUSH0 DUP2 DUP5 ADD MSTORE PUSH1 0x1F NOT PUSH1 0x1F DUP3 ADD AND SWAP1 POP DUP1 DUP4 ADD SWAP3 POP POP POP POP POP POP POP DUP2 MSTORE PUSH1 0x20 ADD DUP8 DUP8 DUP1 DUP1 PUSH1 0x1F ADD PUSH1 0x20 DUP1 SWAP2 DIV MUL PUSH1 0x20 ADD PUSH1 0x40 MLOAD SWAP1 DUP2 ADD PUSH1 0x40 MSTORE DUP1 SWAP4 SWAP3 SWAP2 SWAP1 DUP2 DUP2 MSTORE PUSH1 0x20 ADD DUP4 DUP4 DUP1 DUP3 DUP5 CALLDATACOPY PUSH0 DUP2 DUP5 ADD MSTORE PUSH1 0x1F NOT PUSH1 0x1F DUP3 ADD AND SWAP1 POP DUP1 DUP4 ADD SWAP3 POP POP POP POP POP POP POP DUP2 MSTORE PUSH1 0x20 ADD DUP6 DUP2 MSTORE PUSH1 0x20 ADD DUP5 DUP2 MSTORE PUSH1 0x20 ADD DUP4 DUP2 MSTORE PUSH1 0x20 ADD DUP3 DUP2 MSTORE PUSH1 0x20 ADD PUSH0 ISZERO ISZERO DUP2 MSTORE PUSH1 0x20 ADD PUSH1 0x1 ISZERO ISZERO DUP2 MSTORE POP PUSH1 0x1 PUSH0 DUP1 SLOAD DUP2 MSTORE PUSH1 0x20 ADD SWAP1 DUP2 MSTORE PUSH1 0x20 ADD PUSH0 KECCAK256 PUSH0 DUP3 ADD MLOAD DUP2 PUSH0 ADD SWAP1 DUP2 PUSH2 0x68C SWAP2 SWAP1 PUSH2 0x1545 JUMP JUMPDEST POP PUSH1 0x20 DUP3 ADD MLOAD DUP2 PUSH1 0x1 ADD SWAP1 DUP2 PUSH2 0x6A2 SWAP2 SWAP1 PUSH2 0x1545 JUMP JUMPDEST POP PUSH1 0x40 DUP3 ADD MLOAD DUP2 PUSH1 0x2 ADD SSTORE PUSH1 0x60 DUP3 ADD MLOAD DUP2 PUSH1 0x3 ADD SSTORE PUSH1 0x80 DUP3 ADD MLOAD DUP2 PUSH1 0x4 ADD SSTORE PUSH1 0xA0 DUP3 ADD MLOAD DUP2 PUSH1 0x5 ADD SSTORE PUSH1 0xC0 DUP3 ADD MLOAD DUP2 PUSH1 0x6 ADD PUSH0 PUSH2 0x100 EXP DUP2 SLOAD DUP2 PUSH1 0xFF MUL NOT AND SWAP1 DUP4 ISZERO ISZERO MUL OR SWAP1 SSTORE POP PUSH1 0xE0 DUP3 ADD MLOAD DUP2 PUSH1 0x6 ADD PUSH1 0x1 PUSH2 0x100 EXP DUP2 SLOAD DUP2 PUSH1 0xFF MUL NOT AND SWAP1 DUP4 ISZERO ISZERO MUL OR SWAP1 SSTORE POP SWAP1 POP POP POP POP POP POP POP POP POP POP JUMP JUMPDEST PUSH1 0x1 ISZERO ISZERO PUSH1 0x1 PUSH0 DUP1 SLOAD DUP2 MSTORE PUSH1 0x20 ADD SWAP1 DUP2 MSTORE PUSH1 0x20 ADD PUSH0 KECCAK256 PUSH1 0x6 ADD PUSH1 0x1 SWAP1 SLOAD SWAP1 PUSH2 0x100 EXP SWAP1 DIV PUSH1 0xFF AND ISZERO ISZERO EQ PUSH2 0x780 JUMPI PUSH1 0x40 MLOAD PUSH32 0x8C379A000000000000000000000000000000000000000000000000000000000 DUP2 MSTORE PUSH1 0x4 ADD PUSH2 0x777 SWAP1 PUSH2 0x12FD JUMP JUMPDEST PUSH1 0x40 MLOAD DUP1 SWAP2 SUB SWAP1 REVERT JUMPDEST CALLER PUSH2 0x78A DUP2 PUSH2 0xBC3 JUMP JUMPDEST ISZERO PUSH2 0x7CA JUMPI PUSH1 0x40 MLOAD PUSH32 0x8C379A000000000000000000000000000000000000000000000000000000000 DUP2 MSTORE PUSH1 0x4 ADD PUSH2 0x7C1 SWAP1 PUSH2 0x165E JUMP JUMPDEST PUSH1 0x40 MLOAD DUP1 SWAP2 SUB SWAP1 REVERT JUMPDEST PUSH0 PUSH1 0x1 PUSH0 DUP1 SLOAD DUP2 MSTORE PUSH1 0x20 ADD SWAP1 DUP2 MSTORE PUSH1 0x20 ADD PUSH0 KECCAK256 SWAP1 POP PUSH0 DUP2 PUSH1 0x4 ADD SLOAD DUP3 PUSH1 0x3 ADD SLOAD DUP4 PUSH1 0x2 ADD SLOAD PUSH2 0x7F9 SWAP2 SWAP1 PUSH2 0x1348 JUMP JUMPDEST PUSH2 0x803 SWAP2 SWAP1 PUSH2 0x1348 JUMP JUMPDEST SWAP1 POP PUSH1 0x3 CALLER SWAP1 DUP1 PUSH1 0x1 DUP2 SLOAD ADD DUP1 DUP3 SSTORE DUP1 SWAP2 POP POP PUSH1 0x1 SWAP1 SUB SWAP1 PUSH0 MSTORE PUSH1 0x20 PUSH0 KECCAK256 ADD PUSH0 SWAP1 SWAP2 SWAP1 SWAP2 SWAP1 SWAP2 PUSH2 0x100 EXP DUP2 SLOAD DUP2 PUSH20 0xFFFFFFFFFFFFFFFFFFFFFFFFFFFFFFFFFFFFFFFF MUL NOT AND SWAP1 DUP4 PUSH20 0xFFFFFFFFFFFFFFFFFFFFFFFFFFFFFFFFFFFFFFFF AND MUL OR SWAP1 SSTORE POP PUSH1 0x1 DUP5 PUSH1 0xFF AND SUB PUSH2 0x8B2 JUMPI PUSH1 0x1 DUP3 PUSH1 0x2 ADD PUSH0 DUP3 DUP3 SLOAD PUSH2 0x884 SWAP2 SWAP1 PUSH2 0x1348 JUMP JUMPDEST SWAP3 POP POP DUP2 SWAP1 SSTORE POP PUSH2 0x893 PUSH2 0xC65 JUMP JUMPDEST DUP3 PUSH1 0x6 ADD PUSH0 PUSH2 0x100 EXP DUP2 SLOAD DUP2 PUSH1 0xFF MUL NOT AND SWAP1 DUP4 ISZERO ISZERO MUL OR SWAP1 SSTORE POP PUSH2 0x949 JUMP JUMPDEST PUSH1 0x2 DUP5 PUSH1 0xFF AND SUB PUSH2 0x8FF JUMPI PUSH1 0x1 DUP3 PUSH1 0x3 ADD PUSH0 DUP3 DUP3 SLOAD PUSH2 0x8D1 SWAP2 SWAP1 PUSH2 0x1348 JUMP JUMPDEST SWAP3 POP POP DUP2 SWAP1 SSTORE POP PUSH2 0x8E0 PUSH2 0xC65 JUMP JUMPDEST DUP3 PUSH1 0x6 ADD PUSH0 PUSH2 0x100 EXP DUP2 SLOAD DUP2 PUSH1 0xFF MUL NOT AND SWAP1 DUP4 ISZERO ISZERO MUL OR SWAP1 SSTORE POP PUSH2 0x948 JUMP JUMPDEST PUSH0 DUP5 PUSH1 0xFF AND SUB PUSH2 0x947 JUMPI PUSH1 0x1 DUP3 PUSH1 0x4 ADD PUSH0 DUP3 DUP3 SLOAD PUSH2 0x91D SWAP2 SWAP1 PUSH2 0x1348 JUMP JUMPDEST SWAP3 POP POP DUP2 SWAP1 SSTORE POP PUSH2 0x92C PUSH2 0xC65 JUMP JUMPDEST DUP3 PUSH1 0x6 ADD PUSH0 PUSH2 0x100 EXP DUP2 SLOAD DUP2 PUSH1 0xFF MUL NOT AND SWAP1 DUP4 ISZERO ISZERO MUL OR SWAP1 SSTORE POP JUMPDEST JUMPDEST JUMPDEST PUSH1 0x1 DUP2 DUP4 PUSH1 0x5 ADD SLOAD PUSH2 0x95B SWAP2 SWAP1 PUSH2 0x167C JUMP JUMPDEST EQ DUP1 ISZERO PUSH2 0x986 JUMPI POP PUSH1 0x1 DUP5 PUSH1 0xFF AND EQ DUP1 PUSH2 0x978 JUMPI POP PUSH1 0x2 DUP5 PUSH1 0xFF AND EQ JUMPDEST DUP1 PUSH2 0x985 JUMPI POP PUSH0 DUP5 PUSH1 0xFF AND EQ JUMPDEST JUMPDEST ISZERO PUSH2 0xA15 JUMPI PUSH0 DUP3 PUSH1 0x6 ADD PUSH1 0x1 PUSH2 0x100 EXP DUP2 SLOAD DUP2 PUSH1 0xFF MUL NOT AND SWAP1 DUP4 ISZERO ISZERO MUL OR SWAP1 SSTORE POP PUSH1 0x40 MLOAD DUP1 PUSH1 0x20 ADD PUSH1 0x40 MSTORE DUP1 PUSH1 0x2 PUSH0 SWAP1 SLOAD SWAP1 PUSH2 0x100 EXP SWAP1 DIV PUSH20 0xFFFFFFFFFFFFFFFFFFFFFFFFFFFFFFFFFFFFFFFF AND PUSH20 0xFFFFFFFFFFFFFFFFFFFFFFFFFFFFFFFFFFFFFFFF AND PUSH20 0xFFFFFFFFFFFFFFFFFFFFFFFFFFFFFFFFFFFFFFFF AND DUP2 MSTORE POP PUSH1 0x3 SWAP1 PUSH1 0x1 PUSH2 0xA13 SWAP3 SWAP2 SWAP1 PUSH2 0xD16 JUMP JUMPDEST POP JUMPDEST POP POP POP POP JUMP JUMPDEST PUSH2 0xA23 PUSH2 0xCD3 JUMP JUMPDEST PUSH1 0x1 PUSH0 DUP4 DUP2 MSTORE PUSH1 0x20 ADD SWAP1 DUP2 MSTORE PUSH1 0x20 ADD PUSH0 KECCAK256 PUSH1 0x40 MLOAD DUP1 PUSH2 0x100 ADD PUSH1 0x40 MSTORE SWAP1 DUP2 PUSH0 DUP3 ADD DUP1 SLOAD PUSH2 0xA4F SWAP1 PUSH2 0x1283 JUMP JUMPDEST DUP1 PUSH1 0x1F ADD PUSH1 0x20 DUP1 SWAP2 DIV MUL PUSH1 0x20 ADD PUSH1 0x40 MLOAD SWAP1 DUP2 ADD PUSH1 0x40 MSTORE DUP1 SWAP3 SWAP2 SWAP1 DUP2 DUP2 MSTORE PUSH1 0x20 ADD DUP3 DUP1 SLOAD PUSH2 0xA7B SWAP1 PUSH2 0x1283 JUMP JUMPDEST DUP1 ISZERO PUSH2 0xAC6 JUMPI DUP1 PUSH1 0x1F LT PUSH2 0xA9D JUMPI PUSH2 0x100 DUP1 DUP4 SLOAD DIV MUL DUP4 MSTORE SWAP2 PUSH1 0x20 ADD SWAP2 PUSH2 0xAC6 JUMP JUMPDEST DUP3 ADD SWAP2 SWAP1 PUSH0 MSTORE PUSH1 0x20 PUSH0 KECCAK256 SWAP1 JUMPDEST DUP2 SLOAD DUP2 MSTORE SWAP1 PUSH1 0x1 ADD SWAP1 PUSH1 0x20 ADD DUP1 DUP4 GT PUSH2 0xAA9 JUMPI DUP3 SWAP1 SUB PUSH1 0x1F AND DUP3 ADD SWAP2 JUMPDEST POP POP POP POP POP DUP2 MSTORE PUSH1 0x20 ADD PUSH1 0x1 DUP3 ADD DUP1 SLOAD PUSH2 0xADF SWAP1 PUSH2 0x1283 JUMP JUMPDEST DUP1 PUSH1 0x1F ADD PUSH1 0x20 DUP1 SWAP2 DIV MUL PUSH1 0x20 ADD PUSH1 0x40 MLOAD SWAP1 DUP2 ADD PUSH1 0x40 MSTORE DUP1 SWAP3 SWAP2 SWAP1 DUP2 DUP2 MSTORE PUSH1 0x20 ADD DUP3 DUP1 SLOAD PUSH2 0xB0B SWAP1 PUSH2 0x1283 JUMP JUMPDEST DUP1 ISZERO PUSH2 0xB56 JUMPI DUP1 PUSH1 0x1F LT PUSH2 0xB2D JUMPI PUSH2 0x100 DUP1 DUP4 SLOAD DIV MUL DUP4 MSTORE SWAP2 PUSH1 0x20 ADD SWAP2 PUSH2 0xB56 JUMP JUMPDEST DUP3 ADD SWAP2 SWAP1 PUSH0 MSTORE PUSH1 0x20 PUSH0 KECCAK256 SWAP1 JUMPDEST DUP2 SLOAD DUP2 MSTORE SWAP1 PUSH1 0x1 ADD SWAP1 PUSH1 0x20 ADD DUP1 DUP4 GT PUSH2 0xB39 JUMPI DUP3 SWAP1 SUB PUSH1 0x1F AND DUP3 ADD SWAP2 JUMPDEST POP POP POP POP POP DUP2 MSTORE PUSH1 0x20 ADD PUSH1 0x2 DUP3 ADD SLOAD DUP2 MSTORE PUSH1 0x20 ADD PUSH1 0x3 DUP3 ADD SLOAD DUP2 MSTORE PUSH1 0x20 ADD PUSH1 0x4 DUP3 ADD SLOAD DUP2 MSTORE PUSH1 0x20 ADD PUSH1 0x5 DUP3 ADD SLOAD DUP2 MSTORE PUSH1 0x20 ADD PUSH1 0x6 DUP3 ADD PUSH0 SWAP1 SLOAD SWAP1 PUSH2 0x100 EXP SWAP1 DIV PUSH1 0xFF AND ISZERO ISZERO ISZERO ISZERO DUP2 MSTORE PUSH1 0x20 ADD PUSH1 0x6 DUP3 ADD PUSH1 0x1 SWAP1 SLOAD SWAP1 PUSH2 0x100 EXP SWAP1 DIV PUSH1 0xFF AND ISZERO ISZERO ISZERO ISZERO DUP2 MSTORE POP POP SWAP1 POP SWAP2 SWAP1 POP JUMP JUMPDEST PUSH0 DUP1 PUSH0 SWAP1 POP JUMPDEST PUSH1 0x3 DUP1 SLOAD SWAP1 POP DUP2 LT ISZERO PUSH2 0xC5B JUMPI DUP3 PUSH20 0xFFFFFFFFFFFFFFFFFFFFFFFFFFFFFFFFFFFFFFFF AND PUSH1 0x3 DUP3 DUP2 SLOAD DUP2 LT PUSH2 0xC01 JUMPI PUSH2 0xC00 PUSH2 0x16AF JUMP JUMPDEST JUMPDEST SWAP1 PUSH0 MSTORE PUSH1 0x20 PUSH0 KECCAK256 ADD PUSH0 SWAP1 SLOAD SWAP1 PUSH2 0x100 EXP SWAP1 DIV PUSH20 0xFFFFFFFFFFFFFFFFFFFFFFFFFFFFFFFFFFFFFFFF AND PUSH20 0xFFFFFFFFFFFFFFFFFFFFFFFFFFFFFFFFFFFFFFFF AND SUB PUSH2 0xC4E JUMPI PUSH1 0x1 SWAP2 POP POP PUSH2 0xC60 JUMP JUMPDEST DUP1 DUP1 PUSH1 0x1 ADD SWAP2 POP POP PUSH2 0xBC9 JUMP JUMPDEST POP PUSH0 SWAP1 POP JUMPDEST SWAP2 SWAP1 POP JUMP JUMPDEST PUSH0 DUP1 PUSH1 0x1 PUSH0 DUP1 SLOAD DUP2 MSTORE PUSH1 0x20 ADD SWAP1 DUP2 MSTORE PUSH1 0x20 ADD PUSH0 KECCAK256 SWAP1 POP PUSH0 DUP2 PUSH1 0x4 ADD SLOAD DUP3 PUSH1 0x3 ADD SLOAD DUP4 PUSH1 0x2 ADD SLOAD PUSH2 0xC95 SWAP2 SWAP1 PUSH2 0x1348 JUMP JUMPDEST PUSH2 0xC9F SWAP2 SWAP1 PUSH2 0x1348 JUMP JUMPDEST SWAP1 POP PUSH0 PUSH1 0x2 DUP3 PUSH2 0xCAF SWAP2 SWAP1 PUSH2 0x1709 JUMP JUMPDEST SWAP1 POP DUP1 DUP4 PUSH1 0x2 ADD SLOAD GT ISZERO PUSH2 0xCC9 JUMPI PUSH1 0x1 SWAP4 POP POP POP POP PUSH2 0xCD0 JUMP JUMPDEST PUSH0 SWAP4 POP POP POP POP JUMPDEST SWAP1 JUMP JUMPDEST PUSH1 0x40 MLOAD DUP1 PUSH2 0x100 ADD PUSH1 0x40 MSTORE DUP1 PUSH1 0x60 DUP2 MSTORE PUSH1 0x20 ADD PUSH1 0x60 DUP2 MSTORE PUSH1 0x20 ADD PUSH0 DUP2 MSTORE PUSH1 0x20 ADD PUSH0 DUP2 MSTORE PUSH1 0x20 ADD PUSH0 DUP2 MSTORE PUSH1 0x20 ADD PUSH0 DUP2 MSTORE PUSH1 0x20 ADD PUSH0 ISZERO ISZERO DUP2 MSTORE PUSH1 0x20 ADD PUSH0 ISZERO ISZERO DUP2 MSTORE POP SWAP1 JUMP JUMPDEST DUP3 DUP1 SLOAD DUP3 DUP3 SSTORE SWAP1 PUSH0 MSTORE PUSH1 0x20 PUSH0 KECCAK256 SWAP1 DUP2 ADD SWAP3 DUP3 ISZERO PUSH2 0xD8C JUMPI SWAP2 PUSH1 0x20 MUL DUP3 ADD JUMPDEST DUP3 DUP2 GT ISZERO PUSH2 0xD8B JUMPI DUP3 MLOAD DUP3 PUSH0 PUSH2 0x100 EXP DUP2 SLOAD DUP2 PUSH20 0xFFFFFFFFFFFFFFFFFFFFFFFFFFFFFFFFFFFFFFFF MUL NOT AND SWAP1 DUP4 PUSH20 0xFFFFFFFFFFFFFFFFFFFFFFFFFFFFFFFFFFFFFFFF AND MUL OR SWAP1 SSTORE POP SWAP2 PUSH1 0x20 ADD SWAP2 SWAP1 PUSH1 0x1 ADD SWAP1 PUSH2 0xD34 JUMP JUMPDEST JUMPDEST POP SWAP1 POP PUSH2 0xD99 SWAP2 SWAP1 PUSH2 0xD9D JUMP JUMPDEST POP SWAP1 JUMP JUMPDEST JUMPDEST DUP1 DUP3 GT ISZERO PUSH2 0xDB4 JUMPI PUSH0 DUP2 PUSH0 SWAP1 SSTORE POP PUSH1 0x1 ADD PUSH2 0xD9E JUMP JUMPDEST POP SWAP1 JUMP JUMPDEST PUSH0 DUP1 REVERT JUMPDEST PUSH0 DUP1 REVERT JUMPDEST PUSH0 PUSH20 0xFFFFFFFFFFFFFFFFFFFFFFFFFFFFFFFFFFFFFFFF DUP3 AND SWAP1 POP SWAP2 SWAP1 POP JUMP JUMPDEST PUSH0 PUSH2 0xDE9 DUP3 PUSH2 0xDC0 JUMP JUMPDEST SWAP1 POP SWAP2 SWAP1 POP JUMP JUMPDEST PUSH2 0xDF9 DUP2 PUSH2 0xDDF JUMP JUMPDEST DUP2 EQ PUSH2 0xE03 JUMPI PUSH0 DUP1 REVERT JUMPDEST POP JUMP JUMPDEST PUSH0 DUP2 CALLDATALOAD SWAP1 POP PUSH2 0xE14 DUP2 PUSH2 0xDF0 JUMP JUMPDEST SWAP3 SWAP2 POP POP JUMP JUMPDEST PUSH0 PUSH1 0x20 DUP3 DUP5 SUB SLT ISZERO PUSH2 0xE2F JUMPI PUSH2 0xE2E PUSH2 0xDB8 JUMP JUMPDEST JUMPDEST PUSH0 PUSH2 0xE3C DUP5 DUP3 DUP6 ADD PUSH2 0xE06 JUMP JUMPDEST SWAP2 POP POP SWAP3 SWAP2 POP POP JUMP JUMPDEST PUSH0 DUP2 MLOAD SWAP1 POP SWAP2 SWAP1 POP JUMP JUMPDEST PUSH0 DUP3 DUP3 MSTORE PUSH1 0x20 DUP3 ADD SWAP1 POP SWAP3 SWAP2 POP POP JUMP JUMPDEST PUSH0 JUMPDEST DUP4 DUP2 LT ISZERO PUSH2 0xE7C JUMPI DUP1 DUP3 ADD MLOAD DUP2 DUP5 ADD MSTORE PUSH1 0x20 DUP2 ADD SWAP1 POP PUSH2 0xE61 JUMP JUMPDEST PUSH0 DUP5 DUP5 ADD MSTORE POP POP POP POP JUMP JUMPDEST PUSH0 PUSH1 0x1F NOT PUSH1 0x1F DUP4 ADD AND SWAP1 POP SWAP2 SWAP1 POP JUMP JUMPDEST PUSH0 PUSH2 0xEA1 DUP3 PUSH2 0xE45 JUMP JUMPDEST PUSH2 0xEAB DUP2 DUP6 PUSH2 0xE4F JUMP JUMPDEST SWAP4 POP PUSH2 0xEBB DUP2 DUP6 PUSH1 0x20 DUP7 ADD PUSH2 0xE5F JUMP JUMPDEST PUSH2 0xEC4 DUP2 PUSH2 0xE87 JUMP JUMPDEST DUP5 ADD SWAP2 POP POP SWAP3 SWAP2 POP POP JUMP JUMPDEST PUSH0 DUP2 SWAP1 POP SWAP2 SWAP1 POP JUMP JUMPDEST PUSH2 0xEE1 DUP2 PUSH2 0xECF JUMP JUMPDEST DUP3 MSTORE POP POP JUMP JUMPDEST PUSH0 DUP2 ISZERO ISZERO SWAP1 POP SWAP2 SWAP1 POP JUMP JUMPDEST PUSH2 0xEFB DUP2 PUSH2 0xEE7 JUMP JUMPDEST DUP3 MSTORE POP POP JUMP JUMPDEST PUSH0 PUSH2 0x100 DUP4 ADD PUSH0 DUP4 ADD MLOAD DUP5 DUP3 SUB PUSH0 DUP7 ADD MSTORE PUSH2 0xF1C DUP3 DUP3 PUSH2 0xE97 JUMP JUMPDEST SWAP2 POP POP PUSH1 0x20 DUP4 ADD MLOAD DUP5 DUP3 SUB PUSH1 0x20 DUP7 ADD MSTORE PUSH2 0xF36 DUP3 DUP3 PUSH2 0xE97 JUMP JUMPDEST SWAP2 POP POP PUSH1 0x40 DUP4 ADD MLOAD PUSH2 0xF4B PUSH1 0x40 DUP7 ADD DUP3 PUSH2 0xED8 JUMP JUMPDEST POP PUSH1 0x60 DUP4 ADD MLOAD PUSH2 0xF5E PUSH1 0x60 DUP7 ADD DUP3 PUSH2 0xED8 JUMP JUMPDEST POP PUSH1 0x80 DUP4 ADD MLOAD PUSH2 0xF71 PUSH1 0x80 DUP7 ADD DUP3 PUSH2 0xED8 JUMP JUMPDEST POP PUSH1 0xA0 DUP4 ADD MLOAD PUSH2 0xF84 PUSH1 0xA0 DUP7 ADD DUP3 PUSH2 0xED8 JUMP JUMPDEST POP PUSH1 0xC0 DUP4 ADD MLOAD PUSH2 0xF97 PUSH1 0xC0 DUP7 ADD DUP3 PUSH2 0xEF2 JUMP JUMPDEST POP PUSH1 0xE0 DUP4 ADD MLOAD PUSH2 0xFAA PUSH1 0xE0 DUP7 ADD DUP3 PUSH2 0xEF2 JUMP JUMPDEST POP DUP1 SWAP2 POP POP SWAP3 SWAP2 POP POP JUMP JUMPDEST PUSH0 PUSH1 0x20 DUP3 ADD SWAP1 POP DUP2 DUP2 SUB PUSH0 DUP4 ADD MSTORE PUSH2 0xFCD DUP2 DUP5 PUSH2 0xF01 JUMP JUMPDEST SWAP1 POP SWAP3 SWAP2 POP POP JUMP JUMPDEST PUSH0 DUP1 REVERT JUMPDEST PUSH0 DUP1 REVERT JUMPDEST PUSH0 DUP1 REVERT JUMPDEST PUSH0 DUP1 DUP4 PUSH1 0x1F DUP5 ADD SLT PUSH2 0xFF6 JUMPI PUSH2 0xFF5 PUSH2 0xFD5 JUMP JUMPDEST JUMPDEST DUP3 CALLDATALOAD SWAP1 POP PUSH8 0xFFFFFFFFFFFFFFFF DUP2 GT ISZERO PUSH2 0x1013 JUMPI PUSH2 0x1012 PUSH2 0xFD9 JUMP JUMPDEST JUMPDEST PUSH1 0x20 DUP4 ADD SWAP2 POP DUP4 PUSH1 0x1 DUP3 MUL DUP4 ADD GT ISZERO PUSH2 0x102F JUMPI PUSH2 0x102E PUSH2 0xFDD JUMP JUMPDEST JUMPDEST SWAP3 POP SWAP3 SWAP1 POP JUMP JUMPDEST PUSH2 0x103F DUP2 PUSH2 0xECF JUMP JUMPDEST DUP2 EQ PUSH2 0x1049 JUMPI PUSH0 DUP1 REVERT JUMPDEST POP JUMP JUMPDEST PUSH0 DUP2 CALLDATALOAD SWAP1 POP PUSH2 0x105A DUP2 PUSH2 0x1036 JUMP JUMPDEST SWAP3 SWAP2 POP POP JUMP JUMPDEST PUSH0 DUP1 PUSH0 DUP1 PUSH0 DUP1 PUSH0 DUP1 PUSH1 0xC0 DUP10 DUP12 SUB SLT ISZERO PUSH2 0x107C JUMPI PUSH2 0x107B PUSH2 0xDB8 JUMP JUMPDEST JUMPDEST PUSH0 DUP10 ADD CALLDATALOAD PUSH8 0xFFFFFFFFFFFFFFFF DUP2 GT ISZERO PUSH2 0x1099 JUMPI PUSH2 0x1098 PUSH2 0xDBC JUMP JUMPDEST JUMPDEST PUSH2 0x10A5 DUP12 DUP3 DUP13 ADD PUSH2 0xFE1 JUMP JUMPDEST SWAP9 POP SWAP9 POP POP PUSH1 0x20 DUP10 ADD CALLDATALOAD PUSH8 0xFFFFFFFFFFFFFFFF DUP2 GT ISZERO PUSH2 0x10C8 JUMPI PUSH2 0x10C7 PUSH2 0xDBC JUMP JUMPDEST JUMPDEST PUSH2 0x10D4 DUP12 DUP3 DUP13 ADD PUSH2 0xFE1 JUMP JUMPDEST SWAP7 POP SWAP7 POP POP PUSH1 0x40 PUSH2 0x10E7 DUP12 DUP3 DUP13 ADD PUSH2 0x104C JUMP JUMPDEST SWAP5 POP POP PUSH1 0x60 PUSH2 0x10F8 DUP12 DUP3 DUP13 ADD PUSH2 0x104C JUMP JUMPDEST SWAP4 POP POP PUSH1 0x80 PUSH2 0x1109 DUP12 DUP3 DUP13 ADD PUSH2 0x104C JUMP JUMPDEST SWAP3 POP POP PUSH1 0xA0 PUSH2 0x111A DUP12 DUP3 DUP13 ADD PUSH2 0x104C JUMP JUMPDEST SWAP2 POP POP SWAP3 SWAP6 SWAP9 POP SWAP3 SWAP6 SWAP9 SWAP1 SWAP4 SWAP7 POP JUMP JUMPDEST PUSH0 PUSH1 0xFF DUP3 AND SWAP1 POP SWAP2 SWAP1 POP JUMP JUMPDEST PUSH2 0x113F DUP2 PUSH2 0x112A JUMP JUMPDEST DUP2 EQ PUSH2 0x1149 JUMPI PUSH0 DUP1 REVERT JUMPDEST POP JUMP JUMPDEST PUSH0 DUP2 CALLDATALOAD SWAP1 POP PUSH2 0x115A DUP2 PUSH2 0x1136 JUMP JUMPDEST SWAP3 SWAP2 POP POP JUMP JUMPDEST PUSH0 PUSH1 0x20 DUP3 DUP5 SUB SLT ISZERO PUSH2 0x1175 JUMPI PUSH2 0x1174 PUSH2 0xDB8 JUMP JUMPDEST JUMPDEST PUSH0 PUSH2 0x1182 DUP5 DUP3 DUP6 ADD PUSH2 0x114C JUMP JUMPDEST SWAP2 POP POP SWAP3 SWAP2 POP POP JUMP JUMPDEST PUSH0 PUSH1 0x20 DUP3 DUP5 SUB SLT ISZERO PUSH2 0x11A0 JUMPI PUSH2 0x119F PUSH2 0xDB8 JUMP JUMPDEST JUMPDEST PUSH0 PUSH2 0x11AD DUP5 DUP3 DUP6 ADD PUSH2 0x104C JUMP JUMPDEST SWAP2 POP POP SWAP3 SWAP2 POP POP JUMP JUMPDEST PUSH2 0x11BF DUP2 PUSH2 0xEE7 JUMP JUMPDEST DUP3 MSTORE POP POP JUMP JUMPDEST PUSH0 PUSH1 0x20 DUP3 ADD SWAP1 POP PUSH2 0x11D8 PUSH0 DUP4 ADD DUP5 PUSH2 0x11B6 JUMP JUMPDEST SWAP3 SWAP2 POP POP JUMP JUMPDEST PUSH0 DUP3 DUP3 MSTORE PUSH1 0x20 DUP3 ADD SWAP1 POP SWAP3 SWAP2 POP POP JUMP JUMPDEST PUSH32 0x596F75277265206E6F7420746865206F776E65722E0000000000000000000000 PUSH0 DUP3 ADD MSTORE POP JUMP JUMPDEST PUSH0 PUSH2 0x1222 PUSH1 0x15 DUP4 PUSH2 0x11DE JUMP JUMPDEST SWAP2 POP PUSH2 0x122D DUP3 PUSH2 0x11EE JUMP JUMPDEST PUSH1 0x20 DUP3 ADD SWAP1 POP SWAP2 SWAP1 POP JUMP JUMPDEST PUSH0 PUSH1 0x20 DUP3 ADD SWAP1 POP DUP2 DUP2 SUB PUSH0 DUP4 ADD MSTORE PUSH2 0x124F DUP2 PUSH2 0x1216 JUMP JUMPDEST SWAP1 POP SWAP2 SWAP1 POP JUMP JUMPDEST PUSH32 0x4E487B7100000000000000000000000000000000000000000000000000000000 PUSH0 MSTORE PUSH1 0x22 PUSH1 0x4 MSTORE PUSH1 0x24 PUSH0 REVERT JUMPDEST PUSH0 PUSH1 0x2 DUP3 DIV SWAP1 POP PUSH1 0x1 DUP3 AND DUP1 PUSH2 0x129A JUMPI PUSH1 0x7F DUP3 AND SWAP2 POP JUMPDEST PUSH1 0x20 DUP3 LT DUP2 SUB PUSH2 0x12AD JUMPI PUSH2 0x12AC PUSH2 0x1256 JUMP JUMPDEST JUMPDEST POP SWAP2 SWAP1 POP JUMP JUMPDEST PUSH32 0x5468652070726F706F73616C206973206E6F7420616374697665000000000000 PUSH0 DUP3 ADD MSTORE POP JUMP JUMPDEST PUSH0 PUSH2 0x12E7 PUSH1 0x1A DUP4 PUSH2 0x11DE JUMP JUMPDEST SWAP2 POP PUSH2 0x12F2 DUP3 PUSH2 0x12B3 JUMP JUMPDEST PUSH1 0x20 DUP3 ADD SWAP1 POP SWAP2 SWAP1 POP JUMP JUMPDEST PUSH0 PUSH1 0x20 DUP3 ADD SWAP1 POP DUP2 DUP2 SUB PUSH0 DUP4 ADD MSTORE PUSH2 0x1314 DUP2 PUSH2 0x12DB JUMP JUMPDEST SWAP1 POP SWAP2 SWAP1 POP JUMP JUMPDEST PUSH32 0x4E487B7100000000000000000000000000000000000000000000000000000000 PUSH0 MSTORE PUSH1 0x11 PUSH1 0x4 MSTORE PUSH1 0x24 PUSH0 REVERT JUMPDEST PUSH0 PUSH2 0x1352 DUP3 PUSH2 0xECF JUMP JUMPDEST SWAP2 POP PUSH2 0x135D DUP4 PUSH2 0xECF JUMP JUMPDEST SWAP3 POP DUP3 DUP3 ADD SWAP1 POP DUP1 DUP3 GT ISZERO PUSH2 0x1375 JUMPI PUSH2 0x1374 PUSH2 0x131B JUMP JUMPDEST JUMPDEST SWAP3 SWAP2 POP POP JUMP JUMPDEST PUSH32 0x4E487B7100000000000000000000000000000000000000000000000000000000 PUSH0 MSTORE PUSH1 0x41 PUSH1 0x4 MSTORE PUSH1 0x24 PUSH0 REVERT JUMPDEST PUSH0 DUP2 SWAP1 POP DUP2 PUSH0 MSTORE PUSH1 0x20 PUSH0 KECCAK256 SWAP1 POP SWAP2 SWAP1 POP JUMP JUMPDEST PUSH0 PUSH1 0x20 PUSH1 0x1F DUP4 ADD DIV SWAP1 POP SWAP2 SWAP1 POP JUMP JUMPDEST PUSH0 DUP3 DUP3 SHL SWAP1 POP SWAP3 SWAP2 POP POP JUMP JUMPDEST PUSH0 PUSH1 0x8 DUP4 MUL PUSH2 0x1404 PUSH32 0xFFFFFFFFFFFFFFFFFFFFFFFFFFFFFFFFFFFFFFFFFFFFFFFFFFFFFFFFFFFFFFFF DUP3 PUSH2 0x13C9 JUMP JUMPDEST PUSH2 0x140E DUP7 DUP4 PUSH2 0x13C9 JUMP JUMPDEST SWAP6 POP DUP1 NOT DUP5 AND SWAP4 POP DUP1 DUP7 AND DUP5 OR SWAP3 POP POP POP SWAP4 SWAP3 POP POP POP JUMP JUMPDEST PUSH0 DUP2 SWAP1 POP SWAP2 SWAP1 POP JUMP JUMPDEST PUSH0 PUSH2 0x1449 PUSH2 0x1444 PUSH2 0x143F DUP5 PUSH2 0xECF JUMP JUMPDEST PUSH2 0x1426 JUMP JUMPDEST PUSH2 0xECF JUMP JUMPDEST SWAP1 POP SWAP2 SWAP1 POP JUMP JUMPDEST PUSH0 DUP2 SWAP1 POP SWAP2 SWAP1 POP JUMP JUMPDEST PUSH2 0x1462 DUP4 PUSH2 0x142F JUMP JUMPDEST PUSH2 0x1476 PUSH2 0x146E DUP3 PUSH2 0x1450 JUMP JUMPDEST DUP5 DUP5 SLOAD PUSH2 0x13D5 JUMP JUMPDEST DUP3 SSTORE POP POP POP POP JUMP JUMPDEST PUSH0 SWAP1 JUMP JUMPDEST PUSH2 0x148A PUSH2 0x147E JUMP JUMPDEST PUSH2 0x1495 DUP2 DUP5 DUP5 PUSH2 0x1459 JUMP JUMPDEST POP POP POP JUMP JUMPDEST JUMPDEST DUP2 DUP2 LT ISZERO PUSH2 0x14B8 JUMPI PUSH2 0x14AD PUSH0 DUP3 PUSH2 0x1482 JUMP JUMPDEST PUSH1 0x1 DUP2 ADD SWAP1 POP PUSH2 0x149B JUMP JUMPDEST POP POP JUMP JUMPDEST PUSH1 0x1F DUP3 GT ISZERO PUSH2 0x14FD JUMPI PUSH2 0x14CE DUP2 PUSH2 0x13A8 JUMP JUMPDEST PUSH2 0x14D7 DUP5 PUSH2 0x13BA JUMP JUMPDEST DUP2 ADD PUSH1 0x20 DUP6 LT ISZERO PUSH2 0x14E6 JUMPI DUP2 SWAP1 POP JUMPDEST PUSH2 0x14FA PUSH2 0x14F2 DUP6 PUSH2 0x13BA JUMP JUMPDEST DUP4 ADD DUP3 PUSH2 0x149A JUMP JUMPDEST POP POP JUMPDEST POP POP POP JUMP JUMPDEST PUSH0 DUP3 DUP3 SHR SWAP1 POP SWAP3 SWAP2 POP POP JUMP JUMPDEST PUSH0 PUSH2 0x151D PUSH0 NOT DUP5 PUSH1 0x8 MUL PUSH2 0x1502 JUMP JUMPDEST NOT DUP1 DUP4 AND SWAP2 POP POP SWAP3 SWAP2 POP POP JUMP JUMPDEST PUSH0 PUSH2 0x1535 DUP4 DUP4 PUSH2 0x150E JUMP JUMPDEST SWAP2 POP DUP3 PUSH1 0x2 MUL DUP3 OR SWAP1 POP SWAP3 SWAP2 POP POP JUMP JUMPDEST PUSH2 0x154E DUP3 PUSH2 0xE45 JUMP JUMPDEST PUSH8 0xFFFFFFFFFFFFFFFF DUP2 GT ISZERO PUSH2 0x1567 JUMPI PUSH2 0x1566 PUSH2 0x137B JUMP JUMPDEST JUMPDEST PUSH2 0x1571 DUP3 SLOAD PUSH2 0x1283 JUMP JUMPDEST PUSH2 0x157C DUP3 DUP3 DUP6 PUSH2 0x14BC JUMP JUMPDEST PUSH0 PUSH1 0x20 SWAP1 POP PUSH1 0x1F DUP4 GT PUSH1 0x1 DUP2 EQ PUSH2 0x15AD JUMPI PUSH0 DUP5 ISZERO PUSH2 0x159B JUMPI DUP3 DUP8 ADD MLOAD SWAP1 POP JUMPDEST PUSH2 0x15A5 DUP6 DUP3 PUSH2 0x152A JUMP JUMPDEST DUP7 SSTORE POP PUSH2 0x160C JUMP JUMPDEST PUSH1 0x1F NOT DUP5 AND PUSH2 0x15BB DUP7 PUSH2 0x13A8 JUMP JUMPDEST PUSH0 JUMPDEST DUP3 DUP2 LT ISZERO PUSH2 0x15E2 JUMPI DUP5 DUP10 ADD MLOAD DUP3 SSTORE PUSH1 0x1 DUP3 ADD SWAP2 POP PUSH1 0x20 DUP6 ADD SWAP5 POP PUSH1 0x20 DUP2 ADD SWAP1 POP PUSH2 0x15BD JUMP JUMPDEST DUP7 DUP4 LT ISZERO PUSH2 0x15FF JUMPI DUP5 DUP10 ADD MLOAD PUSH2 0x15FB PUSH1 0x1F DUP10 AND DUP3 PUSH2 0x150E JUMP JUMPDEST DUP4 SSTORE POP JUMPDEST PUSH1 0x1 PUSH1 0x2 DUP9 MUL ADD DUP9 SSTORE POP POP POP JUMPDEST POP POP POP POP POP POP JUMP JUMPDEST PUSH32 0x416464726573732068617320616C726561647920766F74656400000000000000 PUSH0 DUP3 ADD MSTORE POP JUMP JUMPDEST PUSH0 PUSH2 0x1648 PUSH1 0x19 DUP4 PUSH2 0x11DE JUMP JUMPDEST SWAP2 POP PUSH2 0x1653 DUP3 PUSH2 0x1614 JUMP JUMPDEST PUSH1 0x20 DUP3 ADD SWAP1 POP SWAP2 SWAP1 POP JUMP JUMPDEST PUSH0 PUSH1 0x20 DUP3 ADD SWAP1 POP DUP2 DUP2 SUB PUSH0 DUP4 ADD MSTORE PUSH2 0x1675 DUP2 PUSH2 0x163C JUMP JUMPDEST SWAP1 POP SWAP2 SWAP1 POP JUMP JUMPDEST PUSH0 PUSH2 0x1686 DUP3 PUSH2 0xECF JUMP JUMPDEST SWAP2 POP PUSH2 0x1691 DUP4 PUSH2 0xECF JUMP JUMPDEST SWAP3 POP DUP3 DUP3 SUB SWAP1 POP DUP2 DUP2 GT ISZERO PUSH2 0x16A9 JUMPI PUSH2 0x16A8 PUSH2 0x131B JUMP JUMPDEST JUMPDEST SWAP3 SWAP2 POP POP JUMP JUMPDEST PUSH32 0x4E487B7100000000000000000000000000000000000000000000000000000000 PUSH0 MSTORE PUSH1 0x32 PUSH1 0x4 MSTORE PUSH1 0x24 PUSH0 REVERT JUMPDEST PUSH32 0x4E487B7100000000000000000000000000000000000000000000000000000000 PUSH0 MSTORE PUSH1 0x12 PUSH1 0x4 MSTORE PUSH1 0x24 PUSH0 REVERT JUMPDEST PUSH0 PUSH2 0x1713 DUP3 PUSH2 0xECF JUMP JUMPDEST SWAP2 POP PUSH2 0x171E DUP4 PUSH2 0xECF JUMP JUMPDEST SWAP3 POP DUP3 PUSH2 0x172E JUMPI PUSH2 0x172D PUSH2 0x16DC JUMP JUMPDEST JUMPDEST DUP3 DUP3 DIV SWAP1 POP SWAP3 SWAP2 POP POP JUMP INVALID LOG2 PUSH5 0x6970667358 0x22 SLT KECCAK256 MSTORE LT PUSH18 0x42C9835A52A735FF9F5F89AE31F0BBAB2350 SHL CALLVALUE JUMPI PUSH5 0xC2FC68A485 0x4F PUSH5 0x64736F6C63 NUMBER STOP ADDMOD XOR STOP CALLER "
		},
		"gasEstimates": {
			"creation": {
				"codeDepositCost": "1199800",
				"executionCost": "74086",
				"totalCost": "1273886"
			},
			"external": {
				"create(string,string,uint256,uint256,uint256,uint256)": "infinite",
				"getCurrentProposal()": "infinite",
				"getProposal(uint256)": "infinite",
				"isVoted(address)": "infinite",
				"setOwner(address)": "26885",
				"teminateProposal()": "33258",
				"vote(uint8)": "infinite"
			},
			"internal": {
				"calculateCurrentState()": "infinite"
			}
		},
		"methodIdentifiers": {
			"create(string,string,uint256,uint256,uint256,uint256)": "9478f9e7",
			"getCurrentProposal()": "41ec6870",
			"getProposal(uint256)": "c7f758a8",
			"isVoted(address)": "cbff75cb",
			"setOwner(address)": "13af4035",
			"teminateProposal()": "89190393",
			"vote(uint8)": "b3f98adc"
		}
	},
	"abi": [
		{
			"inputs": [],
			"stateMutability": "nonpayable",
			"type": "constructor"
		},
		{
			"inputs": [
				{
					"internalType": "string",
					"name": "_title",
					"type": "string"
				},
				{
					"internalType": "string",
					"name": "_description",
					"type": "string"
				},
				{
					"internalType": "uint256",
					"name": "_approve",
					"type": "uint256"
				},
				{
					"internalType": "uint256",
					"name": "_reject",
					"type": "uint256"
				},
				{
					"internalType": "uint256",
					"name": "_pass",
					"type": "uint256"
				},
				{
					"internalType": "uint256",
					"name": "_total_vote_to_end",
					"type": "uint256"
				}
			],
			"name": "create",
			"outputs": [],
			"stateMutability": "nonpayable",
			"type": "function"
		},
		{
			"inputs": [],
			"name": "getCurrentProposal",
			"outputs": [
				{
					"components": [
						{
							"internalType": "string",
							"name": "title",
							"type": "string"
						},
						{
							"internalType": "string",
							"name": "description",
							"type": "string"
						},
						{
							"internalType": "uint256",
							"name": "approve",
							"type": "uint256"
						},
						{
							"internalType": "uint256",
							"name": "reject",
							"type": "uint256"
						},
						{
							"internalType": "uint256",
							"name": "pass",
							"type": "uint256"
						},
						{
							"internalType": "uint256",
							"name": "total_vote_to_end",
							"type": "uint256"
						},
						{
							"internalType": "bool",
							"name": "current_state",
							"type": "bool"
						},
						{
							"internalType": "bool",
							"name": "is_active",
							"type": "bool"
						}
					],
					"internalType": "struct Fourth_Homework.Proposal",
					"name": "",
					"type": "tuple"
				}
			],
			"stateMutability": "view",
			"type": "function"
		},
		{
			"inputs": [
				{
					"internalType": "uint256",
					"name": "number",
					"type": "uint256"
				}
			],
			"name": "getProposal",
			"outputs": [
				{
					"components": [
						{
							"internalType": "string",
							"name": "title",
							"type": "string"
						},
						{
							"internalType": "string",
							"name": "description",
							"type": "string"
						},
						{
							"internalType": "uint256",
							"name": "approve",
							"type": "uint256"
						},
						{
							"internalType": "uint256",
							"name": "reject",
							"type": "uint256"
						},
						{
							"internalType": "uint256",
							"name": "pass",
							"type": "uint256"
						},
						{
							"internalType": "uint256",
							"name": "total_vote_to_end",
							"type": "uint256"
						},
						{
							"internalType": "bool",
							"name": "current_state",
							"type": "bool"
						},
						{
							"internalType": "bool",
							"name": "is_active",
							"type": "bool"
						}
					],
					"internalType": "struct Fourth_Homework.Proposal",
					"name": "",
					"type": "tuple"
				}
			],
			"stateMutability": "view",
			"type": "function"
		},
		{
			"inputs": [
				{
					"internalType": "address",
					"name": "_address",
					"type": "address"
				}
			],
			"name": "isVoted",
			"outputs": [
				{
					"internalType": "bool",
					"name": "",
					"type": "bool"
				}
			],
			"stateMutability": "view",
			"type": "function"
		},
		{
			"inputs": [
				{
					"internalType": "address",
					"name": "newOwner",
					"type": "address"
				}
			],
			"name": "setOwner",
			"outputs": [],
			"stateMutability": "nonpayable",
			"type": "function"
		},
		{
			"inputs": [],
			"name": "teminateProposal",
			"outputs": [],
			"stateMutability": "nonpayable",
			"type": "function"
		},
		{
			"inputs": [
				{
					"internalType": "uint8",
					"name": "choice",
					"type": "uint8"
				}
			],
			"name": "vote",
			"outputs": [],
			"stateMutability": "nonpayable",
			"type": "function"
		}
	]
}